:020000040800F2
:1000000060070020510600082502000827020008AA
:100010002B0200082F020008330200080000000035
:10002000000000000000000000000000370200088F
:1000300039020008000000003B0200083D020008F1
:100040006B0600086B0600086B0600086B060008CC
:100050006B0600086B0600086B0600086B060008BC
:100060006B0600086B0600086B0600086B060008AC
:100070006B0600086B0600086B0600086B0600089C
:100080006B0600086B0600086B0600086B0600088C
:100090006B0600086B0600086B0600086B0600087C
:1000A0006B0600086B0600086B0600086B0600086C
:1000B0006B0600086B0600086B0600086B0600085C
:1000C0006B0600086B0600086B0600086B0600084C
:1000D0006B060008C50500086B0600086B060008E3
:1000E0006B0600086B0600086B0600086B0600082C
:1000F0006B0600086B0600086B0600086B0600081C
:100100006B0600086B0600086B0600086B0600080B
:100110006B0600086B0600086B0600086B060008FB
:100120006B0600086B0600086B0600086B060008EB
:1001300000F002F800F03AF80AA090E8000C8244BF
:100140008344AAF10107DA4501D100F02FF8AFF29C
:10015000090EBAE80F0013F0010F18BFFB1A43F0A5
:1001600001031847F060000010610000103A24BF3E
:1001700078C878C1FAD8520724BF30C830C144BF0C
:1001800004680C607047000000230024002500264E
:10019000103A28BF78C1FBD8520728BF30C148BFEA
:1001A0000B6070471FB51FBD10B510BD01F0A3FC5B
:1001B0001146FFF7F7FF00F009F801F0C1FC03B4A6
:1001C000FFF7F2FF03BC00F0A3F9000000F026F9EE
:1001D00000F098F901F0FAFB1EE001F0BFF80F48BB
:1001E00001F03FF901F0E7F9022000F076F901F0A3
:1001F000B5F80B4801F035F901F0DDF9022000F007
:100200006CF901F0ABF801F0E1F901F0D4F902204A
:1002100000F063F900BFFEE7DFE70000543D00088F
:10022000D44F0008704700BFFEE700BFFEE700BFE5
:10023000FEE700BFFEE77047704770477047000059
:100240000CB50020019000906B48006840F48030AD
:100250006949086000BF6848006800F400300090F9
:100260000198401C0190009818B90198B0F5A06F52
:10027000F1D16148006810F4003F02D001200090E5
:1002800001E0002000900098012842D15B480068FE
:1002900040F01000594908600846006820F003004B
:1002A00008600846006840F0020008605248406854
:1002B000514948600846406848600846406840F434
:1002C000806048600846406820F47C10486008461A
:1002D000406840F4E81048600846006840F08070CC
:1002E000086000BF4448006810F0007FFAD0424820
:1002F000406820F00300404948600846406840F0EC
:100300000200486000BF3C48406800F00C0008282C
:10031000F9D10CBD10B5FFF793FF10BD10B53648ED
:10032000006840F0010034490860084640683449DC
:1003300008403149486008460068324908402E4963
:1003400008600846006820F480200860084640687D
:1003500020F4FE0048604FF41F008860FFF7DAFFCA
:100360004FF000602849086010BD10B50021002042
:100370000022214B5B6803F00C0121B1042906D057
:10038000082928D107E0214B214C236027E01F4B8F
:100390001F4C236023E0184B5B6803F47010164B6E
:1003A0005B6803F48032022303EB904022B9194BBF
:1003B0004343174C23600DE00F4B5B6813F4003F81
:1003C00004D0144B4343124C236003E00F4B4343D0
:1003D0000F4C236003E00D4B0D4C236000BF00BFAA
:1003E000054B5B68C3F303130B4CE15C084B1B68C4
:1003F000CB40074C236010BD00100240002002409B
:100400000000FFF8FFFFF6FE08ED00E000127A00A2
:100410000000002000093D000400002010B56FF02E
:10042000040000F085F9334800683349B0FBF1F06F
:10043000324908700846007800EB4001C1EBC0105B
:100440004FF6FF7101EAC0002D49088010BD01463A
:100450002A4A12784A434FF0E0235A6100229A61F7
:100460001A46126942F001021A6100BF4FF0E02201
:10047000106910F0010F02D010F4803FF6D04FF059
:10048000E022126922F001024FF0E0231A610022FB
:100490009A61704701461A4A12884A434FF0E02396
:1004A0005A6100229A611A46126942F001021A61E9
:1004B00000BF4FF0E022106910F0010F02D010F4DD
:1004C000803FF6D04FF0E022126922F001024FF097
:1004D000E0231A6100229A61704730B50446002576
:1004E00005E04FF47A70FFF7D5FF681C85B2A5428E
:1004F000F7DB30BD0000002000127A00140000205D
:100500001600002010B54FF4A06000F0C1F810BD37
:10051000014600BF704700BF494A128812F0400FE1
:10052000FAD0C2B2464B1B1D1A80704710B586B078
:100530000446012144F2050000F02EFC4FF4007047
:10054000ADF8140003208DF8160018208DF8170060
:1005500005A93C4800F06AF94FF48060ADF814003A
:1005600004208DF8170005A9364800F05FF9252012
:100570008DF8000003208DF801008DF802000120A5
:100580008DF80300684600F088F801940020ADF86B
:100590000800ADF80A00ADF80C00ADF810000C2012
:1005A000ADF80E0001A9264800F0A1FC012240F29E
:1005B0002551234800F033FD0121214800F023FD9F
:1005C00006B010BD10B540F225511D4800F00CFEDC
:1005D00010B31B4800F088FDC4B21B48008810F41B
:1005E000004F2BD11848008810F4804F0CD00A2CF3
:1005F00003D000201449088020E01348008840F40C
:1006000000401149088019E00D2C06D10E480088E1
:1006100040F480400C49088010E00B480088C0F38B
:100620000D000A490C5408480088401C06490880FF
:1006300008460088C72801DD0020088010BD0000A2
:10064000003801400008014018000020340000205C
:100650000948804709480047FEE7FEE7FEE7FEE756
:10066000FEE7FEE7FEE7FEE7FEE7FEE70448054992
:10067000054A064B704700001D03000831010008C1
:10068000600100206007002060030020600300205C
:1006900031490143314A1160704770B50021002390
:1006A0000F22C4780CB32D4C246804F4E064C4F524
:1006B000E064210AC1F10403CA40447804FA03F15A
:1006C0008478144021430901254C0678A15504780B
:1006D00004F01F050124AC4005786D114FF0E026B1
:1006E00006EB8505C5F8004109E0047804F01F0514
:1006F0000124AC401B4D0678761145F8264070BDAC
:10070000194A0A400243154B1B1F1A60704739B142
:10071000124A121D12680243104B1B1D1A6006E09C
:100720000E4A121D126882430C4B1B1D1A60704743
:10073000042808D14FF0E021096941F004014FF08D
:10074000E022116107E04FF0E021096921F0040186
:100750004FF0E022116170470000FA050CED00E057
:1007600000E400E080E100E080FFFF1F10B50446D8
:10077000CA48844208D10121042000F027FB00214F
:10078000042000F023FB46E0C548844208D1012143
:10079000082000F01BFB0021082000F017FB3AE0C6
:1007A000C048844208D10121102000F00FFB002135
:1007B000102000F00BFB2EE0BB48844208D1012141
:1007C000202000F003FB0021202000F0FFFA22E0AF
:1007D000B648844208D10121402000F0F7FA0021F8
:1007E000402000F0F3FA16E0B148844208D101211C
:1007F000802000F0EBFA0021802000F0E7FA0AE008
:10080000AC48844207D10121801500F0DFFA0021B5
:10081000A01500F0DBFA10BD10B50121084600F06C
:10082000D5FA0021012000F0D1FA10BD2DE9F041E8
:10083000024600250026002000230024002791F80E
:1008400003C00CF00F0591F803C01CF0100F03D08B
:1008500091F802C04CEA050591F800C0BCF1000F08
:1008600031D0146800202BE04FF0010C0CFA00F39B
:10087000B1F800C00CEA03069E4220D183004FF07D
:100880000F0C0CFA03F7BC4305FA03FC4CEA040412
:1008900091F803C0BCF1280F06D14FF0010C0CFAFF
:1008A00000FCC2F814C00AE091F803C0BCF1480F84
:1008B00005D14FF0010C0CFA00FCC2F810C0401C2E
:1008C0000828D1D31460B1F800C0BCF1FF0F34DDAB
:1008D000546800202EE000F1080C4FF0010808FADF
:1008E0000CF3B1F800C00CEA03069E4221D183004C
:1008F0004FF00F0C0CFA03F7BC4305FA03FC4CEA6B
:10090000040491F803C0BCF1280F05D100F1080CD4
:1009100008FA0CF8C2F8148091F803C0BCF1480F33
:1009200007D100F1080C4FF0010808FA0CF8C2F8E2
:100930001080401C0828CED35460BDE8F0814FF6EB
:10094000FF710180022181700421C170704702464D
:10095000002093680B4201D0012000E00020704786
:100960000146886880B2704702460020D3680B4277
:1009700001D0012000E0002070470146C86880B225
:10098000704701617047416170470AB1016100E041
:1009900041617047C16070474FF480320A43826101
:1009A0008161826182698269704702460020424B00
:1009B00018684FF68073184040EA021008433E4B17
:1009C000186070473D49C8617047F0B50A4600237A
:1009D00000240021002500F00046B6F1004F02D1AE
:1009E000354EF16901E0344E7168C0F3034583B2BE
:1009F00000F44016B6F5401F08D121F070612E4E6C
:100A0000766826F070662C4F7E6012E000F4801647
:100A1000B6F5801F06D1032606FA05F4A14341F07E
:100A2000706106E0460D360103FA06F6B14341F067
:100A3000706122B1460D360103FA06F6314300F02B
:100A40000046B6F1004F02D11B4EF16101E01A4E93
:100A50007160F0BD30B500228B071C0F0F2303FA25
:100A600004F2154B08338C1053F824309343124C86
:100A700008348D1044F8253023468C1053F8243068
:100A80008C07240F00FA04F423430B4C08348D1018
:100A900044F8253030BD0A4908607047000801401D
:100AA000000C0140001001400014014000180140FA
:100AB000001C0140002001400000014000002042D5
:100AC000DC002042DD48006840F00100DB4908609E
:100AD00008464068DA490840D84948600846006836
:100AE000D8490840D54908600846006820F48020AD
:100AF00008600846406820F4FE0048604FF41F007C
:100B000088607047CD49096821F48031CB4A116073
:100B10001146096821F480211160B0F5803F03D0AF
:100B2000B0F5802F0ED106E0C449096841F4803148
:100B3000C24A116007E0C149096841F4A021BF4AD7
:100B4000116000E000BF00BF704710B501460022F1
:100B5000002300204A11012A02D1B84C236806E084
:100B6000022A02D1B54C236A01E0B44C636A01F059
:100B70001F02012494401C4201D0012000E000200B
:100B800010BD38B5002000900024002500BF3120A2
:100B9000FFF7DBFF05460098401C00900098B0F579
:100BA000A06F01D0002DF2D03120FFF7CEFF08B1A9
:100BB000012400E00024204638BD014600209F4A61
:100BC000106820F0F80040EAC100106070479E49AC
:100BD0000860704702460020984B586820F47C104B
:100BE00042EA01031843954B5860704796490866DE
:100BF000704701460020914A506820F003000843E6
:100C0000506070478D48406800F00C007047014606
:100C100000208A4A506820F0F00008435060704776
:100C200001460020854A506820F4E0600843506087
:100C3000704701460020814A506820F4605040EA25
:100C4000C1005060704729B17C4A527A02437B4B05
:100C50005A7204E0794A527A8243784B5A7270474A
:100C60007A490860704701460020744A506820F4B1
:100C700040400843506070470021754A11706F4A28
:100C800082F82010012802D0042808D103E00121B5
:100C90006F4A117004E005216D4A117000E000BF39
:100CA00000BF70476B49086070476449096A014397
:100CB000624A11627047674944390860704730B52D
:100CC00000210022002400235C4D6D6805F00C011A
:100CD00021B1042905D0082923D105E05E4D056026
:100CE00022E05D4D05601FE0544D6D6805F4701203
:100CF000524D6D6805F48034022505EB92421CB913
:100D0000564D554305600BE04C4D6D6815F4003FA2
:100D100003D0524D5543056002E04F4D55430560E9
:100D200002E04D4D056000BF00BF444D6D6805F009
:100D3000F00109094A4D6B5C0568DD4045603F4D97
:100D40006D6805F4E061090A454D6B5C4568DD405E
:100D500085603A4D6D6805F46051C90A404D6B5C81
:100D60004568DD40C560354D6D6805F44041890B2F
:100D70003C4D6B5CC568B5FBF3F5056130BD29B131
:100D80002E4A526902432D4B5A6104E02B4A5269A4
:100D900082432A4B5A61704729B1284A926902431B
:100DA000264B9A6104E0254A92698243234B9A615B
:100DB000704729B1214AD2690243204BDA6104E02D
:100DC0001E4AD26982431D4BDA61704729B11B4A22
:100DD000D2680243194BDA6004E0184AD2688243B1
:100DE000164BDA60704729B1144A12690243134B5B
:100DF0001A6104E0114A12698243104B1A6170476C
:100E000014494039086070470F49C86470470B495E
:100E1000C87170470948406A40F0807007494862CD
:100E2000704701460020054A92680A4201D001201D
:100E300000E00020704701498872704700100240AE
:100E40000000FFF8FFFFF6FE00004242D8004242D9
:100E5000201002408004424200127A0000093D0046
:100E6000200000203000002010B50446FB488442DA
:100E700009D101218803FFF7A9FF00214FF4804029
:100E8000FFF7A4FF32E0F648844209D1012148046B
:100E9000FFF7A9FF00214FF40030FFF7A4FF25E082
:100EA000F048844209D101218804FFF79CFF00210A
:100EB0004FF48020FFF797FF18E0EB48844209D1F8
:100EC0000121C804FFF78FFF00214FF40020FFF736
:100ED0008AFF0BE0E548844208D101210805FFF7AD
:100EE00082FF00214FF48010FFF77DFF10BD2DE938
:100EF000F04786B005460E460024A24600BFA14634
:100F00000027B08900B100BF2F462C8A4CF6FF7035
:100F10000440F08804432C82AC894EF6F310044060
:100F2000B08831890843718908430443AC81AC8A95
:100F30004FF6FF400440B0890443AC8201A8FFF79C
:100F4000BEFEC648874202D1DDF810A001E0DDF800
:100F50000CA0A88910F4004F08D00AEBCA0000EBDF
:100F60000A1031684900B0FBF1F807E00AEBCA004B
:100F700000EB0A1031688900B0FBF1F86420B8FB7F
:100F8000F0F004012009642101FB1089A88910F404
:100F9000004F08D0322000EBC900B0FBF1F000F0A8
:100FA0000700044308E0322000EB09106421B0FB85
:100FB000F1F000F00F0004432C8106B0BDE8F0878B
:100FC0004FF41651016000218180C18001810C2104
:100FD000418100218181704710B502460020108AAE
:100FE0004FF2FF0318400B884C8823438C8823431F
:100FF000CC8823431843108210BD0021018041801A
:101000008180C180704721B1828942F4005282817F
:1010100004E082894DF6FF731A4082817047F0B573
:1010200003460024002600250020A1F510676A3F32
:1010300000D100BF1846C1F3421401F01F0601277A
:1010400007FA06F5012C01D10C3004E0022C01D185
:10105000103000E014301AB107682F43076002E037
:101060000768AF430760F0BD1AB1838A0B438382E0
:1010700002E0838A8B4383827047028A4FF6F073C3
:101080001A400282028A0A430282704782894FF222
:10109000FF731A40828182890A438281704721B19D
:1010A000828942F00202828104E082894FF6FD7358
:1010B0001A4082817047028A4FF6DF731A4002821B
:1010C000028A0A430282704721B1028A42F48042B6
:1010D000028204E0028A4BF6FF731A4002827047D4
:1010E000C1F308028280704701468888C0F3080077
:1010F0007047818941F0010181817047028BD2B232
:101100000283028B42EA012202837047028B02F4BF
:101110007F420283028B0A430283704721B1828A95
:1011200042F02002828204E0828A4FF6DF731A4086
:101130008282704721B1828A42F01002828204E0EA
:10114000828A4FF6EF731A408282704721B1828AF9
:1011500042F00802828204E0828A4FF6F7731A4056
:101160008282704721B1828942F40042828103E089
:101170008289C2F30E028281704721B1828A42F4D1
:101180000062828204E0828A4FF2FF731A408282F8
:101190007047828A4FF6FB731A408282828A0A4322
:1011A0008282704721B1828A42F00202828204E088
:1011B000828A4FF6FD731A408282704702460020F1
:1011C000B1F5007F00D100BF13880B4201D0012090
:1011D00000E00020704701F40072B2F5007F00D1FA
:1011E00000BFCA430280704770B502460024002346
:1011F00000250020A1F510666A3E00D100BFC1F3B2
:10120000421501F01F03012606FA03F3012D02D156
:101210009689334006E0022D02D1168A334001E060
:10122000968A33400C12012606FA04F416883440DC
:1012300013B10CB1012000E0002070BD10B50022F8
:101240000023A1F510646A3C00D100BF0A120124FA
:101250009440A3B2DC43048010BD0000003801407C
:101260000044004000480040004C00400050004056
:1012700006E042F6E06100BF0A00A1F10101FBD1E6
:101280000200A0F10100F4D1704770B50446254674
:101290004FF40071FE48FFF776FB00261BE015F0C7
:1012A000800F05D04FF48061F948FFF76AFB04E036
:1012B0004FF48061F648FFF766FB4FF40071F44885
:1012C000FFF75FFB4FF40071F148FFF75CFB680626
:1012D000050E701CC6B2082EE1DB70BD10B506E02D
:1012E0004FF40051EB48FFF732FB00B900E0F7E79D
:1012F00000BF10BD10B504464FF48071E448FFF7FD
:1013000040FB4FF48071E248FFF73DFB4FF4004192
:10131000E048FFF738FB2046FFF7B7FF4FF4807136
:10132000DB48FFF72EFB10BD10B504464FF480716B
:10133000D748FFF726FB4FF48071D548FFF723FB12
:101340004FF40041D348FFF71CFB2046FFF79DFFF9
:101350004FF48071CE48FFF714FB10BD10B54FF469
:101360008041CC48FFF70FFB0A20FFF781FF4FF4C5
:101370008041C848FFF705FB0A20FFF779FFFFF718
:10138000ADFF1220FFF7B6FFFFF7A8FF0120FFF720
:10139000B1FF2720FFF7C8FF0120FFF7C5FF00209E
:1013A000FFF7C2FF1120FFF7A5FF0120FFF7BCFFE9
:1013B0004420FFF79FFF0020FFF7B6FF0F20FFF745
:1013C000B3FF4520FFF796FF2720FFF7ADFF012071
:1013D000FFF7AAFF0020FFF7A7FF0020FFF7A4FFF9
:1013E0003C20FFF787FF0520FFF79EFF2120FFF736
:1013F00081FF0020FFF798FF8020FFF795FF18205E
:10140000FFF778FF8020FFF78FFF4E20FFF772FF76
:101410000020FFF789FF4F20FFF76CFF2720FFF721
:1014200083FF0120FFF780FFFFF758FF10BD10B5C5
:101430002220FFF75FFFF720FFF776FF2020FFF75E
:1014400059FFFFF74BFF10BD10B52220FFF752FFE9
:10145000FF20FFF769FF2020FFF74CFFFFF73EFF5B
:1014600010BD70B504462420FFF744FF002504E0BA
:101470002078FFF759FF641C6D1CB5F5945FF7D316
:10148000FFF7D5FF70BD70B5044626462420FFF750
:1014900031FF002504E02078FFF746FF641C6D1C37
:1014A000B5F5945FF7D334462620FFF723FF0025D8
:1014B00004E02078FFF738FF641C6D1CB5F5945FDD
:1014C000F7D3FFF7B4FF70BD2DE9FE4F04460F467A
:1014D00090469946DDF830B0E40804EBDB00401E8E
:1014E0000290002001903D46FF2F02D9280A01906A
:1014F000EDB20020009007EB0900461EFF2E02D936
:10150000300A0090F6B24FF480416248FFF73BFA90
:101510000A20FFF7ADFE4FF480415E48FFF731FA35
:101520000A20FFF7A5FE3C20FFF7E4FE8020FFF72E
:10153000FBFE4420FFF7DEFEE0B2FFF7F5FE029966
:10154000C8B2FFF7F1FE4520FFF7D4FEE8B2FFF77F
:10155000EBFE0199C8B2FFF7E7FEF0B2FFF7E4FE39
:101560000099C8B2FFF7E0FE4E20FFF7C3FEE0B2DD
:10157000FFF7DAFE4F20FFF7BDFEE8B2FFF7D4FE1B
:101580000199C8B2FFF7D0FE2420FFF7B3FE4FF059
:10159000000A07E098F80000FFF7C6FE08F101080E
:1015A0000AF1010A09FB0BF0BAEBD00FF2D3FFF7F7
:1015B0004BFFBDE8FE8F10B51020FFF79BFE01200A
:1015C000FFF7B2FE6420FFF753FE10BD70B5242074
:1015D000FFF790FE002408E0002503E0FF20FFF75E
:1015E000A3FE6D1C192DF9D3641CFA2CF4D3FFF75C
:1015F0001EFF70BD2DE9FF4F81B08346DDE91978EC
:101600004FEADB0B0BEBD800401E00904FF00009B7
:101610000298451E0298FF2802D94FEA1529EDB21B
:101620004FF0000A02983844441EFF2C02D94FEABA
:10163000142AE4B24FF480411648FFF7A4F90A20B7
:10164000FFF716FE4FF480411248FFF79AF90A207F
:10165000FFF70EFE3C20FFF74DFE8020FFF764FEF3
:101660004420FFF747FE0BF0FF00FFF75DFE0099F7
:10167000C8B2FFF759FE4520FFF73CFEE8B2FFF77E
:1016800053FE09F0FF00FFF74FFEE0B204E0000058
:101690000014014000180140FFF746FE0AF0FF0069
:1016A000FFF742FE4E20FFF725FE0BF0FF00FFF78D
:1016B0003BFE4F20FFF71EFEE8B2FFF735FE09F0B4
:1016C000FF00FFF731FE2420FFF714FE002607E09D
:1016D00003990878FFF728FE0398401C0390761CB6
:1016E00007FB08F0B6EBD00FF2D30498C0080490C3
:1016F000049800EBD800401E00904FF000090E98AF
:10170000451E0E98FF2802D94FEA1529EDB24FF079
:10171000000A0E983844441EFF2C02D94FEA142ABE
:10172000E4B24420FFF7E6FD0499C8B2FFF7FCFDE0
:101730000099C8B2FFF7F8FD4520FFF7DBFDE8B2DE
:10174000FFF7F2FD09F0FF00FFF7EEFDE0B2FFF753
:10175000EBFD0AF0FF00FFF7E7FD4E20FFF7CAFDA3
:101760000499C8B2FFF7E0FD4F20FFF7C3FDE8B2D0
:10177000FFF7DAFD09F0FF00FFF7D6FD2420FFF7A1
:10178000B9FD002607E00F990878FFF7CDFD0F9807
:10179000401C0F90761C07FB08F0B6EBD00FF2D37D
:1017A0001098C0081090109800EBD800401E0090D0
:1017B0004FF000091198451E1198FF2802D94FEAF1
:1017C0001529EDB24FF0000A11983844441EFF2C41
:1017D00002D94FEA142AE4B24420FFF78BFD109996
:1017E000C8B2FFF7A1FD0099C8B2FFF79DFD4520E3
:1017F000FFF780FDE8B2FFF797FD09F0FF00FFF764
:1018000093FDE0B2FFF790FD0AF0FF00FFF78CFDBB
:101810004E20FFF76FFD1099C8B2FFF785FD4F20EE
:10182000FFF768FDE8B2FFF77FFD09F0FF00FFF763
:101830007BFD2420FFF75EFD002607E01299087863
:10184000FFF772FD1298401C1290761C07FB08F0FF
:10185000B6EBD00FF2D31398C0081390139800EB97
:10186000D800401E00904FF000091498451E1498AF
:10187000FF2802D94FEA1529EDB24FF0000A14985B
:101880003844441EFF2C02D94FEA142AE4B2442003
:10189000FFF730FD1399C8B2FFF746FD0099C8B2B3
:1018A000FFF742FD4520FFF725FDE8B2FFF73CFDBD
:1018B00009F0FF00FFF738FDE0B2FFF735FD0AF051
:1018C000FF00FFF731FD4E20FFF714FD1399C8B25A
:1018D000FFF72AFD4F20FFF70DFDE8B2FFF724FDCB
:1018E00009F0FF00FFF720FD2420FFF703FD00268D
:1018F00007E015990878FFF717FD1598401C15901B
:10190000761C07FB08F0B6EBD00FF2D31698C00890
:101910001690169800EBD800401E00904FF000097A
:101920001798451E1798FF2802D94FEA1529EDB2DE
:101930004FF0000A17983844441EFF2C02D94FEA92
:10194000142AE4B24420FFF7D5FC1699C8B2FFF779
:10195000EBFC0099C8B2FFF7E7FC4520FFF7CAFC93
:10196000E8B2FFF7E1FC09F0FF00FFF7DDFCE0B2B1
:10197000FFF7DAFC0AF0FF00FFF7D6FC4E20FFF776
:10198000B9FC1699C8B2FFF7CFFC4F20FFF7B2FCA5
:10199000E8B2FFF7C9FC09F0FF00FFF7C5FC2420FF
:1019A000FFF7A8FC002607E018990878FFF7BCFCB1
:1019B0001898401C1890761C07FB08F0B6EBD00F67
:1019C000F2D3FFF741FD05B0BDE8F08F08B5012166
:1019D0006020FFF7E1F94FF4E060ADF8000010205F
:1019E0008DF8030002208DF8020069463D48FEF79D
:1019F0001DFF4FF44040ADF8000010208DF80300AB
:101A000002208DF8020069463748FEF70FFF4FF4B9
:101A10000050ADF8000048208DF8030002208DF83A
:101A2000020069463048FEF701FF4FF48050ADF8E0
:101A3000000010208DF8030002208DF80200694696
:101A40002948FEF7F3FE08BD70B5044600251BE0EB
:101A50004FF400712348FEF796FF14F0800F05D075
:101A60004FF480611F48FEF78CFF04E04FF4806163
:101A70001C48FEF788FF6006040E4FF400711948F9
:101A8000FEF77FFF681CC5B2082DE1DB70BD10B505
:101A900004464FF480711348FEF775FF4FF4004180
:101AA0001148FEF770FF2046FFF7CEFF4FF480711C
:101AB0000C48FEF766FF10BD10B504464FF4807168
:101AC0000848FEF760FF4FF400410748FEF759FF52
:101AD0002046FFF7B9FF4FF480710248FEF751FF2F
:101AE00010BD00000014014000180140704770470D
:101AF000704770477047754600F028F8AE460500FD
:101B00006946534620F00700854618B020B5FEF719
:101B1000ADFDBDE820404FF000064FF000074FF04C
:101B200000084FF0000B21F00701AC46ACE8C009FB
:101B3000ACE8C009ACE8C009ACE8C0098D46704704
:101B40000446AFF300802046FEF739FB004870479B
:101B5000FC000020FFFFFFFFFFFFFFFFFFFFFFFF75
:101B6000FFFFFFFFFFFFFFFFFFFFFFFFFFFFFFFF85
:101B7000FFFFFFFFFFFFFFFFFFFFFFFFFFFFFFFF75
:101B8000FFDFFFF7FFDFFFF7FFDFFFF7FFDFFFE715
:101B9000FF800007FF000007FF000007FFFFFFE7CF
:101BA000FFFFFFF7FFFFFFF7FFFFFFF7FFFFFFFF5D
:101BB000FFFFFFFFFFFFFFFFFFFFFFFFFFFFFFFF35
:101BC000FFFFFFFFFFFFFFFFFFFFFFFFFFFFFFFF25
:101BD000FFFFFFFFFFFFFFFFFFFFFFFFFFFFFFFF15
:101BE000FFFFFFFFFFFFFFFFFFFFFFFFFFFFFFFF05
:101BF000FFFFFFFFFFFFFFFFFFFFFFFFFFE1FFC74B
:101C0000FFC1FF87FF99FF27FF3FFE67FF7FFCE7CC
:101C1000FF7FF9E7FF7FF3E7FF7FE7E7FF3FCFE7CE
:101C2000FF1F1FE7FF803FC7FF807E07FFE0FE1F0B
:101C3000FFFFFFFFFFFFFFFFFFFFFFFFFFFFFFFFB4
:101C4000FFFFFFFFFFFFFFFFFFFFFFFFFFFFFFFFA4
:101C5000FFFFFFFFFFFFFFFFFFFFFFFFFFFFFFFF94
:101C6000FFFFFFFFFFFFFFFFFFFFFFFFFFFFFFFF84
:101C7000FFFFFFFFFFFFFFFFFFFFFFFFFFC3FE1F91
:101C8000FF83FE0FFF83FE0FFF3FFFE7FF7FBFF7DE
:101C9000FF7FBFF7FF7FBFF7FF3F1FF7FF1E1FE765
:101CA000FF804FCFFF80C00FFFE1E01FFFFFF87FF5
:101CB000FFFFFFFFFFFFFFFFFFFFFFFFFFFFFFFF34
:101CC000FFFFFFFFFFFFFFFFFFFFFFFFFFFFFFFF24
:101CD000FFFFFFFFFFFFFFFFFFFFFFFFFFFFFFFF14
:101CE000FFFFFFFFFFFFFFFFFFFFFFFFFFFFFFFF04
:101CF000FFFFFFFFFFFFFFFFFFFFFDFFFFFFF1FF04
:101D0000FFFFE1FFFFFF8DFFFFFE1DFFFFFC7DFBDF
:101D1000FFF0FDFBFFE3FDFBFF800003FF0000037E
:101D2000FF000003FF000003FFFFFDFBFFFFFDFBC3
:101D3000FFFFFDFBFFFFFFFFFFFFFFFFFFFFFFFFB9
:101D4000FFFFFFFFFFFFFFFFFFFFFFFFFFFFFFFFA3
:101D5000FFFFFFFFFFFFFFFFFFFFFFFFFFFFFFFF93
:101D6000FFFFFFFFFFFFFFFFFFFFFFFFFFFFFFFF83
:101D7000FFFFFFFFFFFFFFFFFFFFFFFFFFFFFE1F54
:101D8000FFF81E0FFF001E67FF073FF7FF3E7FF7BC
:101D9000FF3EFFF7FF3EFFF7FF3EFFF7FF3E7FE707
:101DA000FF3E3F8FFF3F000FFF3F801FFF3FE07F61
:101DB000FFFFFFFFFFFFFFFFFFFFFFFFFFFFFFFF33
:101DC000FFFFFFFFFFFFFFFFFFFFFFFFFFFFFFFF23
:101DD000FFFFFFFFFFFFFFFFFFFFFFFFFFFFFFFF13
:101DE000FFFFFFFFFFFFFFFFFFFFFFFFFFFFFFFF03
:101DF000FFFFFFFFFFFFFFFFFFFFFFFFFFFE00FFF3
:101E0000FFF0003FFFE0001FFFC38F0FFF9F9FC742
:101E1000FF3F3FE7FF3F7FF7FF7F7FF7FF7F7FF7C2
:101E2000FF7F3FE7FF0F1FCFFF8F800FFFCFC01F48
:101E3000FFFFE07FFFFFFFFFFFFFFFFFFFFFFFFF51
:101E4000FFFFFFFFFFFFFFFFFFFFFFFFFFFFFFFFA2
:101E5000FFFFFFFFFFFFFFFFFFFFFFFFFFFFFFFF92
:101E6000FFFFFFFFFFFFFFFFFFFFFFFFFFFFFFFF82
:101E7000FFFFFFFFFFFFFFFFFFFFFFFFFFC3FFFFAE
:101E8000FF03FFFFFF0FFFFFFF1FFFFFFF3FFE07E7
:101E9000FF3FF007FF3F8007FF3E0FFFFF387FFF48
:101EA000FF21FFFFFF07FFFFFF1FFFFFFF3FFFFFB8
:101EB000FFFFFFFFFFFFFFFFFFFFFFFFFFFFFFFF32
:101EC000FFFFFFFFFFFFFFFFFFFFFFFFFFFFFFFF22
:101ED000FFFFFFFFFFFFFFFFFFFFFFFFFFFFFFFF12
:101EE000FFFFFFFFFFFFFFFFFFFFFFFFFFFFFFFF02
:101EF000FFFFFFFFFFFFFFFFFFFFF83FFFE1F01FC6
:101F0000FFC0E00FFF8047CFFF1C0FE7FF3E1FF72A
:101F1000FF7F1FF7FF7F9FF7FF7F8FF7FF3F87E769
:101F2000FF1E03CFFF80600FFFC0F01FFFE1F83FEF
:101F3000FFFFFFFFFFFFFFFFFFFFFFFFFFFFFFFFB1
:101F4000FFFFFFFFFFFFFFFFFFFFFFFFFFFFFFFFA1
:101F5000FFFFFFFFFFFFFFFFFFFFFFFFFFFFFFFF91
:101F6000FFFFFFFFFFFFFFFFFFFFFFFFFFFFFFFF81
:101F7000FFFFFFFFFFFFFFFFFFF03FFFFFC01F8FCF
:101F8000FF800F8FFF8FC787FF3FE7F7FF7FF7F7D0
:101F9000FF7FF7F7FF7FF7E7FF7FE7C7FF3FCF8FB1
:101FA000FF8F8C1FFFC0003FFFE0007FFFF803FFA3
:101FB000FFFFFFFFFFFFFFFFFFFFFFFFFFFFFFFF31
:101FC000FFFFFFFFFFFFFFFFFFFFFFFFFFFFFFFF21
:101FD000FFFFFFFFFFFFFFFFFFFFFFFFFFFFFFFF11
:101FE000FFFFFFFFFFFFFFE003FFFFFFFFFFFC001E
:101FF000001FFFFFFFFFE0000003FFFFFFFF800067
:102000000000FFFFFFFE000000003FFFFFFC00009C
:1020100000001FFFFFF8000000000FFFFFF003FFAC
:10202000FFE007FFFFE03FFFFFFE03FFFFE0FFFFD2
:10203000FFFF83FFFFC1FFFFFFFFC1FFFFC7FFFFE0
:10204000FFFFF1FFFFC7FFFFFFFFF1FFFFCFFFFF24
:10205000FFFFF9FFFFCFFFFFFFFFF9FFFFC7FFFF04
:10206000FFFFF1FFFFC7FFFFFFFFF1FFFFC3FFFF10
:10207000FFFFE1FFFFE0FFFFFFFF83FFFFE03FFF08
:10208000FFFE03FFFFF003FFFFC007FFFFF80000A4
:1020900000000FFFFFFC000000001FFFFFFE00001C
:1020A00000003FFFFFFF80000000FFFFFFFFE00098
:1020B0000003FFFFFFFFFE00003FFFFFFFFFFFFFEA
:1020C000FFFFFFFFFFFFFFFFFFFFFFFFFFFFFFFF20
:1020D000FFFFFFFFFFFFFFFFFFFFFFFFFFFFFFFF10
:1020E000FFFFFFFFFFFFFFFFFFFFFFFFFFFFFFFF00
:1020F000FFFFFFFFFFFFFFFFFFFFFFFFFFFFFFFFF0
:10210000FFFFFFFFFFFCFFFFFFFFF3FFFFFCFFFFF1
:10211000FFFFF3FFFFFCFFFFFFFFF3FFFFFCFFFFED
:10212000FFFFF3FFFFFCFFFFFFFFF3FFFFFCFFFFDD
:10213000FFFFF3FFFFF8FFFFFFFFE3FFFFF80000E3
:10214000000003FFFFF00000000003FFFFF00000AD
:10215000000003FFFFC00000000003FFFFC00000FD
:10216000000003FFFFC00000000003FFFFFFFFFFB0
:10217000FFFFC3FFFFFFFFFFFFFFE3FFFFFFFFFFC7
:10218000FFFFF3FFFFFFFFFFFFFFF3FFFFFFFFFF77
:10219000FFFFF3FFFFFFFFFFFFFFF3FFFFFFFFFF67
:1021A000FFFFF3FFFFFFFFFFFFFFFFFFFFFFFFFF4B
:1021B000FFFFFFFFFFFFFFFFFFFFFFFFFFFFFFFF2F
:1021C000FFFFFFFFFFFFFFFFFFFFFFFFFFFFFFFF1F
:1021D000FFFFFFFFFFFFFFFFFFFFFFFFFFFFFFFF0F
:1021E000FFFFFFFFFFFFFFFFFFFFE3FFFFFFC1FF59
:1021F000FFFF83FFFFFF00FFFFFE03FFFFFC007FE9
:10220000FFFC03FFFFF8007FFFF803FFFFF0007FF4
:10221000FFF043FFFFF0007FFFE1C3FFFFE1F07F2E
:10222000FF83C3FFFFE3FFFFFF07C3FFFFE7FFFFDE
:10223000FE0FC3FFFFC7FFFFFC1FC3FFFFCFFFFF62
:10224000F83FC3FFFFCFFFFFF07FC3FFFFCFFFFFCC
:10225000E0FFC3FFFFCFFFFFC1FFC3FFFFCFFFFFC3
:1022600083FFC3FFFFC7FFFF07FFC3FFFFC7FFFCDD
:102270000FFFC3FFFFC3FFF01FFFC3FFFFE0FFC05F
:102280003FFFC3FFFFE000007FFF83FFFFF0000080
:10229000FFFF83FFFFF00001FFFE03FFFFF80007D1
:1022A000FFF003FFFFFC000FFFE003FFFFFF007FD5
:1022B000FFE00FFFFFFFFFFFFFE7FFFFFFFFFFFF55
:1022C000FFFFFFFFFFFFFFFFFFFFFFFFFFFFFFFF1E
:1022D000FFFFFFFFFFFFFFFFFFFFFFFFFFFFFFFF0E
:1022E000FFFFFFFFFFFFFFFFFFFFFFFFFFFFFFFFFE
:1022F000FFF87FFFFFFE07FFFFF01FFFFFFC03FF5C
:10230000FFE00FFFFFF803FFFFE007FFFFF003FF11
:10231000FFE007FFFFE003FFFFE003FFFFE3C3FF72
:10232000FFF0E3FFFFE7FFFFFFFFF1FFFFC7FFFC49
:10233000FFFFF1FFFFCFFFFCFFFFF9FFFFCFFFFC27
:10234000FFFFF9FFFFCFFFFCFFFFF9FFFFCFFFFC0F
:10235000FFFFF9FFFFCFFFF87FFFF9FFFFC7FFF88F
:102360007FFFF1FFFFC3FFF07FFFF1FFFFC1FFE23F
:102370003FFFE1FFFFE07F821FFFC3FFFFE000039D
:102380000FFF83FFFFF0000701FC07FFFFF8000FBE
:10239000800007FFFFFC001F80000FFFFFFE003FD3
:1023A000C0001FFFFFFF80FFF0003FFFFFFFFFFFA8
:1023B000F800FFFFFFFFFFFFFF07FFFFFFFFFFFF2B
:1023C000FFFFFFFFFFFFFFFFFFFFFFFFFFFFFFFF1D
:1023D000FFFFFFFFFFFFFFFFFFFFFFFFFFFFFFFF0D
:1023E000FF7FFFFFFFFFFFFFFC7FFFFFFFFFFFFF00
:1023F000F87FFFFFFFFFFFFFE07FFFFFFFFFFFFF13
:10240000807FFFFFFFFFFFFF027FFFFFFFFFFFFC5B
:102410000E7FFFFFFFFFFFF83E7FFFFFFFFFFFE0A4
:102420007E7FFFFFFFFFFF81FE7FFFFFFFFFFF03B8
:10243000FE7FFFFFFFFFFC0FFE7FF3FFFFFFF83F74
:10244000FE7FF3FFFFFFE07FFE7FF3FFFFFFC1FF93
:10245000FE7FF3FFFFFF03FFFE7FF3FFFFFC0FFF95
:10246000FE7FF3FFFFF80000000003FFFFE0000025
:10247000000003FFFFE00000000003FFFFE000009A
:10248000000003FFFFE00000000003FFFFE000008A
:10249000000003FFFFFFFFFFFE7FF3FFFFFFFFFFD3
:1024A000FE7FF3FFFFFFFFFFFE7FF3FFFFFFFFFF56
:1024B000FE7FF3FFFFFFFFFFFE7FF3FFFFFFFFFF46
:1024C000FE7FF3FFFFFFFFFFFE7FFFFFFFFFFFFF2A
:1024D000FFFFFFFFFFFFFFFFFFFFFFFFFFFFFFFF0C
:1024E000FFFFFFFFFFFFFFFFFFFFFFFFFFFFFFFFFC
:1024F000FFF07FFFFFFFFFFFFFE03FFFFFFFF00068
:102500001FC01FFFFFE000001FC00FFFFFE0000023
:102510001FC007FFFFE0000C1FC003FFFFE1FFF833
:102520007FE1E3FFFFE1FFF0FFFFF3FFFFE1FFF1DA
:10253000FFFFF1FFFFE1FFF1FFFFF1FFFFE1FFE32D
:10254000FFFFF9FFFFE1FFE3FFFFF9FFFFE1FFE31B
:10255000FFFFF9FFFFE1FFE3FFFFF9FFFFE1FFE30B
:10256000FFFFF9FFFFE1FFE1FFFFF1FFFFE1FFE107
:10257000FFFFE1FFFFE1FFE0FFFFC3FFFFE1FFF02F
:102580003FFF83FFFFE1FFF00FFC03FFFFE1FFF8D8
:10259000000007FFFFE1FFF800000FFFFFE1FFFC75
:1025A00000001FFFFFE1FFFF00003FFFFFE3FFFF11
:1025B0008000FFFFFFFFFFFFF80FFFFFFFFFFFFFA0
:1025C000FFFFFFFFFFFFFFFFFFFFFFFFFFFFFFFF1B
:1025D000FFFFFFFFFFFFFFFFFFFFFFFFFFFFFFFF0B
:1025E000FFFFFFFFFFFFFFF801FFFFFFFFFFFE0000
:1025F0000007FFFFFFFFF0000001FFFFFFFFC0002B
:1026000000007FFFFFFF000000001FFFFFFE000033
:1026100000000FFFFFFC0000000007FFFFF807F8B5
:102620001FF807FFFFF03FF07FFF03FFFFF0FFE021
:10263000FFFF83FFFFE1FFE1FFFFE1FFFFE3FFE3B8
:10264000FFFFF1FFFFC7FFC3FFFFF1FFFFC7FFC79A
:10265000FFFFF9FFFFCFFFC7FFFFF9FFFFCFFFC766
:10266000FFFFF9FFFFCFFFC7FFFFF9FFFFCFFFC35A
:10267000FFFFF1FFFFC7FFC1FFFFF1FFFFC01FC05A
:10268000FFFFE3FFFFC01FE07FFF83FFFFE01FE0CE
:102690000FF807FFFFF01FF000000FFFFFF01FF023
:1026A00000000FFFFFFC3FFC00003FFFFFFFFFFEAD
:1026B00000007FFFFFFFFFFFC001FFFFFFFFFFFFE5
:1026C000FFFFFFFFFFFFFFFFFFFFFFFFFFFFFFFF1A
:1026D000FFFFFFFFFFFFFFFFFFFFFFFFFFFFFFFF0A
:1026E000FFFFFFFFFFFFFFFFFFFFFFFFFFFFF3FF06
:1026F000FFFFFFFFFFFC03FFFFFFFFFFFFE003FF04
:10270000FFFFFFFFFFE007FFFFFFFFFFFFE03FFFCF
:10271000FFFFFFFFFFE07FFFFFFFFFFFFFE0FFFF87
:10272000FFFFFFFFFFE1FFFFFFFFFFFFFFE1FFFFF5
:10273000FFE003FFFFE1FFFFFE0001FFFFE1FFFFFE
:10274000F00001FFFFE1FFFFC00001FFFFE1FFFF1D
:10275000000001FFFFE1FFFC000001FFFFE1FFE0DF
:10276000000003FFFFE1FF800FFFFFFFFFE1FE001E
:102770007FFFFFFFFFE1FC03FFFFFFFFFFE1F01F13
:10278000FFFFFFFFFFE1C07FFFFFFFFFFFE101FF52
:10279000FFFFFFFFFFE007FFFFFFFFFFFFE01FFF5F
:1027A000FFFFFFFFFFE07FFFFFFFFFFFFFE1FFFFF6
:1027B000FFFFFFFFFFE3FFFFFFFFFFFFFFFFFFFF45
:1027C000FFFFFFFFFFFFFFFFFFFFFFFFFFFFFFFF19
:1027D000FFFFFFFFFFFFFFFFFFFFFFFFFFFFFFFF09
:1027E000FFFFFFFFFFFFFFFFFF01FFFFFFFF80FF76
:1027F000F8007FFFFFFE003FF0003FFFFFFC001FDF
:10280000E0001FFFFFF8000FC0000FFFFFF0000700
:1028100080FE07FFFFE07C0307FF83FFFFE1FF016E
:102820000FFFC3FFFFE3FF803FFFE3FFFFC7FFC0D2
:102830007FFFF1FFFFC7FFE07FFFF1FFFFCFFFE06A
:102840007FFFF9FFFFCFFFF07FFFF9FFFFCFFFF81A
:102850003FFFF9FFFFCFFFF83FFFF9FFFFCFFFF882
:102860001FFFF9FFFFC7FFFC0FFFF1FFFFC7FFF8D6
:1028700007FFF1FFFFC3FFF007FFE3FFFFE1FFE109
:1028800001FFE3FFFFE0FF8300FF83FFFFF000078E
:10289000803E07FFFFF00007C00007FFFFF8000FB2
:1028A000E0000FFFFFFC003FF0001FFFFFFF007F75
:1028B000FC007FFFFFFFFFFFFF01FFFFFFFFFFFFA8
:1028C000FFFFFFFFFFFFFFFFFFFFFFFFFFFFFFFF18
:1028D000FFFFFFFFFFFFFFFFFFFFFFFFFFFFFFFF08
:1028E000FFFFFFFFFFFFF003FFFFFFFFFFFF800081
:1028F0007FFFFFFFFFFE00003FFF1FFFFFFC000008
:102900001FFC0FFFFFF800000FFC07FFFFF00000A7
:1029100007FC03FFFFE03FF807FC03FFFFE0FFFFBA
:1029200003FC01FFFFE3FFFF83FE01FFFFC7FFFF83
:10293000C3FFF1FFFFC7FFFFC3FFF9FFFFCFFFFF9B
:10294000E3FFF9FFFFCFFFFFE3FFF9FFFFCFFFFF3B
:10295000E3FFF1FFFFCFFFFFC3FFF1FFFFCFFFFF5B
:10296000C3FFE3FFFFC7FFFF87FFC3FFFFC3FFFFF7
:1029700007FF03FFFFE1FFFE0FFC07FFFFE07FFC07
:102980001FE00FFFFFF00FF038001FFFFFF80000FF
:1029900000003FFFFFFC000000007FFFFFFE000083
:1029A0000001FFFFFFFF00000007FFFFFFFFE00047
:1029B000001FFFFFFFFFFC0001FFFFFFFFFFFFFF06
:1029C000FFFFFFFFFFFFFFFFFFFFFFFFFFFFFFFF17
:1029D000FFFFFFFFFFFFFFFFFFFFFFFFFFFFFFFF07
:1029E000FFFFFFFFFFFFFFFFFFFFFFFFFFFFFFFFF7
:1029F000FFFFFFFFFFFFFFFFFFFFFFFFFFFFFFFFE7
:102A0000FFFFFFFFFFFFFFFFFFFFFFFFFFFFFFFFD6
:102A1000FFFFFFFFFFFFFFFFFFFFFFFFFFFFFFFFC6
:102A2000FFFFFFFFFFFFFFFFFFFFFFFFFFFFFFC3F2
:102A3000FFFF87FFFFFFFF81FFFF03FFFFFFFF0097
:102A4000FFFE01FFFFFFFF00FFFE01FFFFFFFF0092
:102A5000FFFE01FFFFFFFF00FFFE01FFFFFFFF0082
:102A6000FFFE01FFFFFFFF81FFFF03FFFFFFFFC32B
:102A7000FFFF87FFFFFFFFFFFFFFFFFFFFFFFFFFDE
:102A8000FFFFFFFFFFFFFFFFFFFFFFFFFFFFFFFF56
:102A9000FFFFFFFFFFFFFFFFFFFFFFFFFFFFFFFF46
:102AA000FFFFFFFFFFFFFFFFFFFFFFFFFFFFFFFF36
:102AB000FFFFFFFFFFFFFFFFFFFFFFFFFFFFFFFF26
:102AC000FFFFFFFFFFFFFFFFFFFFFFFFFFFFFFFF16
:102AD000FFFFFFFFFFFFFFFFFFFFFFFFFFFFFFFF06
:102AE000FFFFFFFFFFFFFFFFFFFFFFFFFFFFFFFFF6
:102AF000FFFFFFFFFFFFFFFFFFFFFFFFFFFFFFFFE6
:102B0000FFFFFFFFFFFFFFFFFFFFFFFFFFFFFFFFD5
:102B1000FFFFFFFFFFFFFFFFFFFFFFFFFFFFFFFFC5
:102B2000FFFFFFFFFFFFFFFFFFFFFFFFFFFFFFFFB5
:102B3000FFFFFFFFFFFFFFFFFFFFFFFFFFFFFFFFA5
:102B4000FFFFFFFFFFFFFFFFFFFFFFFFFFFFFFFF95
:102B5000FFFFFFFFFFFFFFFFFFFFFFFFFFFFFFFF85
:102B6000FFFFFFFFFFFFFFFFFFFFFFFFFFFFFFFF75
:102B7000FFFFFFFFFFFFFFFFFFFFFFFFFFFFFFFF65
:102B8000FFFFFFFFFFFFFFFFFFFFFFFFFFFFFFFF55
:102B9000FFFFFFFFFFFFFFFFFFFFFFFFFFFFFFFF45
:102BA000FFFFFFFFFFFFFFFFFFFFFFFFFFFFFFFF35
:102BB000FFFFFFFFFFFFFFFFFFFFFFFFFFFFFFFF25
:102BC000FFFFFFFFFFFFFFFFFFFFFFFFFFFFFFFF15
:102BD000FFFFFFFFFFFFFFFFFFFFFFFFFFFFFFFF05
:102BE000FFFFFFFFFFFFFFFFFFFFFFFFFFFFFFFFF5
:102BF000FFFFFFFFFFFFFFFFFFFFFFFFFFFFFFFFE5
:102C0000FFFFFFFFFFFFFFFFFFFFFFFFFFFFFFFFD4
:102C1000FFFFFFFFFFFFFFFFFFFFFFFFFFFFFFFFC4
:102C2000FFFFFFFFFFFFFFFFFFFFFFFFFFFFFFFFB4
:102C3000FFFFFFFFFFFFFFFFFFFFFFFFFFFFFFFFA4
:102C4000FFFFFFFFFFFFFFFFFFFFFFFFFFFFFFFF94
:102C5000FFFFFFFFFFFFFFFFFFFFFFFFFFFFFFFF84
:102C6000FFFFFFFFFFFFFFFFFFFFFFFFFFFFFFFF74
:102C7000FFFFFFFFFFFFFFFFFFFFFFFFFFFFFFFF64
:102C8000FFFFFFFFFFFFFF3FFFFFFFFFFFFFFFFF14
:102C9000FFFFFFFFFFFFFF1FFFFFFFFFFFFFFFFF24
:102CA000FFFFFFFFFFFFFF9FFFFFFFFFFFFFFFFF94
:102CB000FFFFFFFFFFFFFF0FFFFFFFFFFFFFFFFF14
:102CC000FFFFFFFFFFFFFF0FFFFFFFFFFFFFFFFF04
:102CD000FFFFFFFFFFFFFF07FFFFFFFFFFFFFFFFFC
:102CE000FFFFFFFFFFDFFF07FFFFFFFFFFFFFFFF0C
:102CF000FFFFFFFFFFDFFE07FFFFFFFFFFFFFFFFFD
:102D0000FFFFFFFFFFC7FC07FFFFFFFFFFFFFFFF06
:102D1000FFFFFFFFFFC1F00FFFFFFFFFFFFFFFFF00
:102D2000FFFFFFFFFFE0000FFFFFFFFFFFFFFFFFC1
:102D3000FFFFFFFFFFE0000FFFFFFFFFFFFFFFFFB1
:102D4000FFFFFFFFFFF0000FFFFFFFFFFFFFFFFF91
:102D5000FFFFFFFFFFF8001FFFFFFFFFFFFFFFFF69
:102D6000FFFFFFFFFFF8007FFFFFFFFFFFFFFFFFF9
:102D7000FFFFFFFFFFFE00FFFFFFFFFFFFFFFFFF63
:102D8000FFFFFFFFFFFFC3FFFFFFFFFFFFFFFFFF8F
:102D9000FFFFFFFFFFFFFFFFFFFFFFFFFFFFFFFF43
:102DA000FFFFFFFFFFFFFFFFFFFFFFFFFFFFFFFF33
:102DB000FFFFFFFFFFFFFFFFFFFFFFFFFFFFFFFF23
:102DC000FFFFFFFFFFFFFFFFFFFFFFFFFFFFFFFF13
:102DD000FFFFFFFFFFFFFFFFFFFFFFFFFFFFFFFF03
:102DE000FFFFFFFFFFFFFFFFFFFFFFFFFFFFFFFFF3
:102DF000FFFFFFFFFFFFFFFFFFFFFFFFFFFFFFFFE3
:102E0000FFFFFFFFFFFFFFFFFFFFFFFFFFFFFFFFD2
:102E1000FFFFFFFFFFFFFFFFFFFFFFFFFFFFFFFFC2
:102E2000FFFFFFFFFFFFFFFFFFFFFFFFFFFFFFFFB2
:102E3000FFFFFFFFFFFFFFFFFFFFFFFFFFFFFFFFA2
:102E4000FFFFFFFFFFFFFFFFFFFFFFFFFFFFFFFF92
:102E5000FFFFFFFFFFFFFFFFFFFFFFFFFFFFFFFF82
:102E6000FFFFFFFFFFFFF7FFFFFFFFFFFFFFFFFF7A
:102E7000FFFFFFFFFFFFF7FFFFFFFFFFFFFFFFFF6A
:102E8000FFFFFFFFFFFF94FFFFFFFFFFFFFFFFFFBD
:102E9000FFFFFFFFFFFE003FFFFFFFFFFFFFFFFF02
:102EA000FFFFFFFFFFFE633FFFFFFFFFFFFFFFFF8F
:102EB000FFFFFFFFFFF07707FFFFFFFFFFFFFFFFB1
:102EC000FFFFFFFFFFF8770FFFFFFFFFFFFFFFFF91
:102ED000FFFFFFFFFFF8360FFFFFFFFFFFFFFFFFC2
:102EE000FFFFFFFFFFF10047FFFFFFFFFFFFFFFFB7
:102EF000FFFFFFFFFFFBC1EFFFFFFFFFFFFFFFFF34
:102F0000FFFFFFFFFFFBC1EFFFFFFFFFFFFFFFFF23
:102F1000FFFFFFFFFFF10047FFFFFFFFFFFFFFFF86
:102F2000FFFFFFFFFFFC360FFFFFFFFFFFFFFFFF6D
:102F3000FFFFFFFFFFF8770FFFFFFFFFFFFFFFFF20
:102F4000FFFFFFFFFFF07707FFFFFFFFFFFFFFFF20
:102F5000FFFFFFFFFFFE633FFFFFFFFFFFFFFFFFDE
:102F6000FFFFFFFFFFFE80BFFFFFFFFFFFFFFFFF31
:102F7000FFFFFFFFFFFF94FFFFFFFFFFFFFFFFFFCC
:102F8000FFFFFFFFFFFFF7FFFFFFFFFFFFFFFFFF59
:102F9000FFFFFFFFFFFFF7FFFFFFFFFFFFFFFFFF49
:102FA000FFFFFFFFFFFFFFFFFFFFFFFFFFFFFFFF31
:102FB000FFFFFFFFFFFFFFFFFFFFFFFFFFFFFFFF21
:102FC000FFFFFFFFFFFFFFFFFFFFFFFFFFFFFFFF11
:102FD000FFFFFFFFFFFFFFFFFFFFFFFFFFFFFFFF01
:102FE000FFFFFFFFFFFFFFFFFFFFFFFFFFFFFFFFF1
:102FF000FFFFFFFFFFFFFFFFFFFFFFFFFFFFFFFFE1
:10300000FFFFFFFFFFFFFFFFFFFFFFFFFFFFFFFFD0
:10301000FFFFFFFFFFFFFFFFFFFFFFFFFFFFFFFFC0
:10302000FFFFFFFFFFFFFFFFFFFFFFFFFFFFFFFFB0
:10303000FFFFFFFFFFFFFFFFFFFFFFFFFFFFFFFFA0
:10304000FFFFFFFFFFFFFFFFFFFFFFFFFFFFFFFF90
:10305000FFFFFFFFFFFFFFFFFFFFFFFFFFFFFFFF80
:10306000FFFFFFFFFFFFFFFFFFFFFFFFFFFFFFFF70
:10307000FFFFFFFFFFFFFFFFFFFFFFFFFFFFFFFF60
:10308000FFFFFFFFFFFFFFFFFFFFFFFFFFFFFFFF50
:10309000FFFFFFFFFFFFFFFFFFFFFFFFFFFFFFFF40
:1030A000FFFFFFFFFFFFFFFFFFFFFFFFFFFFFFFF30
:1030B000FFFFFFFFFFFFFFFFFFFFFFFFFFFFFFFF20
:1030C000FFFFFFFFFFFFFE7FFFFFFFFFFFFFFFFF91
:1030D000FFFFFFFFFFFFF00FFFFFFFFFFFFFFFFFFF
:1030E000FFFFFFFFFFFFC007FFFFFFFFFFFFFFFF27
:1030F000FFFFFFFFFFFE0007FFFFFFFFFFFFFFFFD8
:10310000FFFFFFFFFFFC0007FFFFFFFFFFFFFFFFC9
:10311000FFFFFFFFFFF00003FFFFFFFFFFFFFFFFC9
:10312000FFFFFFFFFFF00003FFFFFFFFFFFFFFFFB9
:10313000FFFFFFFFFFFC0007FFFFFFFFFFFFFFFF99
:10314000FFFFFFFFFFFE0007FFFFFFFFFFFFFFFF87
:10315000FFFFFFFFFFFFC007FFFFFFFFFFFFFFFFB6
:10316000FFFFFFFFFFFFF00FFFFFFFFFFFFFFFFF6E
:10317000FFFFFFFFFFFFFE7FFFFFFFFFFFFFFFFFE0
:10318000FFFFFFFFFFFFFFFFFFFFFFFFFFFFFFFF4F
:10319000FFFFFFFFFFFFFFFFFFFFFFFFFFFFFFFF3F
:1031A000FFFFFFFFFFFFFFFFFFFFFFFFFFFFFFFF2F
:1031B000FFFFFFFFFFFFFFFFFFFFFFFFFFFFFFFF1F
:1031C000FFFFFFFFFFFFFFFFFFFFFFFFFFFFFFFF0F
:1031D000FFFFFFFFFFFFFFFFFFFFFFFFFFFFFFFFFF
:1031E000FFFFFFFFFFFFFFFFFFFFFFFFFFFFFFFFEF
:1031F000FFFFFFFFFFFFFFFFFFFFFFFFFFFFFFFFDF
:10320000FFFFFFFFFFFFFFFFFFFFFFFFFFFFFFFFCE
:10321000FFFFFFFFFFFFFFFFFFFFFFFFFFFFFFFFBE
:10322000FFFFFFFFFFFFFFFFFFFFFFFFFFFFFFFFAE
:10323000FFFFFFFFFFFFFFFFFFFFFFFFFFFFFFFF9E
:10324000FFFFFFFFFFFFFFFFFFFFFFFFFFFFFFFF8E
:10325000FFFFFFFFFFFFFBFFFFFFFFFFFFFFFFFF82
:10326000FFFFFFFFFFFFFBFFFFFFFFFFFFFFFFFF72
:10327000FFFFFFFFFFFFFBFFFFFFFFFFFFFFFFFF62
:10328000FFFFFFFFFFFF7BDFFFFFFFFFFFFFFFFFF2
:10329000FFFFFFFFFFFFBBBFFFFFFFFFFFFFFFFFC2
:1032A000FFFFFFFFFFFFCE7FFFFFFFFFFFFFFFFFDF
:1032B000FFFFFFFFFFFFDB7FFFFFFFFFFFFFFFFFC2
:1032C000FFFFFFFFFFFFF1FFFFFFFFFFFFFFFFFF1C
:1032D000FFFFFFFFFFF82083FFFFFFFFFFFFFFFF60
:1032E000FFFFFFFFFFFFF1FFFFFFFFFFFFFFFFFFFC
:1032F000FFFFFFFFFFFFDB7FFFFFFFFFFFFFFFFF82
:10330000FFFFFFFFFFFFCE7FFFFFFFFFFFFFFFFF7E
:10331000FFFFFFFFFFFFBBBFFFFFFFFFFFFFFFFF41
:10332000FFFFFFFFFFFF7BDFFFFFFFFFFFFFFFFF51
:10333000FFFFFFFFFFFFFBEFFFFFFFFFFFFFFFFFB1
:10334000FFFFFFFFFFFFFBFFFFFFFFFFFFFFFFFF91
:10335000FFFFFFFFFFFFFBFFFFFFFFFFFFFFFFFF81
:10336000FFFFFFFFFFFFFFFFFFFFFFFFFFFFFFFF6D
:10337000FFFFFFFFFFFFFFFFFFFFFFFFFFFFFFFF5D
:10338000FFFFFFFFFFFFFFFFFFFFFFFFFFFFFFFF4D
:10339000FFFFFFFFFFFFFFFFFFFFFFFFFFFFFFFF3D
:1033A000FFFFFFFFFFFFFFFFFFFFFFFFFFFFFFFF2D
:1033B000FFFFFFFFFFFFFFFFFFFFFFFFFFFFFFFF1D
:1033C000FFFFFFFFFFFFFFFFFFFFFFFFFFFFFFFF0D
:1033D000FFFFFFFFFFFFFFFFFFFFFFFFFFFFFFFFFD
:1033E000FFFFFFFFFFFFFFFFFFFFFFFFFFFFFFFFED
:1033F000FFFFFFFFFFFFFFFFFFFFFFFFFFFFFFFFDD
:10340000FFFFFFFFFFFFFFFFFFFFFFFFFFFFFFFFCC
:10341000FFFFFFFFFFFFFFFFFFFFFFFFFFFFFFFFBC
:10342000FFFFFFFFFFFFFFFFFFFFFFFFFFFFFFFFAC
:10343000FFFFFFFFFFFFFFFFFFFFFFFFFFFFFFFF9C
:10344000FFFFFFFFFFFFFFFFFFFFFFFFFFFFFFFF8C
:10345000FFFFFFFFFFFFFFFFFFFFFFFFFFFFFFFF7C
:10346000FFFFFFFFFFFFFFF3FFFFFFFFFFFFFFFF78
:10347000FFFFFFFFFFFFFFC3FFFFFFFFFFFFFFFF98
:10348000FFFFFFFFFFFFFFC3FFFFFFFFFFFFFFFF88
:10349000FFFFFFFFFFFFFFC7FFFFFFFFFFFFFFFF74
:1034A000FFFFFFFFFFF8000FFFFFFFFFFFFFFFFF22
:1034B000FFFFFFFFFFFE4FFFFFFFFFFFFFFFFFFFCD
:1034C000FFFFFFFFFFFF27FFFFFFFFFFFFFFFFFFE4
:1034D000FFFFFFFFFFFF93FFFFFFFFFFFFFFFFFF68
:1034E000FFFFFFFFFFFFC03FFFFFFFFFFFFFFFFFEB
:1034F000FFFFFFFFFFFFFFFFFFFFFFFFFFFFFFFFDC
:10350000FFFFFFFFFFFFFFFFFFFFFFFFFFFFFFFFCB
:10351000FFFFFFFFFFFFFFFFFFFFFFFFFFFFFFFFBB
:10352000FFFFFFFFFFFFFFFFFFFFFFFFFFFFFFFFAB
:10353000FFFFFFFFFFFFFFFFFFFFFFFFFFFFFFFF9B
:10354000FFFFFFFFFFFFFFFFFFFFFFFFFFFFFFFF8B
:10355000FFFFFFFFFFFFFFFFFFFFFFFFFFFFFFFF7B
:10356000FFFFFFFFFFFFFFFFFFFFFFFFFFFFFFFF6B
:10357000FFFFFFFFFFFFFFFFFFFFFFFFFFFFFFFF5B
:10358000FFFFFFFFFFFFFFFFFFFFFFFFFFFFFFFF4B
:10359000FFFFFFFFFFFFFFFFFFFFFFFFFFFFFFFF3B
:1035A000FFFFFFFFFFFFF8FFFFFFFFFFFFFFFFFF32
:1035B000FFFFFFFFFFFFF81FFFFFFFFFFFFFFFFF02
:1035C000FFFFFFFFFFFFF80FFFFFFFFFFFFFFFFF02
:1035D000FFFFFFFFFFFFF807FFFFFFFFFFFFFFFFFA
:1035E000FFFFFFFFFFFFF803FFFFFFFFFFFFFFFFEE
:1035F000FFFFFFFFFFEFF807FFFFFFFFFFFFFFFFEA
:10360000FFFFFFFFFFE3F81FFFFFFFFFFFFFFFFFCD
:10361000FFFFFFFFFFE0FE3FFFFFFFFFFFFFFFFF9A
:10362000FFFFFFFFFFE07FFFFFFFFFFFFFFFFFFF49
:10363000FFFFFFFFFFC033FFFFFFFFFFFFFFFFFFA5
:10364000FFFFFFFFFFC061FFFFFFFFFFFFFFFFFF67
:10365000FFFFFFFFFFC033FFFFFFFFFFFFFFFFFF85
:10366000FFFFFFFFFFE07FFFFFFFFFFFFFFFFFFF09
:10367000FFFFFFFFFFE1FE3FFFFFFFFFFFFFFFFF39
:10368000FFFFFFFFFFE7F81FFFFFFFFFFFFFFFFF49
:10369000FFFFFFFFFFFFF807FFFFFFFFFFFFFFFF39
:1036A000FFFFFFFFFFFFF803FFFFFFFFFFFFFFFF2D
:1036B000FFFFFFFFFFFFF807FFFFFFFFFFFFFFFF19
:1036C000FFFFFFFFFFFFF80FFFFFFFFFFFFFFFFF01
:1036D000FFFFFFFFFFFFF81FFFFFFFFFFFFFFFFFE1
:1036E000FFFFFFFFFFFFF8FFFFFFFFFFFFFFFFFFF1
:1036F000FFFFFFFFFFFFFFFFFFFFFFFFFFFFFFFFDA
:10370000FFFFFFFFFFFFFFFFFFFFFFFFFFFFFFFFC9
:10371000FFFFFFFFFFFFFFFFFFFFFFFFFFFFFFFFB9
:10372000FFFFFFFFFFFFFFFFFFFFFFFFFFFFFFFFA9
:10373000FFFFFFFFFFFFFFFFFFFFFFFFFFFFFFFF99
:10374000FFFFFFFFFFFFFFFFFFFFFFFFFFFFFFFF89
:10375000FFFFFFFFFFFFFFFFFFFFFFFFFFFFFFFF79
:10376000FFFFFFFFFFFFFFFFFFFFFFFFFFFFFFFF69
:10377000FFFFFFFFFFFFFFFFFFFFFFFFFFFFFFFF59
:10378000FFFFFFFFFFFFFFFFFFFFFFFFFFFFFFFF49
:10379000FFFFFFFFFFFFFFFFFFFFFFFFFFFFFFFF39
:1037A000FFFFFFFFFFFFFFFFFFFFFFFFFFFFFFFF29
:1037B000FFFFFFFFFFFFFFFFFFFFFFFFFFFFFFFF19
:1037C000FFFFFFFFFFFF83FFFFFFFFFFFFFFFFFF85
:1037D000FFFFFFFFFFFC107FFFFFFFFFFFFFFFFF6B
:1037E000FFFFFFFFFFF9FF3FFFFFFFFFFFFFFFFFAF
:1037F000FFFFFFFFFFF3FF9FFFFFFFFFFFFFFFFF45
:10380000FFFFFFFFFFE7FFCFFFFFFFFFFFFFFFFF10
:10381000FFFFFFFFFFCFFFE7FFFFFFFFFFFFFFFF00
:10382000FFFFFFFFFFDFFEF7FFFFFFFFFFFFFFFFD1
:10383000FFFFFFFFFFDFFCF7FFFFFFFFFFFFFFFFC3
:10384000FFFFFFFFFF9FF9F3FFFFFFFFFFFFFFFFFA
:10385000FFFFFFFFFF9FF3F3FFFFFFFFFFFFFFFFF0
:10386000FFFFFFFFFFA007FBFFFFFFFFFFFFFFFFC3
:10387000FFFFFFFFFF9FFFF3FFFFFFFFFFFFFFFFC4
:10388000FFFFFFFFFF9FFFF3FFFFFFFFFFFFFFFFB4
:10389000FFFFFFFFFFDFFFF7FFFFFFFFFFFFFFFF60
:1038A000FFFFFFFFFFDFFFF7FFFFFFFFFFFFFFFF50
:1038B000FFFFFFFFFFCFFFE7FFFFFFFFFFFFFFFF60
:1038C000FFFFFFFFFFE7FFCFFFFFFFFFFFFFFFFF50
:1038D000FFFFFFFFFFF3FF9FFFFFFFFFFFFFFFFF64
:1038E000FFFFFFFFFFF9FF3FFFFFFFFFFFFFFFFFAE
:1038F000FFFFFFFFFFFC107FFFFFFFFFFFFFFFFF4A
:10390000FFFFFFFFFFFF83FFFFFFFFFFFFFFFFFF43
:10391000FFFFFFFFFFFFFFFFFFFFFFFFFFFFFFFFB7
:10392000FFFFFFFFFFFFFFFFFFFFFFFFFFFFFFFFA7
:10393000FFFFFFFFFFFFFFFFFFFFFFFFFFFFFFFF97
:10394000FFFFFFFFFFFFFFFFFFFFFFFFFFFFFFFF87
:10395000FFFFFFFFFFFFFFFFFFFFFFFFFFFFFFFF77
:10396000FFFFFFFFFFFFFFFFFFFFFFFFFFFFFFFF67
:10397000FFFFFFFFFFFFFFFFFFFFFFFFFFFFFFFF57
:10398000FFFFFFFFFFFFFFFFFFFFFFFFFFFFFFFF47
:10399000FFFFFFFFFFFFFFFFFFFFFFFFFFFFFFFF37
:1039A000FFFFFFFFFFFFFFFFFFFFFFFFFFFFFFFF27
:1039B000FFFFFFFFFFFFFFFFFFFFFFFFFFFFFFFF17
:1039C000FFFFFFFFFFFFFFFFFFFFFFFFFFFFFFFF07
:1039D000FFFFFFFFFFFFFFFFFFFFFFFFFFFFFFFFF7
:1039E000FFFFFFFFFFFFFFFFFFFFFFFFFFFFFFFFE7
:1039F000FFFFFFFFFFFFFFFFFFFFFFFFFFFFFFFFD7
:103A0000FFFFFFFFFF003FFFFFFFFFFFFFFFFFFF85
:103A1000FFFFFFFFFF000187FFFFFFFFFFFFFFFF2B
:103A2000FFFFFFFFFF000187FFFFFFFFFFFFFFFF1B
:103A3000FFFFFFFFFF000187FFFFFFFFFFFFFFFF0B
:103A4000FFFFFFFFFF000187FFFFFFFFFFFFFFFFFB
:103A5000FFFFFFFFFF000187FFFFFFFFFFFFFFFFEB
:103A6000FFFFFFFFFF003FFFFFFFFFFFFFFFFFFF25
:103A7000FFFFFFFFFFFFFFFFFFFFFFFFFFFFFFFF56
:103A8000FFFFFFFFFFFFFFFFFFFFFFFFFFFFFFFF46
:103A9000FFFFFFFFFFFFFFFFFFFFFFFFFFFFFFFF36
:103AA000FFFFFFFFFFFFFFFFFFFFFFFFFFFFFFFF26
:103AB000FFFFFFFFFFFFFFFFFFFFFFFFFFFFFFFF16
:103AC000FFFFFFFFFFFFFFFFFFFFFFFFFFFFFFFF06
:103AD000FFFFFFFFFFFFFFFFFFFFFFFFFFFFFFFFF6
:103AE000FFFFFFFFFFFFFFFFFFFFFFFFFFFFFFFFE6
:103AF000FFFFFFFFFFFFFFFFFFFFFFFFFFFFFFFFD6
:103B0000FFFFFFFFFFFFFFFFFFFFFFFFFFFFFFFFC5
:103B1000FFFFFFFFFFFFFFFFFFFFFFFFFFFFFFFFB5
:103B2000FFFFFFFFFFFFFFFFFFFFFFFFFFFFFFFFA5
:103B3000FFFFFFFFFFFFFFFFFFFFFFFFFFFFFFFF95
:103B4000FFFFFFFFFFFFFFFFFFFFFFFFFFFFFFFF85
:103B5000FFFFFFFFFFFFE7FFFFFFFFFFFFFFFFFF8D
:103B6000FFFFFFFFFFFFE3FFFFFFFFFFFFFFFFFF81
:103B7000FFFFFFFFFFFFC3FFFFFFFFFFFFFFFFFF91
:103B8000FFFFFFFFFFFF81FFFFFFFFFFFFFFFFFFC3
:103B9000FFFFFFFFFFFF80FFFFFFFFFFFFFFFFFFB4
:103BA000FFFFFFFFFFFFE07FFFFFFFFFFFFFFFFFC4
:103BB000FFFFFFFFFFFFF83FFFFFFFFFFFFFFFFFDC
:103BC000FFFFFFFFFFFFF81FFFFFFFFFFFFFFFFFEC
:103BD000FFFFFFFFFFFFE07FFFFFFFFFFFFFFFFF94
:103BE000FFFFFFFFFFFF80FFFFFFFFFFFFFFFFFF64
:103BF000FFFFFFFFFFFE03FFFFFFFFFFFFFFFFFFD2
:103C0000FFFFFFFFFFFC07FFFFFFFFFFFFFFFFFFBF
:103C1000FFFFFFFFFFF80FFFFFFFFFFFFFFFFFFFAB
:103C2000FFFFFFFFFFE01FFFFFFFFFFFFFFFFFFFA3
:103C3000FFFFFFFFFFE03FFFFFFFFFFFFFFFFFFF73
:103C4000FFFFFFFFFFC07FFFFFFFFFFFFFFFFFFF43
:103C5000FFFFFFFFFFC0FFFFFFFFFFFFFFFFFFFFB3
:103C6000FFFFFFFFFFFFFFFFFFFFFFFFFFFFFFFF64
:103C7000FFFFFFFFFFFFFFFFFFFFFFFFFFFFFFFF54
:103C8000FFFFFFFFFFFFFFFFFFFFFFFFFFFFFFFF44
:103C9000FFFFFFFFFFFFFFFFFFFFFFFFFFFFFFFF34
:103CA000FFFFFFFFFFFFFFFFFFFFFFFFFFFFFFFF24
:103CB000FFFFFFFFFFFFFFFFFFFFFFFFFFFFFFFF14
:103CC000FFFFFFFFFFFFFFFFFFFFFFFFFFFFFFFF04
:103CD000FFFFFFFFFFFFFFFFFFFFFFFFFFFFFFFFF4
:103CE000FFFFFFFFFFFFFFFFFFFFFFFFFFFFFFFFE4
:103CF000FFFFFFFFFFFFFFFFFFFFFFFFFFFFFFFFD4
:103D0000FFFFFFFFFFFFFFFFFFFFFFFFFFFFFFFFC3
:103D1000FFFFFFFFFFFFFFFFFFFFFFFFFFFFFFFFB3
:103D2000FFFFFFFFFFFFFFFFFFFFFFFFFFFFFFFFA3
:103D3000FFFFFFFFFFFFFFFFFFFFFFFFFFFFFFFF93
:103D4000FFFFFFFFFFFFFFFFFFFFFFFFFFFFFFFF83
:103D5000FFFFFFFFFFFFFFF9FFFFFFFFFFFFFFFF79
:103D6000CFFFFFFFFFFFFFF9FFFFFFFFFFFFFFFF99
:103D7000CFFFFFFFFFFFFFF9FFFFFFFFFFFFFFFF89
:103D8000CFFFFFFFFFFFFFF9FFFFFFFFFFFFFFFF79
:103D9000CFFFFFFFFFFFFFF9FFFFFFFFFFFFFFFF69
:103DA000CFFFFFFFFFFFFFF9FFFFFFFFFFFFFFFF59
:103DB000CFFFFFFFFFFFFFF9FFFFFFFFFFFFFFFF49
:103DC000CFFFFFFFFFFFFFF9FFFFFFFFFFFFFFFF39
:103DD000CFFFFFFFFFFFFFF9FFFFFFFFFFFFFFFF29
:103DE000CFFFFFFFFFFFFFF9FFFFFFFFFFFFFFFF19
:103DF000CFFFFFFFFFFFFFF9FFFFFFFFFFFFFFFF09
:103E0000CFFFFFFFFFFFFFF9FFFFFFFFFFFFFFFFF8
:103E1000CFFFFFFFFFFFFFF9FFFFFFFFFFFFFFFFE8
:103E2000CFC000FFFFFFFFF9FFFFFFFFFFFFFFFF16
:103E3000CFC000FFFFFCFCF9FFFFFFFFFBC001FF4D
:103E4000CFCF3CFFFFF8F8F9FFFFF878FBC001FF88
:103E5000CFCF3CFFFFF3F2F9FFFFF0387BFE3FFFCF
:103E6000CFCF3CFFFFF7E6F9FFFFE0387BFC7FFF99
:103E7000CFCF3CFFFFF7CEF9FFFFE11C3BF81FFF60
:103E8000CFC63CFFFFF39EF9FFFFE31E3BF107FFA8
:103E9000CFE018FFFFF83EF9FFFFC0000BC3C3FFE0
:103EA000CFF0C1FFFFFC7EF9FFFFC0000BC7F1FFA1
:103EB000CFFFE3FFFFFFFFF9FFFFE38E3BFFF9FFBB
:103EC000CFFFFFFFFFFFFFF9FFFFE18C3BFFFFFF8D
:103ED000CFFFFFFFFFFFFEF9FFFFE1807BFE047FC6
:103EE000CFC000FFFFFFFEF9FFFFF1C07BFC003FEA
:103EF000CFC000FFFFFFFFF9FFFFF9E0FBF8F13F44
:103F0000CFFFFFFFFFFFFFF9FFFFFFFFFBF9F93FC7
:103F1000CFFFFFFFFFFFFFF9FFFFFFFFFBF8F03FC1
:103F2000CFFE61FFFFFC3BF9FFFFFFFFFBF8007FC7
:103F3000CFFE40FFFFF819F9FFFFFFFFFFF800FF7A
:103F4000CFFCCCFFFFF3CEF9FFFFFFFFFFFFFFFF2A
:103F5000CFFCCCFFFFF7EEF9FFFFFFFFFFFFFFFFF6
:103F6000CFFC9CFFFFF7EEF9FFFFFFFFFFFFFFFF16
:103F7000CFFC99FFFFF3CCF9FFFFFFFFFFFFFFFF2F
:103F8000CFFC01FFFFF801F9FFFFFFFFFFFFFFFF7D
:103F9000CFFE00FFFFFC07F9FFFFFFFFFFFFFFFF62
:103FA000CFFFFEFFFFFFFFF9FFFFFFFFFFFFFFFF58
:103FB000CFFFFFFFFFFFFFF9FFFFFFFFFFFFFFFF47
:103FC000CFFF03FFFFFFFFF9FFFFFFFFFFFFFFFF33
:103FD000CFFE01FFFFFFFFF9FFFFFFFFFFFFFFFF26
:103FE000CFFC78FFFFFFFFF9FFFFFFFFFFFFFFFFA1
:103FF000CFFCFCFFFFFFFFF9FFFFFFFFFFFFFFFF0D
:10400000CFFCFCFFFFFFFFF9FFFFFFFFFFFFFFFFFC
:10401000CFFC78FFFFF600F9FFFFFFFFFFFFFFFF78
:10402000CFFE79FFFFF600F9FFFFFFFFFFFFFFFF65
:10403000CFFF7BFFFFFFFFF9FFFFFFFFFFFFFFFF4A
:10404000CFFFFFFFFFFFFFF9FFFFFFFFFFFFFFFFB6
:10405000CFFFFFFFFFFE00F9FFFFFFFFFFFFFFFFA6
:10406000CFC000FFFFFE00F9FFFFFFFFFFFFFFFFD4
:10407000CFC000FFFFFF7FF9FFFFFFFFFFFFFFFF44
:10408000CFFF9FFFFFFEFFF9FFFFFC0FFFFFFFFFCA
:10409000CFFF0FFFFFFEFFF9FFFFFC0FFFFFFFFF4A
:1040A000CFFE03FFFFFEFFF9FFFFF80FFFFFFFFF4B
:1040B000CFFC60FFFFFE00F9FFFFF00FFFFFFFFFE7
:1040C000CFFCF8FFFFFF00F9FFFFF01FFFFFFFFF2E
:1040D000CFFDFEFFFFFFFFF9FFFFE01FFFFFFFFF28
:1040E000CFFFFFFFFFFFFFF9FFFFC03FFFFFFFFF15
:1040F000CFFFFCDFFFFF83F9FFFFC03FFFFFFFFFA4
:10410000CFFFFC3FFFFF01F9FFFF807FFFFFFFFFB5
:10411000CFFFFFFFFFFE7CF9FFFF007FFFFFFFFFE8
:10412000CFFFFFFFFFFEFEF9FFFE00FFFFFFFFFFD7
:10413000CFFFFFFFFFFEFEF9FFFC00000000007F45
:10414000CFFFFFFFFFFE39F9FFF000000000007F06
:10415000CFFFFFFFFFFFBBF9FFE000000000007F83
:10416000CFFFFFFFFFFFFFF9FFE000000000007F2F
:10417000CFFFFFFFFFFFFFF9FFE000000000007F1F
:10418000CFCFFFFFFFF000F9FFE000000000007F4D
:10419000CFC07FFFFFF000F9FFE000000000007FCC
:1041A000CFF003FFFFFF7FF9FFE000000000007F7A
:1041B000CFFF80FFFFFEFFF9FFFFFFFFFFFFFFFFC5
:1041C000CFFFFCFFFFFEFFF9FFFFFFFFFFFFFFFF39
:1041D000CFFFE0FFFFFEFFF9FFFFFFFFFFFFFFFF45
:1041E000CFFE03FFFFFE00F9FFFFFFFFFFFFFFFF12
:1041F000CFF01FFFFFFF00F9FFFFFFFFFFFFFFFFF3
:10420000CFC1FFFFFFFFFFF9FFFFFFFFFFFFFFFF32
:10421000CFCFFFFFFFFFFFF9FFFFFFFFFFFFFFFF14
:10422000CFC1FFFFFFFFFFF9FFFFFFFFFFFFFFFF12
:10423000CFF01FFFFFFFFFF9FFFFFFFFFFFFFFFFB3
:10424000CFFE03FFFFFFFFF9FFFFFFFFFFFFFFFFB1
:10425000CFFFE0FFFFFFFFF9FFFFFFFFFFFFFFFFC3
:10426000CFFFFCFFFFFFFFF9FFFFFFFFFFFFFFFF97
:10427000CFFF80FFFFF000F9FFFFFFFFFFFFFFFF11
:10428000CFF003FFFFF000F9FFFFFFE0001FFFFF8B
:10429000CFC07FFFFFF7BEF9FFFFFE000000FFFF6A
:1042A000CFCFFFFFFFF7BEF9FFFFF00000003FFF99
:1042B000CFFFFFFFFFF7BEF9FFFFC00000000FFFB9
:1042C000CFC000FFFFF7BEF9FFFF8000000007FF2F
:1042D000CFC000FFFFF7BEF9FFFE0000000003FFA4
:1042E000CFFE7FFFFFF7BEF9FFFC0000000001FFDB
:1042F000CFFCFFFFFFF7BEF9FFFC0000000000FF4E
:10430000CFFCFFFFFFF7BEF9FFF8001C01F800FF2C
:10431000CFFCFFFFFFFFFFF9FFF000F807FE007F73
:10432000CFFC00FFFFFFEFF9FFF003F80FFF807FE6
:10433000CFFE00FFFFFFEFF9FFF00FF01FFFC07F80
:10434000CFFFFFFFFFFFEFF9FFE01FF03FFFE03F70
:10435000CFFFFFFFFFFFEFF9FFE03FE03FFFE03F50
:10436000CFCC00FFFFFFEFF9FFE03FE07FFFF03F22
:10437000CFCC00FFFFFFFFF9FFE07FE07FFFF03FC2
:10438000CFFFFFFFFFFFFFF9FFE07FE07FFFF03F80
:10439000CFFCFFFFFFF000F9FFE07FE07FFFF03F81
:1043A000CFE001FFFFF000F9FFE03FE07FFFE03FDB
:1043B000CFE000FFFFF7DFF9FFE03FE03FFFE03F26
:1043C000CFFCFCFFFFF7DFF9FFE01FE03FFFC03F3E
:1043D000CFFCFCFFFFF7DFF9FFE00FE01FFF803F9E
:1043E000CFFFFFFFFFF7DFF9FFF003F007FF007FCC
:1043F000CFFF03FFFFF7DFF9FFF000F001FC007FC4
:10440000CFFE01FFFFF39FF9FFF000F0000000FF77
:10441000CFFC48FFFFF83FF9FFF800F8000000FF6D
:10442000CFFCCCFFFFFC7FF9FFFC00FC000001FF8C
:10443000CFFCCCFFFFFFFFF9FFFE00FC000003FFF5
:10444000CFFCCCFFFFFFFFF9FFFF00FE000007FFDE
:10445000CFFC4CFFFFFFB1F9FFFFC0FF80000FFF53
:10446000CFFE09FFFFFF20F9FFFFF0FFC0003FFF75
:10447000CFFF8BFFFFFE6EF9FFFFFFFFF801FFFF8D
:10448000CFFFFFFFFFFEEEF9FFFFFFFFFFFFFFFF84
:10449000CFFFFFFFFFFEEEF9FFFFFFFFFFFFFFFF74
:1044A000CFFFFFFFFFFEDDF9FFFFFFFFFFFFFFFF75
:1044B000CFFFFFFFFFFE00F9FFFFFFFFFFFFFFFF42
:1044C000CFFFFFFFFFFF00F9FFFFFFFFFFFFFFFF31
:1044D000CFFFFFFFFFFFFFF9FFFFFFFFFFFFFFFF22
:1044E000CFFFFFFFFFFFFFF9FFFFFFFFFFFFFFFF12
:1044F000CFFFFFFFFFFE0019FFFFFFFFFFFFFFFFE2
:10450000CFFFFFFFFFFE0019FFFFFFFFFFFFFFFFD1
:10451000CFFFFFFFFFFF7DF9FFFFFFFFFFFFC07F22
:10452000CFFFFFFFFFFEFEF9FFFFFFFFFFFFC07F92
:10453000CFFFFFFFFFFEFEF9FFFFFFFFFFFFC07F82
:10454000CFFFFFFFFFFE7CF9FFFFFFFFFFFFC07FF4
:10455000CFFFFFFFFFFF01F9FFFFFFFFFFFFC07F5E
:10456000CFFFFFFFFFFF83F9FFFFFFFFFFFFC07FCC
:10457000CFFFFFFFFFFFFFF9FFFFFFFFFFFFC07F40
:10458000CFFFFFFFFFFFFFF9FFFFFFFFFFFFC07F30
:10459000CFFFFFFFFFFF83F9FFFFF878FFFFFFFF6B
:1045A000CFFFFFFFFFFF01F9FFFE00783FFFFFFF96
:1045B000CFFFFFFFFFFE6CF9FFF000781FFFFFFF4A
:1045C000CFFFFFFFFFFEEEF9FFF000780FFFFFFFC8
:1045D000CFFFFFFFFFFEEEF9FFF0007E0FFFFFFFB2
:1045E000CFFFFFFFFFFE6CF9FFF0F0FF07FFFFFFBB
:1045F000CFFFFFFFFFFF09F9FFF0F0FF87FFFFFF8D
:10460000CFFFFFFFFFFF8BF9FFF0F0FF87FFFFFFFA
:10461000CFFFFFFFFFFFFFF9FFF0F0FF87FFFFFF76
:10462000CFFFFFFFFFFFFFF9FFF0F0FF87FFFFFF66
:10463000CFFFFFFFFFFE00F9FFF0F0FF87FFFFFF56
:10464000CFFFFFFFFFFE00F9FFF0F07F07FFFFFF46
:10465000CFFFFFFFFFFF7FF9FFF0F83E0FFFFFFFE7
:10466000CFFFFFFFFFFEFFF9FFF0F8000FFFFFFF96
:10467000CFFFFFFFFFFE7FF9FFF0FC001FFFFFFFF2
:10468000CFFFFFFFFFFFFFF9FFF0FE003FFFFFFF3F
:10469000CFFFE7FFFFFFFFF9FFFFFF80FFFFFFFFF7
:1046A000CFF1E1FFFFFFFFF9FFFFFFFFFFFFFFFF7C
:1046B000CFE0F9FFFFFFFFF9FFFFFFFFFFFFFFFF65
:1046C000CFC678FFFFFFFFF9FFFFE003FFFFFFFF0B
:1046D000CFCE7CFFFFFFFFF9FFFF00007FFFFFFF52
:1046E000CFCF7CFFFFFFFFF9FFFC00001FFFFFFFA4
:1046F000CFCF3CFFFFFFFFF9FFF800000FFFFFFFE8
:10470000CFCF3CFFFFFFFFF9FFF80FF80FFFFFFFD0
:10471000CFC7B9FFFFFFFFF9FFF07FFF07FFFFFFE4
:10472000CFE381FFFFFFFFF9FFF07FFF07FFFFFFF0
:10473000CFF3C3FFFFFFFFF9FFF0FFFF87FFFFFF8E
:10474000CFFFFFFFFFFFFFF9FFF0FFFF87FFFFFF36
:10475000CFFFFFFFFFFFFFF9FFF0FFFF87FFFFFF26
:10476000CFFFFFFFFFFFFFF9FFF07FFF07FFFFFF16
:10477000CFC000FFFFFFFFF9FFF03FFF07FFFFFF84
:10478000CFC000FFFFFFFFF9FFF80FF80FFFFFFF9B
:10479000CFCF9FFFFFFFFFF9FFF800000FFFFFFFE4
:1047A000CFCF9FFFFFFFFFF9FFFC00001FFFFFFFC0
:1047B000CFCF9FFFFFFFFFF9FFFF00007FFFFFFF4D
:1047C000CFCF9FFFFFFFFFF9FFFFE003FFFFFFFFDA
:1047D000CFCF9FFFFFFFFFF9FFFFFFFFFFFFFFFFAF
:1047E000CFC71FFFFFFFFFF9FFFFFFFFFFFFFFFF27
:1047F000CFE03FFFFFFFFFF9FFFFFFFFFFFFFFFFDE
:10480000CFF07FFFFFFFFFF9FFFFFFFFFFFFFFFF7D
:10481000CFFFFFFFFFFFFFF9FFFFFFFFFFFFFFFFDE
:10482000CFFFFFFFFFFFFFF9FFFFFFFFFFFFFFFFCE
:10483000CFFFFFFFFFFFFFF9FFFFFFFFFFFFFFFFBE
:10484000CFC000FFFFFFFFF9FFFFFFFFFFFFFFFFEC
:10485000CFC000FFFFFFFFF9FFFFFFFFFFFFFFFFDC
:10486000CFFFFFFFFFFFFFF9FFFFFFFFFFFFFFFF8E
:10487000CFFFFFFFFFFFFFF9FFFFFFFFFFFFFFFF7E
:10488000CFFFFFFFFFFFFFF9FFFFFFFFFFFFFFFF6E
:10489000CFFFFFFFFFFFFFF9FFFFFFFFFFFFFFFF5E
:1048A000CFFFFFFFFFFFFFF9FFFFFFFFFFFFFFFF4E
:1048B000CFFFFFFFFFFFFFF9FFFFFFFFFFFFFFFF3E
:1048C000CFFFFFFFFFFFFFF9FFFFFFFFFFFFFFFF2E
:1048D000CFFFFFFFFFFFFFF9FFFFFFFFFFFFFFFF1E
:1048E000CFFFFFFFFFFFFFF9FFFFFFFFFFFFFFFF0E
:1048F000CFFFFFFFFFFFFFF9FFFFFFFFFFFFFFFFFE
:10490000CFFFFFFFFFFFFFF9FFFFFFFFFFFFFFFFED
:10491000CFFFFFFFFFFFFFF80000000000000000D6
:1049200000000000FFFFFFF8000000000000000092
:1049300000000000FFFFFFF8000000000000000082
:1049400000000000FFFFFFF8000000000000000072
:1049500000000000FFFFFFF8000000000000000062
:1049600000000000FFFFFFF8000000000000000052
:1049700000000000FFFFFFF8000000000000000042
:1049800000000000FFFFFFF8000000000000000032
:1049900000000000FFFFFFF8000000000000000022
:1049A00000000000FFFFFFF8000000000000000012
:1049B00000000000FFFFFFF8000000000000000002
:1049C00000000000FFFFFFF80000000000000000F2
:1049D00000000000FFFFFFF80000000000000000E2
:1049E00000000000FFFFFFF80000000000000000D2
:1049F00000000000FFFFFFF80000000000000000C2
:104A000000000000FFFFFFF80000000000000000B1
:104A100000000000FFFFFFF80000000000000000A1
:104A200000000000FFFFFFF80000000000E0007041
:104A300000000000FFFFFFF80000000003E0007C22
:104A400000000000FFFFFFF8000000000FF000FF73
:104A500000000000FFFFFFF8000000001FF000FF53
:104A600080000000FFFFFFF8000000001FF000FFC3
:104A700080002000FFFFFFF8000000003FF000FF73
:104A8000C0002000FFFFFFF8000000003FC0003F13
:104A9000C0002000FFFFFFF8000000007F00000FB3
:104AA000E0002000FFFFFFF8000FC0007E01E007DC
:104AB000E0062200FFFFFFF8003FF0007E03E00762
:104AC000E0082600FFFFFFF8007038007C03E003D9
:104AD000E0082A00FFFFFFF8006018007C03E003F5
:104AE000E0083200FFFFFFF800C00C007C03E00389
:104AF000E0086200FFFFFFF800C00C007E07E00343
:104B0000E007A200FFFFFFF800C00C007E07E007EF
:104B1000E0002000FFFFFFF800C00C007F1FF0073F
:104B2000E0002000FFFFFFF800C00C003FFFF80F7F
:104B3000C0002000FFFFFFF8006018003FFFFC3FAF
:104B4000C0022000FFFFFFF8007038001FFFFFFFCA
:104B5000C0042000FFFFFFF8003FF0000FFEFFFF42
:104B6000800FFE00FFFFFFF8000FC00007FC7FFF73
:104B700000002000FFFFFFF80000000003F83FFEE8
:104B800000002000FFFFFFF80000000000001FFCF5
:104B900000002000FFFFFFF800000000000007F009
:104BA00000002000FFFFFFF800FFFC0000000000F5
:104BB00000002000FFFFFFF800FFFC0000000000E5
:104BC00000002200FFFFFFF800C30000000000000B
:104BD00000002000FFFFFFF800C30000001FFF805F
:104BE00000002000FFFFFFF800C3000001FFFFF8F6
:104BF0000001EC00FFFFFFF800C3000007FFFFFE0D
:104C0000000EA200FFFFFFF800C300000FFFFFFF30
:104C10000008A200FFFFFFF800C300001FFFFFFF16
:104C20008008A200FFFFFFF800C000003FFFFFFF69
:104C3000C008A600FFFFFFF8000000003FF000FFE3
:104C4000C0087800FFFFFFF8000000007F80001F11
:104C5000E0002000FFFFFFF8000000007F00000FD1
:104C6000E0002000FFFFFFF800FFFC007E000007CF
:104C7000E007FC00FFFFFFF800FFFC007C000003E2
:104C8000E0082200FFFFFFF800C300007C000003E3
:104C9000E0082200FFFFFFF800C300007C000003D3
:104CA000E0082200FFFFFFF800C300007C000003C3
:104CB000E0082200FFFFFFF800C300007E000007AD
:104CC000E007FC00FFFFFFF800C300007F00000FBB
:104CD000E0002000FFFFFFF800C300007F80001FFE
:104CE000E0002000FFFFFFF800C000003FF000FFE1
:104CF000C0002000FFFFFFF8000000003FFFFFFFA3
:104D0000C0002600FFFFFFF8000000001FFFFFFFAC
:104D100080007800FFFFFFF8000000000FFFFFFF9A
:104D20000003A000FFFFFFF800FFFC0007FFFFFEED
:104D3000000C2000FFFFFFF800FFFC0000FFFFF861
:104D400000002000FFFFFFF800C30C00001FFF80E1
:104D500000002000FFFFFFF800C30C00000000006F
:104D600000002000FFFFFFF800C30C00000000005F
:104D7000000FFE00FFFFFFF800C30C000000000062
:104D800000003000FFFFFFF800C30C00000000002F
:104D900000002000FFFFFFF800C30C00000000002F
:104DA00000007000FFFFFFF800C30C0000000000CF
:104DB0000000AC00FFFFFFF800C00C000000000086
:104DC00000012200FFFFFFF8000000000000001FAC
:104DD00080002000FFFFFFF8000000007E000020A0
:104DE0004000FC80FFFFFFF800000000FF000040D3
:104DF00020012240FFFFFFF800FFFC01C3800040BC
:104E000020012240FFFFFFF800FFFC0181800040ED
:104E100020012240FFFFFFF800C300018180804095
:104E20002000A440FFFFFFF800C30001C3838020DF
:104E30004001FF80FFFFFFF800C30000FF0F001FCD
:104E400080002000FFFFFFF800C380007E3C0000D0
:104E500000002000FFFFFFF800C3E00000F00000AA
:104E600000002000FFFFFFF800E7700003C0007F94
:104E7000E0002000FFFFFFF8007E3C000F00004430
:104E800000000000FFFFFFF8003C1C003C7E0044D7
:104E900000000000FFFFFFF800000400F8FF0044DE
:104EA00000000000FFFFFFF800000001E1C38044A4
:104EB00000000000FFFFFFF800000001818180403A
:104EC00000000000FFFFFFF80000000001818000EB
:104ED00000000000FFFFFFF80000000001C3800099
:104EE00000000000FFFFFFF80000000000FF007F4F
:104EF000E0000000FFFFFFF800000000007E00441B
:104F000000000000FFFFFFF8000000000000004468
:104F100000000000FFFFFFF8000000000000004458
:104F200000000000FFFFFFF8000000000000004448
:104F300000000000FFFFFFF800000000000000403C
:104F400000000000FFFFFFF800000000000000006C
:104F500000000000FFFFFFF800000000000000005C
:104F600000000000FFFFFFF800000000000000004C
:104F700000000000FFFFFFF800000000000000003C
:104F800000000000FFFFFFF800000000000000002C
:104F900000000000FFFFFFF800000000000000001C
:104FA00000000000FFFFFFF800000000000000000C
:104FB00000000000FFFFFFF80000000000000000FC
:104FC00000000000FFFFFFF80000000000000000EC
:104FD00000000000FFFFFFFFFFFFFFFFFFFFFFFFDD
:104FE000FFFFFFFFFFFFFFFFFFFFFFFFFFFFFFFFD1
:104FF000FFFFFFFFFFFFFFFFFFFFFFFFFFFFFFFFC1
:10500000FFFFFFFFFFFFFFFFFFFFFFFFFFFFFFFFB0
:10501000FFFFFFFFFFFFFFFFFFFFFFFFFFFFFFFFA0
:10502000FFFFFFFFFFFFFFFFFFFFFFFFFFFFFFFF90
:10503000FFFFFFFFFFFFFFFFFFFFFFFFFFFFFFFF80
:10504000FFFFFFFFFFFFFFFFFFFFFFFFFFFFFFFF70
:10505000FFFFFFFFFFFFFFFFFFFFFFFFFFFFFFFF60
:10506000FFFFFFFFFFFFFFFFFFFFFFFFFFFFFFFF50
:10507000FFFFFFFFFFFFFFFFFFFFFFFFFFFFFFFF40
:10508000FFFFFFFFFFFFFFFFFFFFFFFFFFFFFFFF30
:10509000FFFFFFFFFFFFFFFFFFFFFFFFFFFFFFFF20
:1050A000FFE7FFFFFFFFFFFFFFFFFFFFFFFFFFFF28
:1050B000FFE0FFFFFFFFFFFFFFFFFFFFFFFFFFFF1F
:1050C000FFF83FFFFFFFFFFFFFFFFFFFFFFFFFFFB7
:1050D000FFFE3FFFFFFFFFFFFFFFFFFFFFFFFFFFA1
:1050E000FFF07FFFFFFFFFFFFFFFFFFFFFFFFFFF5F
:1050F000FFE3FFFFFFFFFFFFFFFFFFFFFFFFFFFFDC
:10510000FFF07FFFFFFFFFFFFFFFFFFFFFFFFFFF3E
:10511000FFFE3FFFFFFFFFFFFFFFFFFFFFFFFFFF60
:10512000FFF83FFFFFFFFFFFFFFFFFFFFFFFFFFF56
:10513000FFE0FFFFFFFFFFFFFFFFFFFFFFFFFFFF9E
:10514000FFE7FFFFFFFFFFFFFFFFFFFFFFFFFFFF87
:10515000FFE7FFFFFFFFFFFFFFFFFFFFFFFFFFFF77
:10516000FFE0FFFFFFFFFFFFFFFFFFFFFFFFFFFF6E
:10517000FFF83FFFFFFFFFFFFFFFFFFFFFFFFFFF06
:10518000FFFE3FFFFFFFFFFFFFFFFFFFFFFFFFFFF0
:10519000FFF07FFFFFFFFF80000000FFFFFFFFFF2A
:1051A000FFE3FFFFFFFFFFBFFEE7FEFFFFFFFFFF85
:1051B000FFF07FFFFFFFFFBFFEE7FE00007FFFFF66
:1051C000FFFE3FFFFFFFFFBF9EE7FE00007FFFFFE8
:1051D000FFF83FFFFFFFFFBF0EE7FEFFFC7FFFFF73
:1051E000FFE0FFFFFFFFFFBEF6E7FEFFE001FFFF6E
:1051F000FFE7FFFFFFFFFFBEF6E7FEFF83C0FFFFF5
:10520000FFE7FFFFFFFFFFBF9EE7FEFF1FFC7FFFE3
:10521000FFE0FFFFFFFFFFBFFEE7FEFE3FFE7FFF59
:10522000FFF83FFFFFFFFFBFFEE7FEFC7FFF3FFFF2
:10523000FFFE3FFFFFFFFFBFFEE7FEF8FFFF1FFF80
:10524000FFF07FFFFFFFFFBF9EE7FEF9FFFF9FFF1D
:10525000FFE3FFFFFFFFFFBF0EE7FEF9FC7F9FFFAD
:10526000FFF07FFFFFFFFFBEF6E7FEFBF83F9FFF6B
:10527000FFFE3FFFFFFFFFBEF6E7FEFBFB9FDFFFEA
:10528000FFF83FFFFFFFFFBEF6E7FEFBFB9FDFFFE0
:10529000FFE0FFFFFFFFFFBF0EE7FEFBFB9FDFFF0F
:1052A000FFE7FFFFFFFFFFBFFEE7FEFBF91FDFFF8A
:1052B000FFFFFFFFFFFFFFBFFEE7FEF9F83F9FFF85
:1052C000FFFF3FFFFFFFFFBFFEE7FEF8FFFF9FFF6F
:1052D000FFFF3FFFFFFFFFBF9EE7FEF8FFFF3FFF1F
:1052E000FFFFFFFFFFFFFFBF0EE7FEFCFFFF7FFF9B
:1052F000FFF06FFFFFFFFFBEF6E7FEFE3FFE7FFF02
:10530000FFE037FFFFFFFFBEF6E7FEFF0FF8FFFFEE
:10531000FFEFB7FFFF9FFFBEF6E7FEFF87F1FFFF3E
:10532000FFF777FFFF8FFFBF0EE7FEFFC387FFFF8B
:10533000FFE007FFFF83FFBFFEE7FEFFF83FFFFF31
:10534000FFE00FFFFF90FFBFFEE7FEFFFCFFFFFF48
:10535000FFFFFFFFFF987FBFFEE7FEFFFCFFFFFFA1
:10536000FFFFFFFFFF9F0FBFFEE7FEFFF007FFFFFE
:10537000FFF07FFFFF9F8000000000FFC3C3FFFF1F
:10538000FFE03FFFFF9FC000000000FFCFF1FFFFE5
:10539000FFEFBFFFFF9FFFFFFFFFFEFF8FF8FFFF45
:1053A000FFEFBFFFFF9FFFFFFFFFFEFCFFFF3FFF81
:1053B000FFE03FFFFF9FFFFFFFFFFEFCFFFF1FDF40
:1053C000FFF07FFFFF9FFFFFFFFFFEF9FFFF9FDF63
:1053D000FFFFFFFFFF98001FFFFFFEF9FC7F9FDF2D
:1053E000FFFFFFFFFF98001FFFFFFEF9FC3FDFC03C
:1053F0000FF07FFFFF98FFDFFFFFFEFBFB9FDFC08B
:105400000FE03FFFFF98FFDFFFFFFEFBFB9FDFDFAB
:10541000FFEFBFFFFF98FFDFFFFFFEFBFB9FDFDF1C
:10542000FFEFBFFFFF98FFDFFFFFFEFBFB9FDFDF0C
:10543000FFE03FFFFF98FFDFFFFFFEF9F83F9FFF10
:10544000FFF07FFFFF98FFDFFFFFFEF9FC7F9FFC6F
:105450001FFFFFFFFF98FFDFFFFFFEF9FFFF9FF831
:105460000FFFFFFFFF98FFDFFFFFFEF8FFFF3FFB8F
:10547000EFF07FFFFF98FFDFFFFFFEFC7FFF3FFBAA
:10548000EFE03FFFFF98001FFFFFFEFF0FF8FFF860
:105490000FEFBFFFFF98001FFFFFFEFF87F1FFFC2C
:1054A0001FF77FFFFF9FFFFFFFFFFEFFC3C7FFFF49
:1054B000FF003FFFFF9FFFFFFFFFFEFFF00FFFFF1B
:1054C000FF003FFFFF9FFFFFFFFFFEFFFCFFFFF915
:1054D000FDFFFFFFFF9FFFFFFFFFFEFFFCFFFFF849
:1054E0003DFEFFFFFF9FFFFFFFFFFEFFFCFFFFFEF4
:1054F00001FEFFFFFF800000000000FFFC7FFFFEB9
:1055000003FEFFFFFF800000000000FFE007FFF840
:105510003FFFFFFFFFFFFFDFFFFFFEFF8003FFF9FD
:10552000FFF07FFFFFFFFFDFCFCF8EFF0FF87FFF82
:10553000FFE03FFFFFFFFFDF87870EFF3FFC7FFBA2
:10554000FFEFBFFFFFFFFFDF333776FEFFFF3FE0D8
:105550000FF77FFFFFFFFE1F333776FC7FFF1FE053
:105560000F003FFFFFFFE05F87870EF8FFFF9FFB05
:10557000EF003FFFFFFFC1DFCFCF8EF9FC7FDFFFE2
:10558000FFFFFFFFFFFFC3DFFFFFFEFBFBBFDFFFF0
:10559000FFFFFFFFFFFF8FDFFFFFFEF9FBBFDFF81D
:1055A0000F203FFFFFFF8FDFFFFFFEF9FBBFDFF89C
:1055B0000F203FFFFFFF8FDFFFFFFEF9FBBFDFF98B
:1055C000FFFFFFFFFFFF8FDFFFFFFEF9F87FDFFB2D
:1055D000FFF37FFFFFFF8FDFFFFFFEF9FC7FDFFFA1
:1055E000FFE13FFFFFFF87DFFFFFFEF8FFFF9FFDAB
:1055F0009FE9BFFFFFFFC3DFFFFFFEF8FFFF9FF93B
:105600000FECBFFFFFFFC1DFFFFFFEFEFFFF1FFB31
:105610006FE43FFFF3FFE0DFFFFFFEFE7FFF3FFB96
:105620004FF67FFFF01FFC1FFFFFFEFF0FFCFFF890
:105630000FE007FFF01FFE1FFFFFFEFF0FF8FFFC4C
:105640000FE007FFF3E07FDFFFFFFEFFF00FFFFF3C
:10565000FFF77FFFF3FC0FDFFFFFFEFFFE7FFFFF83
:10566000FFEFBFFFF3FF81DFFFFFFEFFFE7FFFD8ED
:105670000FE03FFFF3FFC0DFFFFFFEFFFE7FFFD81D
:105680000FF07FFFF3FFFE1FFFFFFEFFFE7FFFFF18
:10569000FFFFFFFFF3FFFE1FFFFFFEFFFE7FFFFF89
:1056A000FFFFFFFFF3FFFFDFFFFFFEFFFE7FFFF8BF
:1056B0000F003FFFF3FFFFDFFFFFFEFFFE7FFFF85E
:1056C0000F003FFFF3FFFFDFFFFFFEFFFE7FFFF94D
:1056D000FFFFFFFFF3FFFFDFFFFFFEFFFC3FFFFBCE
:1056E000FFFFFFFFF3FFFFDFFFFFFEFFC003FFF839
:1056F0000FF67FFFF3FFFFDFFFFFFEFF87E1FFFCF9
:105700000FEC3FFFF3FFFFDFFFFFFEFF0FF8FFFF90
:10571000FFE9BFFFF3FFFFDFFFFFFEFF1FF8FFFF03
:10572000FFEBBFFFF3FFFF9FFFFFFEFCFFFF1FFF2D
:10573000FFE03FFFF3FFFE1FFFFFFEF8FFFF1FFF2D
:10574000FFF03FFFF3FFE01FFFFFFEF9F83F9FFF71
:10575000FFFFFFFFF3FF01DFFFFFFEF9F81FDFFF91
:10576000FFE7F7FFF3F80FDFFFFFFEF9FB9FDFFF17
:10577000FFE0F7FFF380FFDFFFFFFEF9F39FDFFF9E
:10578000FFF807FFF207FFDFFFFFFEF9F39FDFFFE0
:10579000FFFF07FFF01FFFDFFFFFFEF9FB9FDFFFAB
:1057A000FFF81FFFF07FFFDFFFFFFEF9FB9FDFFF2A
:1057B000FFE0FFFFFFFFFFDFFFFFFEF9FC7FDFFFE2
:1057C000FFE7FFFFFFFFFFDFFFFFFEF8FFFF9FFF89
:1057D000FFFF3FFFFFFFFFDFFFFFFEFCFFFF9FFF1D
:1057E000FFFF3FFFFFFFFFDFFFFFFEFC7FFF3FFFED
:1057F000FFFFFFFFFFFFFFDFFFFFFEFE7FFF7FFFDB
:10580000FFFFFFFFFFFFF01FFC0FFEFF87F1FFFF11
:10581000FFF07FFFFFFFF01FF000FEFFE003FFFF40
:10582000FFE03FFFFFFFF7DFC000FE7FF807FFFF4D
:10583000FFEFBFFFFFFFF7DF03F83E7FFE7FFFFFB5
:10584000FFEFBFFFFFFFF7DE3FFF0E1FFE7FFFFFF3
:10585000FFE73FFFFFFFF7DE7FFF8E8FFE7FFFFF3B
:10586000FFF77FFFFFFFF7DC7FFFCE87FE7FFFFFA5
:10587000FFFFFFFFFFFFF7D9FFFFEEE3FE7FFFFF14
:10588000FFF07FFFFFFFF019FFFFF6F1FE7FFFFF44
:10589000FFE03FFFFFFFF000000002F8FE7FFFFF88
:1058A000FFEFBFFFFFFFF7DFFFFFFFFC7E7FFFFF84
:1058B000FFEFBFFFFFFFF7DFFFFFFFFE3E7FFFFFB2
:1058C000FFE03FFFFFFFF7DFFFFFFFFF1E7FFFFF50
:1058D000FFF07FFFFFFFF01FFFFFFFFF0E7FFFFFC7
:1058E000FFFFFFFFFFFFFFFFFFFFFFFFE67FFFFF61
:1058F000FFFFFFFFFFFFFFFFFFFFFFFFF27FFFFF45
:10590000FFE03FFFFFFFFFFFFFFFFFFFF87FFFFF0D
:10591000FFE03FFFFFFFFFFFFFFFFFFFF87FFFFFFD
:10592000FFF7FFFFFFFFFFFFFFFFFFFFFC7FFFFF12
:10593000FFEFFFFFFFFFFFFFFFFFFFFFFE7FFFFF08
:10594000FFE03FFFFFFFFFFFFFFFFFFFFFFFFFFF46
:10595000FFE03FFFFFFFFFFFFFFFFFFFFFFFFFFF36
:10596000FFF7FFFFFFFFFFFFFFFFFFFFFFFFFFFF4F
:10597000FFEFFFFFFFFFFFFFFFFFFFFFFFFFFFFF47
:10598000FFE03FFFFFFFFFFFFFFFFFFFFFFFFFFF06
:10599000FFF03FFFFFFFFFFFFFFFFFFFFFFFFFFFE6
:1059A000FFFFFFFFFFFFFFFFFFFFFFFFFFFFFFFF07
:1059B000FFFFFFFFFFFFFFFFFFFFFFFFFFFFF00005
:1059C0000007FFFFFFFFFFFFFFFFFFFFFFFFF000EC
:1059D0000007FFFFFFFFFFFFFFFFFFFFFFFFF000DC
:1059E0000007FFFFFFFFFFFFFFFFFFFFFFFFF000CC
:1059F0000007FFFFFFFFFFFFFFFFFFFFFFFFFFFFAE
:105A0000FFFFFFFFFFFFFFFFFFFFFFFFFFFFF000B4
:105A10000007FFFFFFFFFFFFFFFFFFFFFFFFFFFF8D
:105A2000FFFFFFFFFFFFFFFFFFFFFFFFFFFFFFFF86
:105A3000FFFFFFFFFFFFFFFFFFFFFFFFFFFFF00084
:105A40000007FFFFFFFFFFFFFFFFFFFFFFFFF0006B
:105A50000007FFFF0000000000000000007FF000D2
:105A60000007FFFF0000000000000000007FF000C2
:105A70000007FFFF0000000000000000007FFFFFA4
:105A8000FFFFFFFF0000000000000000007FFFFF9D
:105A9000FFFFFFFF0000000000000000007FF0009B
:105AA0000007FFFF0000000000000000007FF00082
:105AB0000007FFFF0000000000000000007FFFFF64
:105AC000FFFFFFFF0000000000000000007FF0006B
:105AD0000007FFFF0000000000000000007FFFFF44
