:020000040800F2
:10000000C8520020350300083D0300083F030008E4
:1000100041030008430300084503000800000000F6
:10002000000000000000000000000000470300087E
:1000300049030008000000004B0300084D030008BE
:100040004F0300084F0300084F0300084F03000848
:100050004F0300084F0300084F0300084F03000838
:100060004F0300084F0300084F0300084F03000828
:100070004F0300084F0300084F0300084F03000818
:100080004F0300084F0300084F0300080000000062
:100090000000000000000000000000004F03000806
:1000A0004F0300084F0300084F0300084F030008E8
:1000B000D12300084F0300084F0300084F03000836
:1000C0004F0300084F0300084F0300084F030008C8
:1000D0004F0300084F0300084F0300080000000012
:1000E0004F0300084F0300084F0300080000000002
:1000F0000000000000000000000000004F030008A6
:10010000000000004F0300084F0300084F030008E1
:1001100000000000000000000000000000000000DF
:100120004F0300084F0300084F0300084F03000867
:100130004F03000800000000000000000000000065
:100140000000000000000000000000004F03000855
:100150004F0300084F0300084F0300084F03000837
:100160004F0300084F0300080000000000000000DB
:10017000000000000000000000000000000000007F
:10018000000000004F030008000000000000000015
:100190004F0300084F03000800F002F800F0BBF81E
:1001A0000AA090E8000C82448344AAF10107DA45D2
:1001B00001D100F0B0F8AFF2090EBAE80F0013F069
:1001C000010F18BFFB1A43F001031847409D0000C0
:1001D000609D00000A444FF0000C10F8013B13F042
:1001E000070408BF10F8014B1D1108BF10F8015B90
:1001F000641E05D010F8016B641E01F8016BF9D183
:1002000013F0080F1EBF10F8014BAD1C0C1B09D1D9
:100210006D1E58BF01F801CBFAD505E014F8016B4B
:1002200001F8016B6D1EF9D59142D6D370470000DD
:100230000023002400250026103A28BF78C1FBD8EF
:10024000520728BF30C148BF0B6070476E2900F0CD
:100250001382702900F05583662908F09F8765296D
:1002600008F09C87672908F09987612908F098872A
:1002700003681B0A28BF41F08001692900F0C08192
:10028000642900F0BD81752900F0BA816F2900F062
:10029000E382782900F02183E92900F07D82E429B6
:1002A00000F07A82F52900F07782EF2900F0E082F1
:1002B000F82900F020830368DB0928BF41F08001A2
:1002C000632901F09F80732901F0A480E32901F0E4
:1002D000AF80F32901F0B480002070471FB508F00B
:1002E00050FF9DE8030000F023FC01F02BF904000F
:1002F0000020002108F06AFD401C60600020002101
:1003000008F04EFDE06000F0B1F81FBD10B5002010
:1003100001F0BEF810BD01F0E8F81146FFF7DEFF6E
:1003200008F0FCF801F0DEF903B4FFF7EFFF03BCBF
:1003300000F0D8FB0948804709480047FEE7FEE780
:10034000FEE7FEE7FEE7FEE7FEE7FEE7FEE7FEE785
:1003500004480549054A064B70470000BD230008C4
:1003600099010008C8320020C8520020C84200206D
:10037000C842002070B5A0FB0140B4F1805170F17B
:10038000000024BF002070BD204600F081F8050069
:100390001CBF214600F01DF8284670BD0FB41CB5E7
:1003A000084B06AA7B4469460090059800F07DF949
:1003B00004460020694600F08BF920461CBC5DF81D
:1003C00014FB0000290300000B460146184600F00C
:1003D00072BB4FF000020429C0F0128010F0030C31
:1003E00000F01B80CCF1040CBCF1020F18BF00F828
:1003F000012BA8BF20F8022BA1EB0C0100F00DB8D7
:100400005FEAC17C24BF00F8012B00F8012B48BF34
:1004100000F8012B70474FF0000200B513469446D8
:100420009646203922BFA0E80C50A0E80C50B1F14C
:100430002001BFF4F7AF090728BFA0E80C5048BF60
:100440000CC05DF804EB890028BF40F8042B08BFFE
:10045000704748BF20F8022B11F0804F18BF00F8FA
:10046000012B7047704770477047000070B5064C0D
:100470007C44064D7D4404E02046016808448047E2
:10048000241DAC42F8D170BDE49B0000E49B000049
:1004900070B5064600F02CFB056806F10B0020F055
:1004A0000704B4429CBF002070BD2B466A68BAB1F5
:1004B0001068A04210D304F1080188423CBF506884
:1004C000586007D35168101941601168091B016019
:1004D00058601460101D70BD13465268002AE7D1A1
:1004E0002146284600F010FB0028DED170BD70B513
:1004F0000446051F00F0FCFA0068002C14BF446895
:1005000070BD002C18BFAC423CBF20466468F8D3D5
:1005100001680A18AA4218BF456003D12A68054637
:100520001144016028684119A1421CBF6C6070BD74
:100530006168696021680844286070BD70B5044630
:1005400085690068C10601D5302600E02026C00775
:1005500007D070BDD4E9012130469047206A401C85
:1005600020626D1EF6D570BD70B5044685690078B1
:10057000C00707D170BDD4E9012120209047206A2F
:10058000401C20626D1EF6D570BD09684A0501D574
:1005900040B27047C905FCD500B2704709684A05EA
:1005A00001D5C0B27047C905FCD580B2704770B59F
:1005B0000C460546012A05D02878800600D5EA6950
:1005C000002302E0012305E05B1C934202D2E05CC1
:1005D0000028F9D1A869E618C01AA861286A184449
:1005E00028622846FFF7AAFF04E0D5E9012114F8A4
:1005F000010B9047B442F8D32846FFF7B5FF70BD12
:100600002DE9F0410646002410687529314616A5EB
:1006100010D0FFF7BAFF002802DA404213A507E026
:1006200031688A0701D512A502E0490704D511A552
:10063000012401E0FFF7B2FF00210A2206F124079E
:1006400009E0B0FBF2FCB0FBF2F302FB1C0030301F
:1006500078541846491C0028F3D123462A463046D0
:10066000BDE8F04100F0DFBA000000002D000000FE
:100670002B0000002000000011680268006A53058A
:1006800001D508700AE0D30501D5088006E01306FD
:1006900003D5C217C1E9000200E0086001207047DD
:1006A00001694A1C02610878704700B58FB0CDE936
:1006B00001310021059105497944CDE90310114626
:1006C000684600F029F90FB000BD0000E5FFFFFF0C
:1006D0000A6802F8010B0A60704700002DE9FF5F0D
:1006E00015468A460446DFF8AC80F8440027D8E96E
:1006F00000103E46CDE9001010E03AF816106A46A8
:1007000002A800F0A1FE411C07D02178890603D57C
:10071000E269391891420DD80744761C207880068A
:1007200002D5E069B84205DDAE42E6DB3AF81600D4
:100730000028E2D1A069C01BA0612046FFF7FEFEA1
:10074000D8E90010CDE90010002017E03AF81810A1
:100750006A4602A800F078FEB0F1FF3F81460BD058
:1007600000250DF1080B05E0D4E901211BF8050077
:1007700090476D1C4D45F7D308F10100B04280460B
:10078000E4DB206A384420622046FFF7EDFEBDE836
:10079000FF9F0000B68A00002DE9F0418046D21D7F
:1007A00022F007020025D2E90002F52915A614D08F
:1007B000011E72F1000106DA0023D0EB030063EBA7
:1007C000020211A608E0D8F800108B0701D50FA689
:1007D00002E0490701D50EA601251146002408F1C3
:1007E000240704E000F0DAF930323A55641C50EA8C
:1007F0000102F7D12B46324621464046BDE8F04182
:1008000000F011BA000000002D0000002B000000D5
:100810002000000030B4002100F1240408E002F0C0
:100820000705D208303542EA4372DB086554491C9B
:1008300052EA0305F3D10468002310A2250708D566
:1008400004F020040C4304D0C46901230CA2641EEC
:10085000C46130BC00F0E7B910B504462146106809
:10086000FFF79CFE02462046BDE810400023D1E77A
:10087000D21D22F00701D1E90023CBE700000000E0
:1008800030000000F0B40D460188090502D5214C66
:100890007C4402E01F4C7C440E34002100F124060D
:1008A00008E002F00F071209E75D42EA03721B0934
:1008B0007754491C52EA0307F3D102780023120748
:1008C00004D5702D06D009B1022311342246F0BCA4
:1008D00000F0A9B901231034F8E770B504460D46BD
:1008E00021461068FFF75AFE024629462046BDE819
:1008F00070400023C6E7D21D22F00703D3E900238E
:10090000C0E70368126843F0200303600823C36153
:100910000023B7E7188900002DE9F05F89460446F7
:100920004FF0000ADFF874B1FB44C0F820A0204665
:10093000E1688847002874D0252806D0D4E9012131
:100940009047206A401C2062F1E700265F4620465F
:10095000E16888472028054607DB312D05D2781944
:1009600010F8200C08B10643F1E7B00701D526F0D6
:100970000406C4F81CA00027C4F818A02A2D09D02A
:10098000284608F005FA38B304EB8708303DC8F86C
:10099000185019E059F8041B204604EB87029161B6
:1009A000E1688847012F054618D1E069002820DA60
:1009B00026F020061DE0D8F8180000EB800005EBBB
:1009C00040003038C8F818002046E16888470546DE
:1009D00008F0DEF90028EED1012F0AD02E2D08D123
:1009E0002046E16888477F1C0546022F46F0200616
:1009F000C4DBA069002803DA404246F00106A0618A
:100A0000F00701D026F010066C2D0BD0682D09D010
:100A10004C2D39D06A2D35D0742D35D07A2D33D068
:100A200016E038E0E1682F4620468847B842054680
:100A300009D16C2F26D04FF48060E1680643204630
:100A40008847054604E06C2F1AD04FF480700643A7
:100A50000DB3A5F14100192802D8203546F40066EF
:100A60004A462946204626604E46FFF7EFFB80B1F6
:100A700001280BD0F61D26F0070000F1080956E703
:100A80004020E4E78020D8E70020D6E706F10409FB
:100A90004DE7284652E7206ABDE8F09FA88800008D
:100AA00010B5002000F015FDFFF730FCBDE8104048
:100AB000012000F017B82DE9F041074615460E4613
:100AC0001020FFF7E5FC04000AD06760C4E9026566
:100AD00000F012F80168216004600020BDE8F08198
:100AE0000120FBE701491820ABBEFEE7260002000B
:100AF00000487047A806002000487047D80600202C
:100B0000704770477047704738B504460A46002062
:100B10006946AFF30080002808BF38BD024600993F
:100B2000204600F013FD012038BD012000F000BE7A
:100B3000F8B5AFF30080054600200C46102000BF3A
:100B40000646A819A0420DD9324669460020AFF3E7
:100B50000080070008BF00F0EBFD0098A04218BF1E
:100B60000546C419FFF7C4FF05600746F01D20F0D5
:100B700007004619284600F00AF8B44208BFF8BD3D
:100B8000A21B31463868BDE8F84000F0DFBC002108
:100B90000160C0E9011070471020704730B5B0F116
:100BA0000A0271F100034FEA900E4EEA817EB0EB2B
:100BB0000E0061EB91014FEA101E4EEA017E10EB30
:100BC0000E0041EB11114FEA102E4EEA016E10EBB0
:100BD0000E0041EB11214FEA104E4EEA014E10EB90
:100BE0000E0041EB1141401841F100014FEAD000E5
:100BF00040EA41704FEAD1014FEA810444EA90741F
:100C000010EB800544EB01046D1944EB0404521B06
:100C1000A3414FF0000348BF0A3200D530BD401C4D
:100C200041F1000130BD2DE9F0470D46994692464D
:100C3000044600F124080168880604D5E06921F023
:100C40001001216000E00120A84201DD471B00E007
:100C50000027A1697A1902EB0900081AA06120781F
:100C6000C00602D42046FFF769FC002608E0D4E95C
:100C700001211AF806009047206A401C761C206269
:100C80004E45F4DB2078C0060AD52046FFF756FC17
:100C900006E0D4E9012130209047206A401C206200
:100CA000381EA7F10107F4DC07E0D4E9012118F8A8
:100CB00005009047206A401C2062281EA5F101050E
:100CC000F3DC2046FFF750FC2078000602D5022016
:100CD000BDE8F0870120FBE72DE9FF4F0C461E46DB
:100CE0004FF0FF378BB0D2E90001DDF860800A9049
:100CF0008A46C1F30A5505B93D46002108464FF022
:100D00000000BAF1000F00F4400005DA00EB8000AB
:100D10004FF4400101EA50004FEA9059B9F1010F38
:100D200000DDB9460A9850EA4A000ED044F6105049
:100D3000A5F2FF3545432F14B8F1000F1ED07542C0
:100D4000291E1EDDC9F100021CE0B8F1010F4FF0B1
:100D5000000001D0302103E0F24305E02154401CA3
:100D6000B042FBDB30460022002121540B99C1F830
:100D70000880C1E900200FB0BDE8F08FBD1B6D1CDD
:100D8000DEE74A4600DA694206A800F039FC06AB05
:100D900093E8070003AB83E8070050460A9907F081
:100DA00017FC8DE80700A0F500501F38009003984D
:100DB000002D0ADD42F21F014A460844002303A920
:100DC0000390684607F080FE09E0A0F500504A460F
:100DD0001F38002303A90390684607F08AFE8DE8B8
:100DE00007000004000C03D04FF0FF30410800E082
:100DF0001046B8F1000F03D00022009215461EE005
:100E0000751E05D4FFF7CAFE303262556D1EF9D546
:100E1000B3460122084302D000227F1C04E0207860
:100E2000302801D100227F1E002A099784D01DE0BE
:100E3000112D07DAFFF7B2FE303262556D1C50EA11
:100E40000102F5D1084302D00098C8B10EE000219C
:100E5000681E05E0235C625C63542254401E491CFA
:100E60008142F7DBAB46A81B401E0990002004F826
:100E70000B000B98099AC0F80880C0E9002B7AE7AC
:100E800011264FF0000857E72DE9F04F8846044639
:100E9000D21D22F0070191B0D1E90001CDE90A018C
:100EA00007F05EFF02460B98C00F01D02D2007E02F
:100EB0002068810701D52B2002E0202101EAC00033
:100EC000032A099001D0072A05DB03464146204644
:100ED00000F056FB0BE12078800601D5E06900E0C8
:100EE0000620B8F1650F814606D0B8F1660F18D01C
:100EF000B8F1670F70D131E00020B9F1110F009007
:100F000001DB112301E009F101030AAA01A90CA8E0
:100F1000FFF7E2FEDDE90C70002609F101058346CA
:100F200047E001204B4600904FF000470AAA01A974
:100F30000CA8FFF7D1FEDDE90DB00C995D46002647
:100F400010B909F101000D18B9EB050003D4C0F187
:100F5000FF3609F10105A5EB09002BE0B9F1010FFE
:100F600001DA4FF001090020B9F1110F0090484655
:100F700001DD112300E003460AAA01A90CA8FFF72E
:100F8000ABFEDDE90C704D46002683462078000755
:100F90000AD4AB4500DA5D4601A8012D04DD4119F4
:100FA00011F8011C302907D04F4502DA17F1040F60
:100FB00004DA012082460FE06D1EEEE7002F02DC0E
:100FC000ED1B3E4403E0781CA84200DD7D1CB81BED
:100FD00000F1010A4FF000472078000703D4AA452A
:100FE00001DB4FF0FF3A0021B7F1004F0DF143084C
:100FF0008DF8431024D002202B23002F01DA7F42EA
:101000002D230A21021EA0F1010000DC5FB197FB35
:10101000F1FC97FBF1F201FB1C7C17460CF1300C44
:1010200008F801CDEEE7A8F1010003702188090559
:1010300001D5452100E06521A0F1010800F8011C5F
:1010400009980FA9A1EB0807FF1D00B10120411964
:1010500001EBEA70A1693844081A401EA0612078AB
:10106000C00602D42046FFF769FA099828B1D4E9EE
:1010700001219047206A401C20622078C00622D5BA
:101080002046FFF75BFA1EE0002E04DBB34502DDCD
:1010900001A8805D00E03020D4E901219047206A5A
:1010A000401C2062761CAAF101005FEA000A0AD106
:1010B00000F048FAC0680168405CD4E9012190471B
:1010C000206A401C2062281EA5F10105DCDC07E037
:1010D000D4E9012118F8010B9047206A401C2062D6
:1010E000381EA7F10107F3DC2046FFF73DFA032085
:1010F00011B041E62DE9F04F04460D46D21D22F015
:10110000070089B0D0E900974846394607F028FE25
:101110000246F80F01D02D2307E02068810701D592
:101120002B2302E0202101EAC0038DF820300BB10F
:10113000012000E00020032A824601D0072A04DBB8
:101140002946204600F01CFA3FE12078800601D4B1
:101150000D2500E0E569C7F30A560D2D49DA002197
:101160004FEA175B08464FF00000002F00F44000E4
:1011700007DA00EB80004FF4400100EBD07001EA89
:1011800060008115012901DD4FF0FF3100224FEA97
:10119000850CBCF1180F06D31346ACF118004FF0C4
:1011A0008052C24003E04FF4801323FA0CF30CF199
:1011B0000C0CBCF1200F04D3ACF1200C09FA0CF09C
:1011C00001E007FA0CF000294FF0004801DD18B9E2
:1011D0000FE00ED140450CD319EB02095F4121B954
:1011E000404502D19F4329EA0209BBEB175F00D0BB
:1011F000761C2088000502D57B48784402E07A48B6
:101200007844193808AA302302F80A30037C0AF11E
:101210000101002E0AF1020A53546A4602DC4FF023
:10122000300101E04FF031014FF001088DF800105E
:1012300002D0A6F2FF3603E059EA470100D06B4E18
:10124000002D02DC2178090704D54FF002082E2179
:101250008DF80110C44600210BE0C7F303433F01A2
:10126000C35C491C6D1E02F80830052908F101080D
:1012700001DA002DF1DC00210CE000EB1973491CB0
:101280001B786D1E082902F808304FEA091908F189
:10129000010801DA002DF0DC21688B0602D516E08A
:1012A000A8F10108E04505DD02EB080313F8013C55
:1012B000302BF5D0B8F1000F09DD02EB080313F86D
:1012C000013C2E2B03D1090701D4A8F10108002D00
:1012D00005DD3E2102F808106D1E08F10108407C72
:1012E000002E02F8080008F1010804DA2D207642E9
:1012F00002F8080002E02B2002F808000A214FF44F
:101300007A70864208F101080BDB96FBF0F330336C
:1013100002F8083096FBF0F308F1010800FB1366B1
:1013200001E0642E0CDB642096FBF0F3303302F80E
:10133000083096FBF0F308F1010800FB136601E0AA
:101340000A2E06DB96FBF1F0303002F8080008F1B7
:10135000010896FBF1F001FB1060303002F8080044
:10136000A16908F1010808EB050202EB0A00081A5E
:10137000A0612078C00602D42046FFF7DFF8216A7A
:1013800008AE01EB0A00206204E0D4E9012116F85E
:10139000010B9047BAF1010AF7D22078C00602D5B6
:1013A0002046FFF7CBF86E4609E016F8010B3E2801
:1013B0000FD0D4E901219047206A401C2062B8F187
:1013C0000108F2D22046FFF7CFF809B00320BDE8AC
:1013D000F08F206A2844206203E0D4E90121302004
:1013E00090476D1EEBD3F8E7FA7F000002FCFFFF89
:1013F00010B5436913B1AFF3008001E0FFF7D7F8F0
:10140000012010BD127800F124010A7000224A70F8
:101410000122EDE711684FF0FF32E9E710B54369AB
:1014200013B1AFF3008001E0FFF758F9012010BDC0
:10143000128800F1240182840022C2840122EDE797
:1014400011684FF0FF32E9E72DE9F04116460C46EE
:10145000054600F06FF8036893F80101012807D0F2
:10146000FF2C12D8185D80B101202C70BDE8F081EE
:10147000D3F807013246214603F20713C71828465E
:10148000BC46BDE8F041002360474FF0FF30EDE778
:101490002DE9F0410646FFF72FFB8046454613E055
:1014A00016B1E068B0420ED120682860D4E901018D
:1014B000D8F8007088472046FFF719F8D8F80000E0
:1014C000B842EBD100E025462C68002CE8D1BDE8FD
:1014D000F08110B500F014F9BDE8104000F00BB930
:1014E00000487047A006002070477546FFF7F8FFD8
:1014F000AE4605006946534620F00700854618B001
:1015000020B5FEF725FFBDE820404FF000064FF064
:1015100000074FF000084FF0000BAC46ACE8C009E4
:10152000ACE8C009ACE8C009ACE8C00921F007018B
:101530008D46704710B500F005F8001D10BD00BFC6
:101540008D78000000487047C006002003464068C0
:101550008C46002818BF88423CBF03464068F8D339
:1015600018681844884207D00CF1030020F00700E7
:10157000001D411A521A0146081D0A60FEF7B7BF46
:101580002DE9F0411F46044603260168072A01F4AD
:10159000006004DB08B116A505E016A503E008B15C
:1015A00015A500E015A521F010002060A069C01E5F
:1015B000A0610FB1401EA0612046FEF7BFFF4FB1F2
:1015C000D4E9012138469047206A401C2062C01CA3
:1015D000206206E0206AFAE7D4E9012115F8010B40
:1015E0009047761EF8D22046FEF7BEFFBDE8F08198
:1015F0004E414E006E616E00494E4600696E6600B7
:101600002DE9F047814616468AB0354878440DC822
:101610008DE80D0032487844801C03AC0DC884E886
:101620000D0041F69B300844372190FBF1F290FB0E
:10163000F1F5A5F1800501FB12041B3C02D56442C3
:10164000012000E00020DFF898A080460027FA443F
:10165000AAF1BE0A0EE0E0070AD03246684607EB60
:10166000470101230AEB810107F043FA8DE80700E7
:1016700064107F1C002CEED1194F7F44AE3F19E05F
:10168000E80715D007EB04100DF1180A90E80E00DA
:101690008AE80E00C068F04201D1981908903246DD
:1016A000012306A903A807F024FA03AB83E8070087
:1016B0006D10641C002DE3D14FF0010332466946E2
:1016C000B8F1000F03A802D007F0FEF901E007F01F
:1016D00010FAC9E90001C9F808200AB0BDE8F0878E
:1016E000787C000010B50446AFF300802046BDE8CA
:1016F0001040FEF719BE002801D0FFF7F3B970477C
:1017000010B5002102A000F01AF8012010BD000061
:10171000534947414252543A2041626E6F726D61A3
:101720006C207465726D696E6174696F6E00000083
:1017300010B500F01DF8BDE81040FFF7DCBF70B534
:1017400005460C460A2000E06D1C00F077F835B124
:1017500028780028F8D102E0641C00F06FF814B17A
:1017600020780028F8D1BDE870400A2000F066B863
:1017700010B5012805D0002103A0FFF7E0FF0120EC
:1017800010BD09A1F8E7000053494752544D454D9B
:101790003A204F7574206F662068656170206D6512
:1017A0006D6F7279000000003A2048656170206D0D
:1017B000656D6F727920636F727275707465640005
:1017C00030B44FF0013C50F8042B51F8043BCCFAF4
:1017D00052F4D51A20D1FCB950F8042B51F8043B2F
:1017E000CCFA52F4D51A17D1B4B950F8042B51F8E9
:1017F000043BCCFA52F4D51A0ED16CB950F8042B34
:1018000051F8043BCCFA52F4D51A05D1002CDAD0A9
:1018100030BC4FF00000704729BAB1FA81F111F0E5
:101820001801D1F120008440F2D1CA40CB4012F01F
:10183000FF0213F0FF0330BCD01A704708B56946A9
:101840008DF800000320ABBE08BD000080B543F654
:101850000041C4F20201086840F4007008600868A2
:1018600040F480600860032000F05CF80F2000F076
:1018700005F800F03BF8002080BD000080B582B084
:10188000009040F20000C2F20000006840F2946153
:10189000C2F200010A784FF47A71B1FBF2F1B0FBA9
:1018A000F1F000F047F820B1FFE701208DF80700C4
:1018B00018E000980F280DD8FFE700994FF0FF308F
:1018C000002200F015F8009840F29861C2F2000181
:1018D000086003E001208DF8070003E000208DF888
:1018E0000700FFE79DF8070002B080BD70470000C9
:1018F00080B586B08DF81700049103920020029005
:1019000006F082F902909DF917000190029804995F
:10191000039A00F0AFFB0146019806F07DF906B08E
:1019200080BD000080B582B00190019806F096F964
:1019300002B080BD80B582B00190019800F07CFCBF
:1019400002B080BD80B588B0039002910020019064
:1019500000900298006890FAA0F00690069820B9CE
:10196000FFE720208DF81F0005E00698B0FA80F010
:101970008DF81F00FFE79DF81F000190FFE7029818
:1019800000680199C84000285DD0FFE70298006810
:10199000019A0121914008400090009800284ED003
:1019A000FFE702984068012805D0FFE702984068E9
:1019B00002280DD1FFE703980099029A926800F07F
:1019C0004FF903980099029AD26800F0FBF8FFE7FC
:1019D00003980099029A126900F004F9029840688D
:1019E000022825D1FFE7009890FAA0F0049004980F
:1019F00020B9FFE720208DF8170005E00498B0FA21
:101A000080F08DF81700FFE79DF81700072807D82A
:101A1000FFE703980099029A526900F017F806E070
:101A200003980099029A526900F04EF8FFE7FFE729
:101A300003980099029A526800F086F8FFE701982F
:101A4000013001909BE7002008B080BD8AB005906E
:101A5000049103920598006A0290049890FAA0F00D
:101A60000890089820B9FFE720208DF8270005E0AE
:101A70000898B0FA80F08DF82700FFE702989DF8EB
:101A800027108A000F21914088430090039801900D
:101A9000049890FAA0F00690069820B9FFE720205D
:101AA0008DF81F0005E00698B0FA80F08DF81F0051
:101AB000FFE7009801999DF81F209200914008438C
:101AC000059908620AB070478AB0059004910392A4
:101AD0000598406A02900498000A90FAA0F00890D5
:101AE000089820B9FFE720208DF8270005E0089826
:101AF000B0FA80F08DF82700FFE702989DF82710D4
:101B00008A000F2191408843009003980190049827
:101B1000000A90FAA0F00690069820B9FFE720206E
:101B20008DF81F0005E00698B0FA80F08DF81F00D0
:101B3000FFE7009801999DF81F209200914008430B
:101B4000059948620AB070478AB0059004910392E3
:101B5000059800680290049890FAA0F00890089800
:101B600020B9FFE720208DF8270005E00898B0FA9B
:101B700080F08DF82700FFE702989DF827104A00B3
:101B8000032191408843009003980190049890FAB3
:101B9000A0F00690069820B9FFE720208DF81F00DE
:101BA00005E00698B0FA80F08DF81F00FFE7009876
:101BB00001999DF81F205200914008430599086043
:101BC0000AB0704783B00290019100920298406879
:101BD00001998843009A514308430299486003B031
:101BE000704700008AB00590049103920598C06880
:101BF0000290049890FAA0F00890089820B9FFE7A6
:101C000020208DF8270005E00898B0FA80F08DF8C4
:101C10002700FFE702989DF827104A000321914012
:101C20008843009003980190049890FAA0F00690E1
:101C3000069820B9FFE720208DF81F0005E00698E0
:101C4000B0FA80F08DF81F00FFE7009801999DF829
:101C50001F205200914008430599C8600AB07047A0
:101C60008AB00590049103920598806802900498C8
:101C700090FAA0F00890089820B9FFE720208DF88E
:101C8000270005E00898B0FA80F08DF82700FFE7FC
:101C900002989DF827104A00032191408843009044
:101CA00003980190049890FAA0F00690069820B945
:101CB000FFE720208DF81F0005E00698B0FA80F0BD
:101CC0008DF81F00FFE7009801999DF81F20520032
:101CD00091400843059988600AB0704780B582B08A
:101CE000019001984FF47A7100F002F802B080BDC3
:101CF00082B00190009101980099B0FBF1F0013899
:101D00004EF21401CEF2000108604EF21801CEF23C
:101D10000001002008604EF21001CEF20001052003
:101D2000086002B07047000043F60800C4F20200E9
:101D3000006800F0F000704743F60800C4F20200AB
:101D4000006800F4E050704743F60800C4F2020057
:101D5000006800F46040704743F60800C4F20200D7
:101D6000006800F00C00704780B582B0019000F070
:101D7000EFF9019908600198006800F0B1F9019944
:101D800048600198406800F0BFF9019988600198A7
:101D9000406800F0CBF90199C86002B080BD000036
:101DA00043F60400C4F20200006800F03F007047F0
:101DB00043F60400C4F20200006800F4800070479B
:101DC00043F60400C4F202000068C0F388107047B4
:101DD00043F60400C4F20200006800F4403070478B
:101DE00080B584B00390029101208DF8070003981C
:101DF00000F044F8C0BBFFE7039800684FF6BF71DE
:101E00008843029A00921168D2F804E0D2F808C020
:101E1000D36841EA0E0141EA0C01194313691943E1
:101E20005369194393691943D3691943126A1143DA
:101E30000843039908600398406820F00400029961
:101E4000C98A0843039948600298006AB0F5005FA8
:101E500006D1FFE703980299496A00F017F8FFE7F7
:101E600000208DF80700FFE70399C86920F400609F
:101E7000C8619DF8070004B080BD000081B00090EB
:101E800000980068C0F3801001B0704782B00190E4
:101E90000091BDF800000199086102B07047000090
:101EA00081B00090009840F20001C2F20001086089
:101EB00001B0704781B000900099486940F001007E
:101EC000486101B07047000080B584B00390029172
:101ED00003980068019003980021C4F20101884230
:101EE0001DD0FFE70398B0F1804F18D0FFE70398AB
:101EF00040F20041C4F20001884210D0FFE703988D
:101F000040F60001C4F20001884208D0FFE70398C0
:101F100040F60041C4F20001884208D1FFE7019871
:101F200020F070000299496808430190FFE7039888
:101F30000021C4F20101884235D0FFE70398B0F1D7
:101F4000804F30D0FFE7039840F20041C4F2000117
:101F5000884228D0FFE7039840F60001C4F2000150
:101F6000884220D0FFE7039840F60041C4F2000108
:101F7000884218D0FFE7039844F20001C4F201013F
:101F8000884210D0FFE7039844F20041C4F20101F7
:101F9000884208D0FFE7039844F60001C4F201012B
:101FA000884208D1FFE7019820F440700299C9687F
:101FB00008430190FFE7019803990860039802998C
:101FC000896800F019F803980299098800F01CF854
:101FD00003980021C4F20101884206D1FFE703986B
:101FE0000299096900F018F8FFE70398FFF762FF0C
:101FF000002004B080BD000082B0019000910098E4
:102000000199C86202B0704782B0019000910098B7
:102010000199886202B0704782B0019000910098E7
:102020000199086302B0704782B001904EF210002F
:10203000CEF200000068009000980198013020B1B5
:10204000FFE7019801300190FFE7FFE7019870B1C9
:10205000FFE74EF21000CEF200000068C003002837
:1020600004D5FFE7019801380190FFE7EEE702B0E1
:102070007047000088B0079006910592079800F01D
:10208000070004900498C0F10700052803D3FFE778
:102090000420019004E00498C0F107000190FFE7DC
:1020A0000198039004980430062803D8FFE7002025
:1020B000009003E0049803380090FFE70098029036
:1020C00006980399012202FA01F101390840029BA6
:1020D000984005999A40013A1140084308B070476A
:1020E00080B582B0019001980090FFF71DFE014677
:1020F0000098C9B20A0949F21031C0F60001895CA2
:10210000C84002B080BD000080B582B00190019847
:102110000090FFF711FE014600988A0A49F220312B
:10212000C0F60001895CC84002B080BD80B582B0B5
:10213000019001980090FFF707FE014600984A0BB6
:1021400049F22031C0F60001895CC84002B080BD70
:1021500080B582B000200190FFF7FEFD014600919E
:1021600040B1FFE7009804280AD0FFE7009808284C
:102170000CD010E042F20040C0F2F400019010E0F8
:1021800047F64000C0F27D1001900AE0082000F000
:102190000BF8019005E042F20040C0F2F40001901B
:1021A000FFE7019802B080BD80B588B0079000209D
:1021B000069005900490FFF7FBFD059005980390AD
:1021C00028B1FFE70398B0F5800F06D00BE042F28C
:1021D0000040C0F2F40006900BE047F64000C0F269
:1021E0007D10069005E042F20040C0F2F400069037
:1021F000FFE7079808281BD1FFE706980090FFF734
:10220000CFFD01460098B0FBF1F00190FFF7D8FD3B
:102210000146019848430290FFF7DAFD0146029813
:102220000A0C022101EB4201B0FBF1F00490FFE740
:10223000049808B080BD000080B582B0009000987E
:102240000138B0F1807F03D3FFE70120019019E04E
:10225000009801384EF21401CEF2000108604FF0F0
:10226000FF300F2105F0D8FC4EF21801CEF200012C
:10227000002008604EF21002CEF200020721116029
:102280000190FFE7019802B080BD000086B00021F8
:1022900005910491022003900291019043F60800F9
:1022A000C4F20200006800F00C0005900598009050
:1022B00040B1FFE7009804280ED0FFE700980828F7
:1022C00014D059E040F20001C2F2000142F2004095
:1022D000C0F2F400086059E040F20001C2F20001CF
:1022E00047F64000C0F27D1008604FE043F604005E
:1022F000C4F202000168C1F380510291006800F04D
:102300003F000190029888B1FFE7019947F640002D
:10231000C0F27D10B0FBF1F043F60401C4F20201FB
:102320000968C1F388114843049010E0019942F212
:102330000040C0F2F400B0FBF1F043F60401C4F237
:1023400002010968C1F3881148430490FFE743F68E
:102350000400C4F20200006800F44031022000EBE7
:10236000D130039004980399B0FBF1F040F20001E2
:10237000C2F20001086009E040F20001C2F200016F
:1023800042F20040C0F2F4000860FFE743F60800A4
:10239000C4F202000068C0B2010949F21030C0F670
:1023A0000000405C0590059A40F20001C2F2000175
:1023B0000868D040086006B0704700004EF68851AB
:1023C000CEF20001086840F4700008607047000019
:1023D00080B54FF0804000F077FCE8B1FFE703F0F4
:1023E0007DFA014608680130086003F077FA00685A
:1023F0004CF6CD41CCF6CC4148434FEAB0004CF608
:10240000CC41C0F6CC41884205D8FFE703F066FA1C
:1024100003F056FAFFE7FFE74FF0804000F0C0FB03
:1024200080BD000080B505F037FC05F003FE05F027
:10243000F3FE05F0E3FF06F00DF806F021F806F0D4
:1024400035F806F049F805F03DFC05F051FC05F0C3
:1024500065FC05F079FC05F08DFC05F0A1FC05F0AC
:10246000B5FC05F0C9FC05F0DDFC05F0F1FC05F05C
:1024700005FD05F019FD05F02DFD05F041FD05F008
:1024800055FD05F069FD05F07DFD05F091FD05F0B8
:10249000A5FD05F0B9FD05F0E3FD05F0F7FD05F03C
:1024A0000BFE05F01FFE05F033FE05F047FE05F0BC
:1024B0005BFE05F06FFE05F083FE05F097FE05F06C
:1024C000C1FE05F0D5FE05F0E9FE05F0FDFE05F0C4
:1024D00011FF05F025FF05F039FF05F04DFF05F070
:1024E00061FF05F075FF05F09FFF80BD80B582B0EC
:1024F0000190BDF8040006F007F802B080BD0000AE
:10250000B0B586B0DDF828C005900491039202931F
:1025100000F06CFFBDF81410BDF81020BDF80C30B1
:10252000BDF80840DDF828E05FFA8EFC4FEADC0CCD
:102530000EF47C454CEA551C0EF4780E4CEA1E2C29
:10254000EE46CEF80040CEF804C000F077FC06B0AE
:10255000B0BD000080B582B049F22831C0F600015C
:102560000120009004F09EF800204FF07F4104F01D
:10257000E1F8009844F65E31CFF63B7104F0DAF8EA
:10258000022042F63521CFF62171019104F0D2F8F4
:102590000199032004F0CEF8042043F64931CFF628
:1025A0002E7104F0C7F802B080BD000080B584B081
:1025B00003900291019200F019FFBDF80C10BDF8D4
:1025C0000820DDF804C05FFA8CF3DB080CF47C4EC5
:1025D00043EA5E130CF4780C43EA1C2300F014FD6C
:1025E00004B080BD80B586B0DDF820C005900491B0
:1025F0000392029305980499039A029BDDF820C088
:10260000EE46CEF800C000F019F806B080BD00001C
:1026100080B582B00190009142F6AC70C2F2000029
:10262000006848B1FFE742F6AC70C2F200000268F1
:10263000019800999047FFE7FFE7FEE710B5A0B0CB
:10264000DDF888C01F901E911D921C93FFF782FF3A
:102650001F98002873D0FFE740F20C70C2F2000010
:102660000078BFF35F8FC00768BBFFE740F20C70D4
:10267000C2F2000005F078FF28B3FFE71C980F9026
:1026800018A803F07BFF0F9B1898199ADDF868C013
:10269000DDF86CE06946C1F810E0C1F80CC08A6052
:1026A00048600020086043F24020C2F200004FF46E
:1026B000A071F02205F0E0F840F20C70C2F20000C8
:1026C00005F082FFFFE740F20470C2F200000078DC
:1026D000BFF35F8FC007F8B9FFE740F20470C2F2A2
:1026E000000005F041FFB8B1FFE71F991E9A1D9B3E
:1026F00043F24020C2F20000EC46CCF8000043F266
:10270000D010C2F2000004F099FA40F20470C2F254
:10271000000005F059FFFFE743F2A401C2F20001F7
:1027200043F24020C2F20000086042F6B071C2F2EB
:10273000000143F2D010C2F20000086076E040F2DF
:102740000070C2F200000078BFF35F8FC00788BB43
:10275000FFE740F20070C2F2000005F005FF48B349
:10276000FFE71C980E9022980D9014A803F006FF26
:102770000D980E9B149ADDF854C0DDF858E0179CB4
:1027800069464C61C1F810E0C1F80CC08A600022B3
:102790004A60086043F26C10C2F200004FF4A0716E
:1027A000F02202F045F940F20070C2F2000005F09C
:1027B0000BFFFFE740F20870C2F200000078BFF3A1
:1027C0005F8FC007F8B9FFE740F20870C2F200005F
:1027D00005F0CAFEB8B1FFE71F991E9A1D9B43F290
:1027E0006C10C2F20000EC46CCF8000043F2082066
:1027F000C2F2000004F022FA40F20870C2F20000B7
:1028000005F0E2FEFFE743F2A401C2F2000143F249
:102810006C10C2F20000086042F6B071C2F2000112
:1028200043F20820C2F200000860FFE743F2A40070
:10283000C2F20000016840F65C00C2F200000B909A
:1028400003F0DCFA0B9840F27C02C2F20002694607
:102850000A61F022CA604FF4A0728A6000230C93D0
:102860004B600B600122194603F0E4FB0B9803F068
:10287000CDFA0C981190129013901090FFE71398D6
:10288000411C1391C1B249F23430C0F600000690E9
:10289000415C40F65C00C2F20000089048300790AE
:1028A00001F05AFD06990798139A531C1393D2B25C
:1028B000895C01F051FD06990798139A531C1393F4
:1028C000D2B2895C01F048FD06990798139A531C0F
:1028D0001393D2B2895C01F03FFD089812994A1C0B
:1028E000129248F68902C8F68802A1FB02235A090F
:1028F0001201A2EB5312A1EB820249F23441C0F65D
:102900000001895C00F6980001F026FD08981199F5
:102910004A1C1192CAB249F27041C0F600010991F5
:10292000895C41F2E80210440A9001F015FD099912
:102930000A98119A531C1193D2B2895C01F00CFDD4
:102940009DF8401042F6D440C2F2000001F01EF99A
:102950009DF8401042F6AC50C2F2000001F016F9AA
:102960009DF8401042F68460C2F2000001F00EF9BA
:102970001098013010901120FFF7B8FD7FE700009C
:1029800081B000900099086840F04000086001B0F4
:102990007047000081B000900099086840F0400046
:1029A000086001B07047000081B08DF803009DF908
:1029B000030000280ED4FFE79DF9031001F01F0269
:1029C000012090404A094EF20011CEF2000141F878
:1029D0002200FFE701B0704783B002900191029896
:1029E00040690090009A019802EA0001904340EA91
:1029F00001400299886103B07047000082B08DF8F1
:102A0000070000919DF9070000280AD4FFE700980D
:102A100000019DF907104EF20042CEF200028854E8
:102A20000BE0009800019DF8071001F00F014EF631
:102A30001452CEF200028854FFE702B07047000043
:102A400081B000900098007B01B0704781B0009089
:102A50000098007B01B0704788B0079006910592FE
:102A6000079800F0070004900498C0F107000528BB
:102A700003D3FFE70420019004E00498C0F10700AD
:102A80000190FFE70198039004980430062803D8CA
:102A9000FFE70020009003E0049803380090FFE770
:102AA0000098029006980399012202FA01F1013977
:102AB0000840029B984005999A40013A114008430A
:102AC00008B0704782B00190009100980199886128
:102AD00002B0704782B0019000910098019988611E
:102AE00002B0704743F60001C4F20201086840F4E6
:102AF000002008607047000083B002908DF8071036
:102B000002980C3000909DF807000099087003B0FF
:102B10007047000083B002908DF8071002980C30C7
:102B200000909DF807000099087003B070470000FE
:102B300081B000900099086840F00100086001B081
:102B40007047000082B00190009100980004019944
:102B5000886102B07047000082B001900091009837
:102B600000040199886102B07047000081B00090B4
:102B70000099C86840F00100C86001B070470000CB
:102B800081B0009000988068C0F3400001B07047A9
:102B900081B0009000988068C0F3400001B0704799
:102BA00081B0009000996FF00100086101B070479A
:102BB00081B000900098006800F0010001B07047FB
:102BC00082B00190019A43F63000C4F2020001681D
:102BD000114301600068019908400090009802B01C
:102BE0007047000082B00190019A43F63000C4F2B1
:102BF00002000168114301600068019908400090DB
:102C0000009802B07047000082B00190019A43F62C
:102C10003000C4F2020001681143016000680199AC
:102C200008400090009802B07047000082B0019008
:102C3000019A43F64000C4F20200016811430160AA
:102C40000068019908400090009802B070470000A9
:102C500082B00190019A43F64000C4F2020001687C
:102C6000114301600068019908400090009802B08B
:102C70007047000082B00190019A43F64400C4F20C
:102C8000020001681143016000680199084000904A
:102C9000009802B07047000081B0009000988068F2
:102CA00000F0010001B0704781B00090009880688A
:102CB00000F0010001B0704781B000900098C0683A
:102CC00000F0010001B0704781B0009000980069E9
:102CD00000F0010001B070474EF60C50CEF200003B
:102CE0000068C0F30220704780B582B0019040F2C6
:102CF0000040C4F202004FF48051FFF7EBFE02B037
:102D000080BD000080B584B003908DF80B1003984F
:102D100000900020ADF808009DF80B0001460191DD
:102D2000072838D80199DFE801F004050C131A21AF
:102D3000282F30E0BDF8080040F08000ADF8080012
:102D400029E0BDF8080040F04000ADF8080022E09E
:102D5000BDF8080040F0C000ADF808001BE0BDF869
:102D6000080040F02000ADF8080014E0BDF80800AD
:102D700040F06000ADF808000DE0BDF8080040F03C
:102D8000A000ADF8080006E0BDF8080040F0E00043
:102D9000ADF80800FFE70098362100F0CBFB009863
:102DA0009DF8081041F0080100F006FC04B080BD59
:102DB00080B584B00390ADF80A100398019000F03C
:102DC00067FA019800F044FB01989DF80B1000F0A1
:102DD0000BF801989DF80A1000F006F80198FFF72B
:102DE00083FF04B080BD000080B582B001908DF8F3
:102DF0000310FFE743F60000C4F20000FFF7C8FE2F
:102E000008B9FFE7F6E79DF8031043F60000C4F2A7
:102E10000000FFF77FFEFFE743F60000C4F200006A
:102E2000FFF742FF08B9FFE7F6E743F60000C4F2F8
:102E30000000FFF70BFE02B080BD000010B588B0A7
:102E40008C4686460B980A99CDF81CE0ADF81AC05E
:102E5000ADF81820ADF81630ADF81410ADF812002A
:102E600007980390BDF81A10BDF81820BDF8163069
:102E7000BDF812E0EC46CCF804E0CCF8002000F0FD
:102E800015FA0398BDF81A30BDF81820BDF81410D3
:102E9000BDF812E0EC46CCF804E0CCF8001019467E
:102EA00000F004FA0398BDF81A10BDF81420BDF81C
:102EB0001630BDF812E0EC46CCF804E0CCF8002067
:102EC00000F0F4F90398BDF81630BDF81820BDF8ED
:102ED0001410BDF812E0EC46CCF804E0CCF8001079
:102EE000194600F0E3F908B010BD000080B586B0C7
:102EF00005908DF81310059802909DF81300014677
:102F0000039103284BD80399DFE801F0021325371A
:102F1000029A00209071F02111804FF4A07151802D
:102F20002C2111812A2151812B2191818DF81200B0
:102F300046E0029900208871F02008804FF4A070CC
:102F400048802C2008812A2048812B20888103205A
:102F50008DF8120034E00299012088714FF4A070BE
:102F60000880F02048802C2008812A2048812B20CE
:102F7000888105208DF8120022E0029901208871D5
:102F80004FF4A0700880F02048802C2008812A206F
:102F900048812B20888106208DF8120010E0029ACB
:102FA00000209071F02111804FF4A07151802C21EC
:102FB00011812A2151812B2191818DF81200FFE787
:102FC0000298817A00F0B6FA029800210191FFF789
:102FD000EFFE02980188013989B2FFF7E9FE0298F5
:102FE000017B00F0A7FA01990298FFF7E1FE029831
:102FF0004188013989B2FFF7DBFE02989DF8121073
:10300000FFF780FE06B080BD80B584B00390ADF8B8
:103010000A10ADF80820ADF8063003980090817AC8
:1030200000F088FA0098BDF80A10FFF7C1FE00987A
:10303000017B00F07FFA0098BDF80810FFF7B8FE9A
:103040000098017A00F076FA0098BDF80610FFF7B4
:10305000AFFE04B080BD000080B588B00790ADF829
:103060001A10079802900022039205920388418863
:10307000EC46CCF80010114600F012FA0298039AC0
:103080000188438859430491114600F0EDF90298F4
:1030900000F0A8FA03980590FFE705980499884284
:1030A0000AD2FFE70298BDF81A10FFF781FEFFE78A
:1030B000059801300590F0E708B080BD80B586B076
:1030C00005900598049000F029FA0498CF2100F0AB
:1030D00031FA049849F6A461C0F600010322009277
:1030E00000F03EFA0498ED2100F024FA049849F625
:1030F000AF61C0F60001042200F032FA0498E82122
:1031000000F018FA009A049849F6AB61C0F6000185
:1031100000F026FA0498CB2100F00CFA049849F24A
:10312000A521C0F60001052200F01AFA0498F72143
:1031300000F000FA0498202100F03EFA0498EA21F9
:1031400000F0F8F9049849F2AB21C0F60001022220
:10315000039200F005FA0498C02100F0EBF90498FE
:10316000212100F029FA0498C121019100F0E2F92F
:103170000498122100F020FA0498C52100F0DAF931
:10318000039A049849F6A861C0F6000100F0E8F936
:103190000498C72100F0CEF90199049800F00CFAC8
:1031A0000498362100F0C6F90498082100F004FACA
:1031B00004983A2100F0BEF90498552100F0FCF97A
:1031C0000498B12100F0B6F9039A049849F2AE21AF
:1031D000C0F6000100F0C4F90498B62100F0AAF985
:1031E000039A049849F6B461C0F6000100F0B8F9FA
:1031F0000498F22100F09EF90498002100F0DCF917
:103200000498262100F096F90498012100F0D4F9E1
:103210000498E02100F08EF9049849F68461C0F624
:1032200000010F22029200F09BF90498E12100F0C6
:1032300081F9029A049849F69461C0F6000100F001
:103240008FF90498112100F075F97820FEF7ECFE53
:103250000498292100F06EF903990498FFF746FEBF
:10326000049800F007F804984FF6FF71FFF7F4FE9A
:1032700006B080BD80B582B0019040F20040C4F23B
:1032800002004FF48061FFF725FC02B080BD000012
:1032900080B582B0019040F20040C4F202004FF4C9
:1032A0008051FFF759FC02B080BD000010B58EB010
:1032B0008C46864611981099CDF834E0ADF832C0AE
:1032C000ADF83020ADF82E30ADF82C10ADF82A0056
:1032D0000D980090002009900890BDF82E00BDF8D0
:1032E0003210401A0790BDF82C00BDF83010401A7B
:1032F0000690BDF832000290BDF8300001900798AA
:10330000012803DBFFE7012004900DE0079818B9BE
:10331000FFE70020049006E04FF0FF30049007988C
:1033200040420790FFE7FFE70698012803DBFFE72D
:10333000012003900DE0069818B9FFE700200390E4
:1033400006E04FF0FF300390069840420690FFE7FA
:10335000FFE707980699884203DDFFE70798059085
:1033600002E006980590FFE70020ADF82800FFE78F
:10337000BDF8280005990131884234DCFFE7009848
:10338000BDF80810BDF80420BDF82A30FFF73CFE58
:1033900007990998084409900699089808440890E4
:1033A00009980599884209DDFFE705990998401AAF
:1033B00009900499029808440290FFE7089805993B
:1033C000884209DDFFE705990898401A089003999B
:1033D000019808440190FFE7FFE7BDF8280001309D
:1033E000ADF82800C4E70EB010BD000080B540F273
:1033F0001070C2F200000078BFF35F8FC007A8B959
:10340000FFE740F21070C2F2000005F0ADF868B1BD
:10341000FFE743F2A020C2F2000000F0EDF840F216
:103420001070C2F2000005F0CFF8FFE743F2A020D1
:10343000C2F2000080BD000080B582B0019040F271
:103440000040C4F202000421FFF786FB02B080BDF9
:1034500080B582B0019040F20040C4F20200042125
:10346000FFF738FB02B080BD80B584B00390ADF8A3
:103470000A10ADF8082003980190817A00F05AF8FC
:103480000198BDF80A10FFF793FC0198017B00F04A
:1034900051F80198BDF80810FFF78AFC04B080BD10
:1034A00080B584B084460698CDF80CC0ADF80A10FB
:1034B000ADF80820ADF80630ADF804000398009090
:1034C000BDF80A10BDF8062011440139ADF8061008
:1034D000BDF80810BDF8042011440139ADF80410FE
:1034E000817A00F027F80098BDF80A10FFF760FC19
:1034F0000098BDF80610FFF75BFC0098017B00F018
:1035000019F80098BDF80810FFF752FC0098BDF8B4
:103510000410FFF74DFC04B080BD000080B582B000
:1035200001900198012100F005F83220FEF77CFDA2
:1035300002B080BD80B584B003908DF80B10039865
:103540000190FFF7A5FE0198FFF776FF01989DF81F
:103550000B10FFF749FC0198FFF7C6FB04B080BDD4
:1035600080B584B003900291ADF8062003980090D6
:10357000FFF78EFE0098FFF76BFF0020ADF8040008
:10358000FFE7BDF80400BDF8061088420EDAFFE739
:1035900000980299BDF80420895CFFF725FCFFE73D
:1035A000BDF804000130ADF80400EAE70098FFF729
:1035B0009BFB04B080BD000080B584B003908DF803
:1035C0000B1003980190FFF763FE0198FFF740FF8F
:1035D00001989DF80B10FFF707FC0198FFF784FB9B
:1035E00004B080BD80B582B001900198017AFFF7E8
:1035F000A1FF02B080BD000080B598B01790179869
:10360000069002200290FFF7FFFA4FF48040FFF788
:103610001FFB49F2F82EC0F6000EDEF80000DEF8BF
:103620000410DEF80820DEF80C30DEF810C0DEF8FA
:1036300014E0CDF858E0CDF854C0149313921291D1
:10364000119040F20040C4F20200019011A90091D3
:10365000FEF778F90099029A0198042311931592C4
:10366000FEF770F90099029A01984FF460431193A4
:10367000129201220392159205221692FEF762F928
:1036800007A804902821FCF7C6FE029A0398049923
:103690004FF4827308930A920B904FF400700C90D1
:1036A0000720109043F60000C4F200000590FEF7DA
:1036B00097FB0598FFF76EF90698FFF7FFFC069851
:1036C00018B080BD81B00090009890F86C0001B0F7
:1036D0007047000080B588B0079006910592079862
:1036E0000490806E002801DCFFE721E00498816EE1
:1036F000013942188166002182F84810C169026FC1
:103700000292406F01EB60010391C00730B1FFE707
:103710000299039800684058019002E002980190D5
:10372000FFE703980499019B898800229847FFE7E7
:1037300008B080BD80B588B00790069105920798C3
:1037400001900021029141660166C1658165416574
:103750000165C1648164C169026F0392406F01EB2E
:1037600060010491C00730B1FFE703990498006835
:103770004058009002E003980090FFE704980199F8
:10378000009B89880222984708B080BD80B586B02A
:1037900005900491039205980190049802900A28DC
:1037A00012D0FFE70298142808D0FFE702981B28E0
:1037B00010D0FFE702987F2812D017E001980499F3
:1037C000039A00F02FF817E001980499039A00F08B
:1037D0009BF811E001980499039AFFF7ABFF0BE007
:1037E00001980499039AFFF775FF05E00198049981
:1037F000039A00F029F8FFE706B080BD81B0009081
:1038000000994FF0C0408860002081F86C00486645
:103810000866C865886548650865C8648864886600
:1038200001B0704780B584B0039002910192039873
:1038300090F86C10013918BF012180F86C100168F4
:103840004969884704B080BD80B588B0079006916B
:10385000059207980490806E202801D3FFE750E07E
:103860000698302804DBFFE706983A2808DBFFE7D4
:103870000698202804D0FFE706982E2801D1FFE7FC
:103880001DE0069841280FDBFFE706985A280BDC5D
:10389000FFE7049890F86C00012804D1FFE7069830
:1038A00020300690FFE70AE0FFE749F6E260C0F645
:1038B000000040F2D571FEF7ABFEFFE7FFE704988A
:1038C0000699836EC2180133836682F84810C16975
:1038D000026F0292406F01EB60010391C00730B1AB
:1038E000FFE70299039800684058019002E00298AF
:1038F0000190FFE703980499019B8988002298476B
:10390000FFE708B080BD000080B588B00790069141
:103910000592079801900021029141660166C165F8
:10392000816541650165C1648164C169026F03926B
:10393000406F01EB60010491C00730B1FFE70399CC
:10394000049800684058009002E003980090FFE758
:1039500004980199009B89880122984708B080BD8E
:1039600080B584B003900398006A02900298B0B1C9
:10397000FFE7FFE7029888B1FFE702980021019175
:1039800043F28D71C0F6000100910099019A02F096
:1039900045FF029804F0BCF80290EBE7FFE704B0A3
:1039A00080BD000010B59AB018901791ADF85A205C
:1039B0008DF8593018980C9012A80D9002F0DEFD89
:1039C0000D99179804F032F89DF85900D0BBFFE725
:1039D0000EA8089002F0D2FD179803F0D5FF0899C1
:1039E00004F024F8089817990991BDF85A100A9123
:1039F000129949420B9104F0CDF809990A9ADDF821
:103A00002CE003460C98DDF84CC0A3EB0C03A13B63
:103A100040F2F814C2F20004EC46CCF81040A024A6
:103A2000CCF80C4040F29E24CCF808400FFA8EFEF1
:103A3000CCF800E01BB2CCF80430002302F0FAFA14
:103A4000199039E09DF85900012825D1FFE7179812
:103A50000690BDF85A00079012A804F09BF806994A
:103A6000079A03460C9840F2285EC2F2000EEC461C
:103A7000CCF810E04FF0A00ECCF80CE04FF4867EAE
:103A8000CCF808E01BB2CCF804300023CCF80030AE
:103A900002F0D0FA19900FE0FFE749F6E260C0F6B5
:103AA000000040F28D71FEF7B3FDFFE7FFE7FFE78F
:103AB0004FF0FF301990FFE719981AB010BD0000C1
:103AC00010B58EB00D900D98049009A8039002F0E7
:103AD00055FD0498039903F0F1FF0499486C099A85
:103AE0000A9BDDF82CC0DDF830E0CDF820E0CDF801
:103AF0001CC0069305920C6C0599069A079BDDF88D
:103B000020C0EE46CEF808404FF07F44CEF8044087
:103B1000CEF800C003F0A6FC0EB010BD80B582B098
:103B200001900198009002F085FB009849F6FC4155
:103B3000C0F600010831016002B080BD80B582B0DE
:103B400001900198009000F005F8009804F05AF8F0
:103B500002B080BD80B582B001900198009002F063
:103B600099FB009802B080BD82B00190ADF80210C0
:103B7000ADF800200199BDF80200A1F87800BDF869
:103B80000000A1F87A0002B07047000080B590B044
:103B90000F908DF83B100F980990C06F58B9FFE750
:103BA000FFE749F6E260C0F6000040F6C941FEF7C3
:103BB0002FFDFFE70EE10020ADF83200FFE7099985
:103BC000BDF93200D1F88810884280F20381FFE706
:103BD000099BD86F93F8D4209918013283F8D42028
:103BE00091F894309DF83B10BDF932C06A46C2F896
:103BF00004C011600EA90DF1360200F0DFFB099937
:103C0000ADF8340091F8D40000F03F0081F8D40002
:103C1000B1F97800B1F97A1088420BD1FFE7FFE7DC
:103C200049F6E260C0F6000040F6D841FEF7F0FC2D
:103C3000FFE7FFE709990A6F486F821ABDF936302E
:103C4000B1F97AC0A3EB0C035A43B1F97830A3EB76
:103C50000C0392FBF3F2801A01300A90086F4A6F4E
:103C6000101ABDF93830B1F97AC0A3EB0C035843F0
:103C7000B1F97830A3EB0C0390FBF3F0C043104490
:103C80000B900A6F486F821ABDF93430B1F97AC0CF
:103C9000A3EB0C035A43B1F97830A3EB0C0392FB6E
:103CA000F3F2801AADF834000B98496F884204DDB6
:103CB000FFE70998406F089002E00B980890FFE733
:103CC000099908980B900B98096F884204DAFFE76E
:103CD0000998006F079002E00B980790FFE707989C
:103CE0000B90FFE7012008B9FFE7FBE709990A9865
:103CF000496F884204DDFFE70998406F069002E0B3
:103D00000A980690FFE7099906980A900A98096FA1
:103D1000884204DAFFE70998006F059002E00A98EC
:103D20000590FFE705980A90FFE7012008B9FFE733
:103D3000FBE70999BDF93400496F884204DDFFE7CC
:103D40000998406F049003E0BDF934000490FFE748
:103D500009990498ADF83400BDF93400096F884220
:103D600004DAFFE70998006F039003E0BDF934001F
:103D70000390FFE70398ADF83400FFE7012008B98E
:103D8000FFE7FBE70998C16ED0F88400884205DDA3
:103D9000FFE70999886EC1F88400FFE709980B993D
:103DA0000A9ABDF93430D0F860C0EE46CEF800C0B3
:103DB00000F098F8099800F069F90999D1F88400A1
:103DC0000130C1F88400FFE7BDF832000130ADF8E2
:103DD0003200F4E610B080BD82B0019000910199EC
:103DE0000098086602B0704780B582B001900091DB
:103DF00001980099C0F88810D0F88C10D0F8902065
:103E000000F0B0F902B080BD80B58AB00990099881
:103E10000190D0F8800008B9FFE730E005A80090D5
:103E200002F0ACFB0198009903F048FE0198D0F82D
:103E30008000049006980390FFE703980899884251
:103E40001DDCFFE705980290FFE70298079988427A
:103E500010DCFFE70198036C406C0299039A03F0B1
:103E60003BFC04990A1D04920860FFE702980130A8
:103E70000290EAE7FFE7039801300390DDE70AB01C
:103E800080BD000080B588B007900798029003A815
:103E9000009002F073FB0298009903F00FFE009867
:103EA000029A03990531916605990539D1660499FD
:103EB00005311167069905395167916EC2F8841072
:103EC00003F05EFE01460098019103F063FE014697
:103ED000019848430421FCF74DFA0299C1F880008B
:103EE00008B080BD10B58EB0DDF840C00D900C91CB
:103EF0000B920A930D9901910B980C9A801A0990D4
:103F00009DF84200ADF822009DF84100ADF8200078
:103F10009DF84000ADF81E00099A022000EB6200F7
:103F20000690D1F840E0486CD1F884100A9A109BB2
:103F3000D0F800C0DCF800C06C46C4F800E0E047F0
:103F40000998002801DCFFE79EE001200290FFE7CE
:103F50000298099A012101EB6201884200F39480E2
:103F6000FFE70A98029908440B99884240DCFFE772
:103F700001990A98029A10440590BDF92200069A08
:103F8000029BD31A584390FBF2F08DF81300BDF951
:103F90002000069A029BD31A584390FBF2F08DF84A
:103FA0001200BDF91E00069A029BD31A584390FBDB
:103FB000F2F08DF811009DF8130000049DF8122016
:103FC00040EA02209DF81120104440F07F40039009
:103FD000D1F840E0486CD1F88410059A039BD0F8E2
:103FE00000C0DCF800C06C46C4F800E0E047FFE722
:103FF0000A980299401A0C99884240DBFFE7019920
:104000000A98029A801A0590BDF92200069A029B2E
:10401000D31A584390FBF2F08DF81300BDF920003D
:10402000069A029BD31A584390FBF2F08DF81200C7
:10403000BDF91E00069A029BD31A584390FBF2F07A
:104040008DF811009DF8130000049DF8122040EA3D
:1040500002209DF81120104440F07F400390D1F8D9
:1040600040E0486CD1F88410059A039BD0F800C05A
:10407000DCF800C06C46C4F800E0E047FFE7FFE76B
:1040800002980130029063E70EB010BDB0B58EB05B
:104090000D900D990391D1F8840008300C900C9884
:1040A000C96E884209DDFFE70398816EC06E401A31
:1040B0000C99C04308440C90FFE708A8029002F056
:1040C0005DFA0398029903F0F9FC029803F058FD99
:1040D0000146039807910999069108990591006F87
:1040E00001380490FFE703990498496F0131884231
:1040F00035DCFFE70398D0F88000E0B1FFE7039BD1
:104100000C99049AD3F840E0586CD3F88030DDF86D
:1041100018C0A2EB0C0C079C059D4D1B0CFB045C0E
:1041200053F82C30D0F800C0DCF800C06C46C4F85E
:1041300000E0E0470EE00398036C406C0C99049A91
:10414000D0F800C0DCF800C0EE46CEF80030002306
:10415000E047FFE7FFE7049801300490C3E70EB0A3
:10416000B0BD000080B586B005900491039205981B
:1041700000900499C0F88C100399C0F89010D0F802
:104180008810D0F890204FF47A735943B1FBF2F1C4
:10419000029194304021FCF73EF901200190FFE7A5
:1041A0000198402816D8FFE70099049B019A03FB69
:1041B00002F0DDF808C0B0FBFCF0013A5343B3FB5A
:1041C000FCF3C01A114481F89400FFE70198013014
:1041D0000190E5E70099002081F8D40006B080BD89
:1041E00070B590B00F900F9806900BA8059002F054
:1041F000C5F90698059903F061FC0699486C0B9A7D
:104200000C9BDDF834C0DDF838E0CDF828E0CDF8BF
:1042100024C0089307920D6C4C6E0799089A099B6D
:10422000DDF828C0EE46CEF80850CEF80440CEF8AF
:1042300000C003F017F9DDF818E0DEF8680000F1BF
:104240000A03DDF830C0DEF84010DEF84400DEF886
:104250004820DEF85040DEF85850EE460026CEF8F2
:104260000C60CEF80850CEF80440CEF800C002F042
:1042700091F9DDF818E0DEF8680000F13C03DDF8A4
:1042800030C0DEF84010DEF84400DEF84C20DEF8E6
:104290005440DEF85C50EE46CEF80C60CEF8085084
:1042A000CEF80440CEF800C002F074F90698FFF78B
:1042B000ABFD10B070BD000082B00190009101997B
:1042C0000098C86702B0704780B582B0019001982D
:1042D000009001F0AFFF009849F63451C0F600019C
:1042E000083101600021C167C0F880104165016597
:1042F000C16481644FF4FA72A0F87820A0F87A10B3
:104300000122C0F88820C0F88C104FF47A72C0F8EF
:10431000902080F8D4100021CFF6FF710166C165AE
:1043200081654FF07F41416602B080BD80B582B0AB
:1043300001900198009000F005F8009803F062FCED
:1043400002B080BD80B582B001900198009001F06C
:10435000A1FF009802B080BD84B00290ADF80610B5
:1043600002980090B0F90018B0F90208013000EB93
:10437000905240F2FF339A43801A884206D1FFE7F9
:104380004FF25270CFF6FF70039013E00099BDF822
:104390000600B1F9022821F81200B1F90208013033
:1043A00000EB905202F47C42801AA1F8020801202E
:1043B0000390FFE7039804B07047000080B594B005
:1043C00084461798DDF858E0CDF848C01191109256
:1043D000ADF83E30ADF83C0012980990D0F84C088A
:1043E0001699884208D0FFE709991698C1F84C0839
:1043F0000020A1F8480821E00999BDF93C00B1F975
:104400004818884219DAFFE70998BDF93C1000EB1B
:104410004101B1F83818119A1180BDF93C1000EB38
:104420004101B1F81818109A1180BDF93C1000EB49
:104430004100B0F928081390D9E0FFE70999B1F8D5
:1044400048080130A1F84808FFE70998B0F9480882
:10445000092809DBFFE749F6E260C0F6000040F6F4
:104460001D41FEF7D5F8FFE7FFE70999D1F81408D9
:104470000C90D1F814080B90D1F80408D1F8081862
:10448000084440100A9000200E90FFE70E98411C4F
:104490000E91BDF93E10884222DAFFE7099800F03C
:1044A000A9F80D900D984FF6A931CFF6FF7188420B
:1044B00001D1FFE714E009990D98C1F814080D988F
:1044C0000C99884203DAFFE70D980C90FFE70D98EE
:1044D0000B99884203DDFFE70D980B90FFE7D5E7C6
:1044E0000998D0F804180891D0F80C180C98884254
:1044F00003DAFFE70C98079004E00998D0F80C085D
:104500000790FFE708980799884205DAFFE70998BE
:10451000D0F80408069011E009990C98D1F80C180D
:10452000884203DAFFE70C98059004E00998D0F878
:104530000C080590FFE705980690FFE70998069993
:10454000BDF93C2000EB4202A2F81818109A118025
:10455000D0F808180491D0F810180B98884203DDA1
:10456000FFE70B98039004E00998D0F81008039037
:10457000FFE704980399884205DDFFE70998D0F822
:104580000808029011E009990B98D1F81018884298
:1045900003DDFFE70B98019004E00998D0F81008BC
:1045A0000190FFE701980290FFE709980299BDF991
:1045B0003C2000EB4202A2F83818119A1180D0F882
:1045C0000418C0F80C18D0F80818C0F810180C9986
:1045D000C0F804180B99C0F80818BDF93C1000EB9E
:1045E0004101BDF92800A1F828081390FFE71398AE
:1045F00014B080BD84B0029002990091B1F9000816
:10460000B1F90218884206D1FFE74FF6A930CFF67C
:10461000FF70039012E00099B1F9000831F9100021
:104620000190B1F90008013000EB905202F47C4295
:10463000801AA1F8000801980390FFE7039804B0DE
:104640007047000080B584B0039003980290002169
:104650000191C0F84C18A0F84818C0F81418C0F818
:104660001018C0F80C18C0F80818C0F80418A0F802
:104670000218A0F800184FF40061FBF7CCFE019976
:104680000298C0F82418C0F82018C0F81C18C0F808
:104690001818C0F83418C0F83018C0F82C18C0F832
:1046A0002818C0F84418C0F84018C0F83C18C0F8E2
:1046B000381804B080BD0000B0B58EB0149CDDF891
:1046C0004CE0DDF848C0179D169D159D0D94CDF862
:1046D00030E0CDF82CC00A93099008910792099810
:1046E0000899079A0368D3F810C0EE4605ABCEF8D8
:1046F000003006ABE0470B990D98401A013004904A
:104700000A990C98401A013003901799002008600C
:1047100016990860159800F040700146029150B15A
:10472000FFE70298B0F1807F14D0FFE70298B0F164
:10473000007F13D01EE003980699884209DDFFE749
:1047400003980699401A00EBD07040101699086043
:10475000FFE71AE016990020086016E00398069912
:10476000884206DDFFE703980699401A169908600B
:10477000FFE70AE0FFE749F6E260C0F6000040F21A
:104780005731FDF745FFFFE7FFE7159800F44010AC
:104790000146019150B1FFE70198B0F5801F14D098
:1047A000FFE70198B0F5001F13D01EE004980599AB
:1047B000884209DDFFE704980599401A00EBD070A4
:1047C000401017990860FFE71AE017990020086069
:1047D00016E004980599884206DDFFE704980599DC
:1047E000401A17990860FFE70AE0FFE749F6E26020
:1047F000C0F6000040F26E31FDF70AFFFFE7FFE769
:104800000EB0B0BD10B58EB0DDF844C0DDF840C0CC
:104810000D900C910B920A930D980190006E08B9BF
:10482000FFE7B0E00198006E406878B1FFE70198BB
:10483000006ED0F804C00C980B990A9A109BDDF812
:1048400044E06C46C4F800E0E0479CE00198006E4C
:10485000006840B3FFE7019890F85000C00710B31C
:10486000FFE70B980990FFE709981099884219DC37
:10487000FFE70C980890FFE708980A9988420CDC3B
:10488000FFE70198006E036808980999119A984704
:10489000FFE7089801300890EEE7FFE7099801303C
:1048A0000990E1E7FFE70198006908B9FFE76AE0CE
:1048B0000198C06804282AD1FFE70B980690FFE70B
:1048C00006981099884221DCFFE701984268006948
:1048D0000B990C9B01FB023100EB810007900C98B7
:1048E0000590FFE705980A9988420ADCFFE71198CE
:1048F00007990A1D07920860FFE7059801300590A7
:10490000F0E7FFE7069801300690D9E73BE0019811
:10491000C068022836D1FFE71199C8B2C00801F477
:104920007C4240EA521001F4780140EA11201190D3
:104930000B980390FFE703981099884221DCFFE76A
:104940000198426800690B990C9B01FB023100EB56
:10495000410004900C980290FFE702980A9988425F
:104960000ADCFFE7119804998A1C04920880FFE78B
:10497000029801300290F0E7FFE7039801300390BE
:10498000D9E7FFE7FFE70EB010BD000080B586B0A5
:10499000059004910392029305980190006E98B1DE
:1049A000FFE70198006E006870B1FFE7019890F88A
:1049B0005000C00740B1FFE70198006E03680498FB
:1049C0000399029A9847FFE70198006908B9FFE741
:1049D0002CE00198C06804280CD1FFE701990298E7
:1049E0004B680969039ADDF810C002FB03C241F865
:1049F00022001BE00198C068022816D1FFE7019948
:104A0000029AD0B2C00802F47C4340EA531002F488
:104A1000780240EA12204B680969039ADDF810C059
:104A200002FB03C221F81200FFE7FFE706B080BDDA
:104A3000F0B593B084461D9E1C9D1B9CDDF868E07C
:104A40001998189F129611951094CDF83CE0CDF866
:104A500038C00D910C920B938DF82B000E98059099
:104A60000D990C9A0B9B9DF82BC0DDF83CE0109C37
:104A7000119D129E099608950794CDF818E0069CA2
:104A8000079D089E099FEE46CEF81070CEF80C6088
:104A9000CEF80850CEF80440CEF800C002F0ECFE8C
:104AA000059849F66851C0F600010831016018996F
:104AB000016613B0F0BD0000F0B5C5B04490449855
:104AC0000D9040A80C9001F059FD0D980C9902F042
:104AD000F5FF0D98807901460E9140B1FFE70E98E1
:104AE000012846D0FFE70E98022821D085E00D98D6
:104AF000406C0B9040984199429A439B3F933E9261
:104B00003D913C90012001F03BFE0D9904460B982D
:104B10000D6C3C993D9A3E9BDDF8FCC0EE46CEF80C
:104B20000850CEF80440CEF800C002F09BFC6FE0C5
:104B30000D98406C0A9040984199429A439B3B9350
:104B40003A9239913890032001F01AFE0D990446EB
:104B50000A980D6C3899399A3A9BDDF8ECC0EE460C
:104B6000CEF80850CEF80440CEF800C002F07AFC2F
:104B70004EE00D98406C089040984199429A439BB2
:104B800037933692359134900225284601F0F8FD8E
:104B90000D99044608980E6C3499359A369BDDF8C9
:104BA000DCC0EE46CEF80860CEF80440CEF800C077
:104BB00002F058FC0D98406C099040984199429A37
:104BC000439B3393329231913090042001F0D8FD11
:104BD0000D99044609980E6C3099319A329BDDF894
:104BE000CCC0EE46CEF80C60CEF80850CEF80440AB
:104BF000CEF800C002F09EFB0AE0FFE749F6E26053
:104C0000C0F6000040F60C01FDF702FDFFE7FFE7EC
:104C10000D98808814282ED1FFE70D9A116C506CE6
:104C2000409BDDF804C1DDF808E1439C2F94CDF8EA
:104C3000B8E0CDF8B4C02C939768556B966B2C9B5D
:104C40002D9ADDF8B8E02F9CEC46CCF818700027C0
:104C5000CCF81470CCF81060CCF80C50CCF80840AC
:104C6000CCF804E0CCF8002049F6F962C0F6000266
:104C700001F0BEFC93E10D9880881B282ED1FFE740
:104C80000D9A116C506C409BDDF804C1DDF808E111
:104C9000439C2B94CDF8A8E0CDF8A4C02893976846
:104CA000556B966B289B299ADDF8A8E02B9CEC4667
:104CB000CCF818700027CCF81470CCF81060CCF841
:104CC0000C50CCF80840CCF804E0CCF8002049F6B1
:104CD000BE62C0F6000201F08BFC60E10D98808896
:104CE00020282ED1FFE70D9A116C506C409BDDF807
:104CF00004C1DDF808E1439C2794CDF898E0CDF895
:104D000094C024939768556B966B249B259ADDF885
:104D100098E0279CEC46CCF818700027CCF814706B
:104D2000CCF81060CCF80C50CCF80840CCF804E07B
:104D3000CCF8002049F6C562C0F6000201F058FC2C
:104D40002DE10D9880880A282ED1FFE70D9A116C6D
:104D5000506C409BDDF804C1DDF808E1439C2394CE
:104D6000CDF888E0CDF884C020939768556B966B9A
:104D7000209B219ADDF888E0239CEC46CCF8187043
:104D80000027CCF81470CCF81060CCF80C50CCF89C
:104D90000840CCF804E0CCF8002049F6F362C0F6F5
:104DA000000201F025FCFAE00D9880882E282ED113
:104DB000FFE70D9A116C506C409BDDF804C1DDF8E3
:104DC00008E1439C1F94CDF878E0CDF874C01C93A3
:104DD0009768556B966B1C9B1D9ADDF878E01F9CBD
:104DE000EC46CCF818700027CCF81470CCF81060A2
:104DF000CCF80C50CCF80840CCF804E0CCF80020FB
:104E000049F6B762C0F6000201F0F2FBC7E00D9868
:104E100080887F282ED1FFE70D9A116C506C409B43
:104E2000DDF804C1DDF808E1439C1B94CDF868E08F
:104E3000CDF864C018939768556B966B189B199AB8
:104E4000DDF868E01B9CEC46CCF818700027CCF825
:104E50001470CCF81060CCF80C50CCF80840CCF8AA
:104E600004E0CCF8002049F6EE62C0F6000201F042
:104E7000BFFB94E00D98808890282ED1FFE70D9A13
:104E8000116C506C409BDDF804C1DDF808E1439CD7
:104E90001794CDF858E0CDF854C014939768556B2B
:104EA000966B149B159ADDF858E0179CEC46CCF8ED
:104EB00018700027CCF81470CCF81060CCF80C50A7
:104EC000CCF80840CCF804E0CCF8002049F6B962F0
:104ED000C0F6000201F08CFB61E0FFE7FFE7FFE7AF
:104EE000FFE7FFE7FFE70D980021ADF84E1080883F
:104EF000412818DBFFE70D9880885A2813DCFFE76C
:104F00000D98C069FEF7DEFB20B9FFE70D98808899
:104F1000079004E00D98808820300790FFE70798FD
:104F20008DF84E000FE00D98808830280ADBFFE7EF
:104F30000D988088392805DCFFE70D9800798DF8F9
:104F40004E00FFE7FFE70D9A116C506C409BDDF8B7
:104F500004C1DDF808E1439C1294CDF844E0CDF89B
:104F600040C00F939768556B966B0F9B109ADDF8B6
:104F700044E0129CEC46CCF818700027CCF8147072
:104F8000CCF81060CCF80C50CCF80840CCF804E019
:104F9000CCF800200DF14E0201F02AFBFFE745B0EE
:104FA000F0BD000080B582B001900198009001F042
:104FB00013FE009849F68051C0F6000108310160E7
:104FC00002B080BD80B582B001900198009000F0E1
:104FD00005F8009802F016FE02B080BD80B582B0E0
:104FE00001900198009001F013FE009802B080BD7E
:104FF0002DE9F04190B0DDF86CC0DDF868C0DDF857
:1050000064C0DDF860C0DDF85CC0DDF858C00F900A
:105010000E910D920C930F9806900C99169AEC46EF
:105020001023CCF8003008AB079300F03DFA069847
:10503000079B0E990D9ADDF85CE0189D199E1A9F4A
:10504000DDF86C80D0F800C0DCF800C06C46C4F815
:105050001080E760A6606560C4F800E0E04710B02B
:10506000BDE8F081F0B58DB0DDF858C0DDF854C072
:10507000DDF850C0DDF84CC0DDF848C00C900B9155
:105080000A9209930C98059009980890089808B915
:10509000FFE72DE000200790FFE70898007838B37D
:1050A000FFE7089806A900F0BBF9024605980899A1
:1050B000114408910B990A9A069BDDF848C0DDF867
:1050C0001CE0F444139C149D159E169FEE46CEF8EA
:1050D0001070CEF80C60CEF80850CEF80440CEF830
:1050E00000C000F075FA0146079808440790D4E71D
:1050F0000DB0F0BD87B0059004910392002002909E
:10510000049840680138019002980199084400EB26
:10511000D07040100090FFE702980199884230DC7F
:10512000FFE704988068009901EB410150F82100E5
:105130000399884204D2FFE700980130029018E0FA
:1051400004988068009901EB410150F8210003990F
:10515000884209D1FFE704988068009901EB41017A
:1051600000EB810006900FE0009801380190FFE706
:10517000FFE702980199084400EBD07040100090BE
:10518000CAE700200690FFE7069807B070470000C6
:1051900010B58CB0DDF84CC0DDF848C0DDF844C077
:1051A000DDF840C0DDF83CC0DDF838C00B900A9156
:1051B000099208931198411C119100788DF80F0005
:1051C0001198411C119100788DF80E009DF848004F
:1051D0009DF80F1000FB01F29DF84C00C1F1FF019A
:1051E00010FB0120000A05909DF849009DF80F1062
:1051F00000FB01F29DF84D00C1F1FF0110FB012001
:10520000000A06909DF84A009DF80F1000FB01F27D
:105210009DF84E00C1F1FF0110FB0120000A07902C
:1052200007980004069940EA01200599084340F0D8
:105230007F40049000200290FFE702981099884276
:1052400080F29C80FFE700200190FFE701980F9912
:10525000884280F28E80FFE7FFE79DF80E0048B994
:10526000FFE749F6E260C0F600004FF47D71FDF7FC
:10527000CFF9FFE7FFE79DF80F00C0B9FFE79DF802
:105280004F0098B1FFE70A980899019A11440E9AC5
:10529000029B1A44139BDDF824E0D0F800C0DCF830
:1052A00000C06C46C4F800E0E047FFE712E00A984F
:1052B0000899019A11440E9A029B1A44049BDDF846
:1052C00024E0D0F800C0DCF800C06C46C4F800E070
:1052D000E047FFE79DF80E0001388DF80E0000064C
:1052E000002841D1FFE71198411C119100788DF8F9
:1052F0000F001198411C119100788DF80E009DF857
:1053000048009DF80F1000FB01F29DF84C00C1F120
:10531000FF0110FB0120000A05909DF849009DF84F
:105320000F1000FB01F29DF84D00C1F1FF0110FBD1
:105330000120000A06909DF84A009DF80F1000FB1E
:1053400001F29DF84E00C1F1FF0110FB0120000A9F
:10535000079007980004069940EA01200599084340
:1053600040F07F400490FFE7FFE701980130019093
:105370006CE7FFE70298013002905EE70CB010BDC9
:1053800080B58CB0DDF838C00A9009910892079377
:105390000A98019009980690069818B1FFE70898B6
:1053A00048B9FFE70E9900200860079908604FF0A0
:1053B000FF300B9031E000200590FFE70698007861
:1053C00008B3FFE7069804A900F02AF801460198FF
:1053D00003910899049AFFF78DFE0290029820B17C
:1053E000FFE702980079009003E0089800780090A9
:1053F000FFE70099059850FA81F005900399069807
:1054000008440690DAE7059807990860089800783C
:105410000E99086000200B90FFE70B980CB080BD40
:1054200080B586B0059004910598039003980178A3
:1054300040F2F800C2F20000405C0290029801388D
:1054400001460191032821D80199DFE801F0020704
:105450000E19039800780499086022E003980088E8
:10546000000400BA049908601BE0039908784A78A0
:105470008978000440EA022008440499086010E09A
:105480000398006800BA049908600AE0FFE749F64B
:10549000E260C0F6000040F24941FDF7B9F8FFE7CD
:1054A000FFE7029806B080BD80B58CB0DDF838C04B
:1054B0000B900A910992089308980E99FAF789FFC0
:1054C0000998079003286AD80799DFE801F0020BD2
:1054D0002A4908980A9A49F6C261C0F60001FAF70B
:1054E0005DFF67E0089805900A9803F0DFFD41EC46
:1054F000100B9FED351B53EC112B51EC100B03F0EF
:105500007BFC0246059806920A46069942EC101B5F
:1055100053EC102B49F6D361C0F60001FAF73EFFB9
:1055200048E0089803900A9803F0C0FD41EC100B86
:105530009FED231B53EC112B51EC100B03F05CFC83
:105540000246039804920A46049942EC101B53EC5D
:10555000102B49F6D861C0F60001FAF71FFF29E0C9
:10556000089801900A9803F0A1FD41EC100B9FED03
:10557000121B53EC112B51EC100B03F03DFC0246B7
:10558000019802920A46029942EC101B53EC102B30
:1055900049F6DD61C0F60001FAF700FF0AE0FFE717
:1055A00049F6E260C0F6000040F2C531FDF730F880
:1055B000FFE7FFE70CB080BD0000000000408F4017
:1055C00000000000000059400000000000002440DE
:1055D0002DE9F04194B0DDF878C0DDF874C0DDF855
:1055E00070C0DDF86CC0DDF868C0129011911092A7
:1055F0000F93129807904FF0FF300E901C9870B3E5
:10560000FFE707981C990F9AFFF774FD0D900D980E
:1056100020B3FFE707981199109A1A9BDDF86CC028
:10562000DDF834E09EF804401C9D2D78DEF808601B
:105630001D9FDDF87880EE46CEF81480CEF810700D
:10564000CEF80C60CEF80850CEF80440CEF800C07A
:10565000FFF79EFD0D98007913906DE004E00020A7
:10566000CFF6FF700E90FFE710200C9000200B90FB
:10567000FFE70B980C9988425BDAFFE700200A905D
:10568000FFE70A980C9988424EDAFFE70A980B99CF
:10569000401A09900A980B99084408900998C8B1D3
:1056A000FFE709980130A8B1FFE70998012811D058
:1056B000FFE708980C9988420CD0FFE708980C99EE
:1056C0000139884206D0FFE708980C9901318842D9
:1056D00013D1FFE711981A990A9A11441B9A0B9B50
:1056E0001A440E9BDDF840E0D0F800C0DCF800C0A2
:1056F0006C46C4F800E0E04711E011981A990A9A44
:1057000011441B9A0B9B1A44109BD0F800C0DCF884
:1057100000C0EE46CEF800300023E047FFE7FFE789
:105720000A9801300A90ACE7FFE70B9801300B9024
:105730009FE70C981390FFE7139814B0BDE8F08131
:105740002DE9F04F9BB0289D279CDDF898E0DDF80F
:1057500094C02C9E2B9E2A9E299E249E1A951994B5
:10576000CDF860E0CDF85CC01690159114921393BB
:10577000169809901399249AEC461023CCF800301F
:105780000FAB0A93FFF790FE09980A9B1599149A9C
:10579000DDF85CC0DDF860E0199C1A9D0E950D9453
:1057A000CDF830E0CDF82CC0DDF8A480DDF8A8906D
:1057B000DDF8ACA0DDF8B0B0DDF82CE00C9D0D9E5E
:1057C0000E9FD0F800C0DCF804C06C46C4F81CB0D2
:1057D000C4F818A0C4F81490C4F81080E760A6605C
:1057E0006560C4F800E0E0471BB0BDE8F08F000042
:1057F0002DE9F04196B01F9D1E9CDDF874E0DDF8A8
:1058000070C0239E229E219E209E15951494CDF853
:105810004CE0CDF848C0119010910F920E93119862
:1058200006900E980D900D9808B9FFE744E0069891
:105830000D99209A129BDDF84CC0DDF850E0159CC4
:105840000A94CDF824E0CDF820C00793239E079B4F
:10585000DDF820C0099C0A9DEE460BAFCEF814700F
:105860000CAFCEF81070CEF80C60CEF80850CEF821
:105870000440CEF800C0FEF71FFF069810990F9A5B
:105880000E9B0C9CDDF848E0DDF84CC0A6440B9C58
:105890000CEB0405209E219FDDF88880D0F800C025
:1058A000DCF800C06C46C4F81080E760A660656054
:1058B000C4F800E0E047FFE716B0BDE8F081000063
:1058C00080B582B0019040F60000C4F202004FF4AF
:1058D0000051FDF781F802B080BD000080B540F2B4
:1058E0001470C2F200000078BFF35F8FC007A8B940
:1058F000FFE740F21470C2F2000002F035FE68B11A
:10590000FFE743F2B020C2F2000000F025F840F2B9
:105910001470C2F2000002F057FEFFE74FF0804023
:10592000FDF7CAF9012805D0FFE74FF08040FDF7E9
:105930001DF9FFE74FF08040FDF73AF9012805D047
:10594000FFE74FF08040FDF7F3F8FFE743F2B020A8
:10595000C2F2000080BD000080B594B0139013998E
:105960000391002001900860FDF7BCF8FCF78EFC65
:105970000FA8FCF7F9F91098FCF7B0F91098FCF7AC
:105980008FFA49F2B42EC0F6000EDEF80000DEF801
:105990000410DEF80820DEF80C30DEF810C0DEF867
:1059A00014E0CDF838E0CDF834C00C930B920A9196
:1059B00009900420FDF704F940F60000C4F202004B
:1059C00009A9FBF7BFFF49F2CC2CC0F6000CDCF8AC
:1059D0000000DCF80410DCF80820DCF80C30DCF8FF
:1059E00010C0CDF820C007930692059104900120C5
:1059F000FDF71CF9FDF770F9019A0321FDF72CF86A
:105A000001461C200290FCF7F9FF0298FCF7CCFF3E
:105A10004FF0804004A9FCF757FA039814B080BDFA
:105A200080B582B001900020C4F202001021FDF781
:105A300049F802B080BD000080B582B001908DF8B9
:105A40000310FFE743F20000C4F20100FDF798F8ED
:105A500008B9FFE7F6E79DF8031043F20000C4F22F
:105A60000100FDF749F8FFE743F20000C4F201002E
:105A7000FDF712F908B9FFE7F6E743F20000C4F2B8
:105A80000100FCF7DDFF02B080BD000080B586B0EC
:105A90000590049103920598019000200290FFE781
:105AA0000298039988420BD2FFE701980499029A61
:105AB000895CFFF7C1FFFFE7029801300290EFE732
:105AC00006B080BD80B586B005900491039205981C
:105AD000019000200290FFE70298039988420CD2BF
